S01500005061796D656E7453797374656D2E73726563AC
S11300000C944B070C9404160C942B160C94521657
S11300100C9468070C9468070C9468070C946807A0
S11300200C9468070C94DD080C94821A0C946807ED
S11300300C9468070C9468070C9468070C94680780
S11300400C94B5160C9468070C9468070C94680714
S11300500C946807510C540C570C5A0C5D0C8E0C04
S11300609C0C9F0C77656C636F6D650053776974A6
S11300706368696E6720746F204F5045524154493C
S11300804F4E206D6F646500537769746368696EC1
S11300906720746F2070726F6772616D6D696E672F
S11300A0206D6F64650057726F6E672050617373C3
S11300B0776F72642021212100456E746572205986
S11300C06F75722050617373776F7264203A0057B2
S11300D0726F6E6720436F6D6D616E6420506C6546
S11300E06173652054727920616761696E00506C98
S11300F06561736520456E74657220436F6D6D6133
S11301006E642063686F696365004C4F434B4544DC
S113011000506C656173652043616C6C20585858BD
S1130120580043415244004E4F54205245414459D3
S1130130005468616E6B20596F752020200057723F
S11301406F6E6720436F6D6D616E642121210045E0
S11301504E44204F462053454C454354494F4E206E
S113016021212100312D2054727920616E6F746831
S11301706572205472616E73616374696F6E2020BE
S11301802000322D2045786974202000506C656170
S113019073652043686F6F7365206F6E65206F66AB
S11301A02074686520666F6C6C6F77696E67204396
S11301B06F6D6D616E647320004E6F742065786995
S11301C073742043617264204461746100546869EB
S11301D073206361726420497320457869737400E5
S11301E04E6F74206578697374204361726420448F
S11301F06174610054686973206361726420497397
S113020020457869737400506C6561736520656E70
S113021074657220436172642050414E004E6F74C5
S11302202065786973742043617264204461746149
S1130230203A005761697420556E74696C207265A8
S11302406D6F76652074686973204361726420441D
S1130250617461203A00506C6561736520656E7449
S1130260657220436172642050414E203A007468E4
S11302706973206361726420616C726561647920C2
S113028065786973742021212100546865726520A2
S11302906973206E6F20656E6F7567682073706177
S11302A06365202121210047726561742061206EFD
S11302B065772043617264206164646564207375AA
S11302C0636365737366756C6C7900506C656173F8
S11302D06520656E746572204361726420546F7486
S11302E0616C2042616C616E63652000506C6561D5
S11302F0736520656E7465722034204E756D626579
S11303007273206F6E6C792000506C656173652088
S1130310656E74657220436172642050494E2020DA
S11303203A202000212121212121506C656173652F
S113033020656E7465722039204E756D6265727326
S1130340206F6E6C79202121212121212100506C04
S11303506561736520656E74657220436172642003
S113036050414E20203A202000506C656173652076
S1130370656E746572204361726420486F6C6465B5
S113038072204E616D652020000A00200A002A2A8E
S11303902A2A2A2A2A2A2A2A2A2A2A2A2A2A2A2AB9
S11303A02A2A2A2A2A2A2A2A2A2A2A2A2A2A2A2AA9
S11303B02A2A2A2A2A2A2A2A2A2A2A2A2A2A2A2A99
S11303C02A2A2A2A2A2A2A2A2A2A2A2A0A002A2AD3
S11303D02A2A2A2A2A2A2A2A2A2A2A2A2A2A2A2A79
S11303E02A20454E44204F462053454C454354490A
S11303F04F4E202121212A2A2A2A2A2A2A2A2A2A35
S11304002A2A2A2A2A2A2A2A2A2A2A2A0A002A2A92
S11304102A2A2A2A2A2A2A2A2A2A2A2A2A2A2A2A38
S11304202A2A2A2A2A2A2A2A2A2A2A2A2A2A2A2A28
S11304302A2A2A2A2A2A2A2A2A2A2A2A2A2A2A2A18
S11304402A2A2A2A2A2A2A2A2A2A2A2A0A002A2A52
S11304502A2A2A2A2A2A2A2A2A2A2A20382D2045E0
S11304607869742050726F6772616D6D696E672070
S11304706D6F6465202A2A2A2A2A2A2A2A2A2A2AE5
S11304802A2A2A2A2A2A2A2A2A2A2A2A0A002A2A12
S11304902A2A2A2A2A2A2A2A2A2A2A20372D2041A5
S11304A0646D696E204D6F6469667920446174617E
S11304B0202A2A2A2A2A2A2A2A2A2A2A2A2A2A2AA2
S11304C02A2A2A2A2A2A2A2A2A2A2A2A0A002A2AD2
S11304D02A2A2A2A2A2A2A2A2A2A2A20362D205255
S11304E06573657420446174612042617365202AD8
S11304F02A2A2A2A2A2A2A2A2A2A2A2A2A2A2A2A58
S11305002A2A2A2A2A2A2A2A2A2A2A2A0A002A2A91
S11305102A2A2A2A2A2A2A2A2A2A2A20352D205413
S11305206F74616C204E554D206F66204375727256
S1130530656E74204341524473202A2A2A2A2A2AA7
S11305402A2A2A2A2A2A2A2A2A2A2A2A0A002A2A51
S11305502A2A2A2A2A2A2A2A2A2A2A20342D2053D5
S1130560656172636820576974682043617264200E
S1130570486F6C646572204E616D65202A2A2A2AB0
S11305802A2A2A2A2A2A2A2A2A2A2A2A0A002A2A11
S11305902A2A2A2A2A2A2A2A2A2A2A20332D205396
S11305A0656172636820466F7220436172642057EC
S11305B06974682050414E202A2A2A2A2A2A2A2A83
S11305C02A2A2A2A2A2A2A2A2A2A2A2A0A002A2AD1
S11305D02A2A2A2A2A2A2A2A2A2A2A20322D205258
S11305E0656D6F766520436172642020202A2A2A73
S11305F02A2A2A2A2A2A2A2A2A2A2A2A2A2A2A2A57
S11306002A2A2A2A2A2A2A2A2A2A2A2A0A002A2A90
S11306102A2A2A2A2A2A2A2A2A2A2A20312D204129
S11306206464204361726409202A2A2A2A2A2A2A15
S11306302A2A2A2A2A2A2A2A2A2A2A2A2A2A2A2A16
S11306402A2A2A2A2A2A2A2A2A0A002A2A2A2A2A50
S11306502A2A2A2A2A2A2A2A2A2A2A2A2A2A2A2AF6
S11306602A2A2A2A2A2A2A2A2A2A2A2A2A2A2A2AE6
S11306702A2A2A2A2A2A2A2A2A2A2A2A2A2A2A2AD6
S11306802A2A2A2A2A2A2A2A2A0A002A2A2A2A2A10
S113069020506C656173652043686F6F7365206FCC
S11306A06E65206F662074686520666F6C6C6F776A
S11306B0696E6720436F6D6D616E6473202A2A2A08
S11306C02A2A2A2A2A2A2A2A2A0A002A2A2A2A2AD0
S11306D02A2A2A2A2A2A2A2A2A2A2A2A2A2A2A2A76
S11306E02A2A2A2A2A2A2A2A2A2A2A2A2A2A2A2A66
S11306F02A2A2A2A2A2A2A2A2A2A2A2A2A2A2A2A56
S11307002A2A2A2A2A2A2A2A2A0A0057726F6E6754
S11307102063686F736520506C6561736520547243
S11307207920616761696E007761697420212121F4
S11307300070726F626C656D205769746820446143
S1130740746120426173652043616C6C205365724F
S11307507669636520537570706F72740044656CBC
S113076065746564207375636365737366756C6C17
S11307707900200A002A2A2A2A2A2A2A2A2A2A2A04
S11307802A2A2A2A2A2A2A2A2A2A2A2A2A2A2A2AC5
S11307902A2A2A2A2A2A2A2A2A2A2A2A2A2A2A2AB5
S11307A02A2A2A2A2A2A2A2A2A0A002A2A2A2A2AEF
S11307B02A2A2A2A2A2A200A002A2A2A2A2A2054C9
S11307C06865204E756D626572206F6620496E7390
S11307D074616C6C65642043617264732069732076
S11307E03A002A2A2A2A2A2A2A2A2A2A2A2A2A2A7F
S11307F02A2A2A2A2A2A2A2A2A2A2A2A2A2A2A2A55
S11308002A2A2A2A2A2A2A2A2A2A2A2A2A2A2A2A44
S11308102A2A2A2A2A2A0A00455849542041646D62
S1130820696E204D6F64696679696E67206D6F64C7
S113083065207375636365737366756C6C79004DBD
S11308406178696D756D204461696C7920416D6FC3
S1130850756E7420446F6573204E6F7420536574F5
S1130860205375636365737366756C6C79202121FD
S11308702121004D6178696D756D204461696C7941
S113088020416D6F756E7420537563636573736671
S1130890756C6C7900200A00506C656173652045A5
S11308A06E74657220746865204D417820446169D6
S11308B06C7920416D6F756E74004572726F722091
S11308C0446F6573204E6F7420436C656172656478
S11308D0205375636365737366756C6C792021218D
S11308E02121004572726F7220436C6561726564E8
S11308F0205375636365737366756C6C7900506C13
S1130900656173652054727920416761696E0041A5
S1130910646D696E20446174612053746F72656400
S1130920205375636365737366756C6C79007761C6
S113093069742021212120200A00456E74657220EB
S113094061206E65772061646D696E204D41582089
S113095054656D702076616C75653A2000506C6545
S11309606173652054727920416761696E2000418A
S1130970646D696E20446174612053746F726564A0
S1130980205375636365737366756C6C7900776166
S113099069742021212120200A00506C656173654F
S11309A020656E7465722061206E65772061646DC8
S11309B0696E2070617373203A00506C65617365D1
S11309C020656E7465722061206E65772061646DA8
S11309D0696E206E616D65203A00200A00454E4420
S11309E0204F462053454C454354494F4E20212126
S11309F021002A2A2A2A2A2A2A2A2A2A2A2A2A2A86
S1130A002A2A2A20352D2045786974202A2A2A2A60
S1130A102A2A2A2A2A2A2A2A2A2A2A2A2A2A2A2A32
S1130A202A2A2A2A2A2A2A2A2A2A2A2A2A2A2A2A22
S1130A300A002A2A2A2A2A2A2A2A2A2A2A2A2A2A5C
S1130A402A2A2A20342D20536574204D61782044AD
S1130A5061696C7920416D6F756E74202A2A2A2A87
S1130A602A2A2A2A2A2A2A2A2A2A2A2A2A2A2A2AE2
S1130A700A002A2A2A2A2A2A2A2A2A2A2A2A2A2A1C
S1130A802A2A2A20332D20436C6561722045727214
S1130A906F7220466C6167202A2A2A2A2A2A2A2A67
S1130AA02A2A2A2A2A2A2A2A2A2A2A2A2A2A2A2AA2
S1130AB00A002A2A2A2A2A2A2A2A2A2A2A2A2A2ADC
S1130AC02A2A2A20322D205365742041646D696ED0
S1130AD0204D6178696D756D2054656D7065726126
S1130AE074757265202A2A2A2A2A2A2A2A2A2A2A54
S1130AF00A002A2A2A2A2A2A2A2A2A2A2A2A2A2A9C
S1130B002A2A2A20312D205365742041646D696E90
S1130B102050617373776F726420616E64204E613C
S1130B206D65202A2A2A2A2A2A2A2A2A2A2A2A2AAD
S1130B300A00506C656173652043686F6F736520AC
S1130B406F6E65206F662074686520666F6C6C6FCD
S1130B5077696E6720436F6D6D616E647320005416
S1130B606869732063617264204973206E6F742016
S1130B7045786973740054686973206361726420F2
S1130B8020497320457869737400506C65617365FE
S1130B9020656E7465722043617264204E616D65D8
S1130BA03A0057454C434F4D45204F504552415410
S1130BB04500000000004D4F4445000000000000C7
S1130BC000000000000000000000504C4541534567
S1130BD020454E54455220000000000000004341CF
S1130BE0524400000000000000000000000000006B
S1130BF00000454E54455220544845000000000072
S1130C000000000000005452414E53414320414D26
S1130C104F554E542000000000005452414E5341A1
S1130C204354494F4E20203A2000000000005772E0
S1130C306F6E67200000000000000000000000004C
S1130C4000005472616E73616374696F6E0000001A
S1130C500000000000004552524F525F54656D7011
S1130C600000000000000000000043414C4C5F58AD
S1130C705858585858000000000000000000447202
S1130C8061676F6E73000000000000000000000048
S1130C90000041544D2053797374656D00000000C9
S1130CA0000000000000656E7465722050726F676A
S1130CB072616D000000000000004D6F646500006B
S1130CC0000000000000000000000000000050725E
S1130CD06F6772616D204D6F644500000000000075
S1130CE000004E4F5420524541445900000000007A
S1130CF00000000000005448414E4B00000000007A
S1130D0000000000000000000000594F55000000E2
S1130D100000000000000000000000000000537507
S1130D2063636573730000000000000000000000AE
S1130D30000048696E742121212120456D70747969
S1130D40204461746142617365200A002A2A2A2AB8
S1130D502A2A2A2A2A2A2A2A2A2A2A2A2A2A2A2AEF
S1130D602A2A2A2A2A2A2A2A2A2A2A2A2A2A2A2ADF
S1130D702A2A2A2A2A2A2A2A2A2A2A2A2A2A2A2ACF
S1130D802A2A2A2A2A2A2A2A2A2A0A000A000A207D
S1130D90202020202020202020202020202020006F
S1130DA02A2A2A2A2A2A2A2A2A2A2A2A2A2A2A2A9F
S1130DB02A2A2A2A2A2A2A2A2A2A2A2A2A2A2A2A8F
S1130DC02A2A2A2A2A2A2A2A2A2A2A2A2A2A2A2A7F
S1130DD02A2A2A2A2A2A2A2A2A2A2A2A2A2A0A2099
S1130DE0202020202020202020202020202020001F
S1130DF00A002A2A2A2A2A2A2A2A2A2A2A2A2A2A99
S1130E002A2A2A2A2A2A2A2A2A2A2A2A2A2A2A2A3E
S1130E102A2A2A2A2A2A2A2A2A2A2A2A2A2A2A2A2E
S1130E202A2A2A2A2A2A2A2A2A2A2A2A2A2A2A2A1E
S1130E300A002020202020202020202020202020E4
S1130E4020200A002A2A2A2A2A2A2A2A2A2A2A2A5C
S1130E502A2A2A2A2A2A2A2A2A2A2A2A2A2A2A2AEE
S1130E602A2A2A2A2A2A2A2A2A2A2A2A2A2A2A2ADE
S1130E702A2A2A2A2A2A2A2A2A2A2A2A2A2A2A2ACE
S1130E802A2A0A2020202020202020202020202060
S1130E902020000A000011241FBECFE5D8E0DEBFE9
S1130EA0CDBF11E0A0E6B0E0E0EBF5E402C00590B0
S1130EB00D92A83AB107D9F722E0A8EAB1E001C03F
S1130EC01D92A034B207E1F70E94FE150C94D622BD
S1130ED00C940000CF93DF9300D0CDB7DEB78983A5
S1130EE09DE09A838A3049F441E050E0BE016E5F90
S1130EF07F4F87E790E00E94E21A41E050E0BE0194
S1130F006F5F7F4F87E790E00E94E21A80E090E0F5
S1130F100F900F90DF91CF9108950F931F93CF936C
S1130F20DF93CDB7DEB76E970FB6F894DEBF0FBE72
S1130F30CDBF8AE0FE013196DF01982F1D929A956C
S1130F40E9F73A96DF01982F1D929A95E9F73A96B8
S1130F50DF011D928A95E9F78EEE90E00E948C15D0
S1130F606AE0CE0145960E94BC0966E071E0CE01BC
S1130F7045960E948C1F8C01892B69F06CE071E00E
S1130F80CE0145960E948C1F892B29F08FEC90E0AE
S1130F900E948C15E5CF012BE1F58E01055F1F4FF3
S1130FA0BE016F5F7F4FC8010E946F101F930F93A4
S1130FB084E191E09F938F930E94C21F89EB90E09C
S1130FC00E948C15CE0145962AE0FC0111922A95C7
S1130FD0E9F76AE00E94BC090F900F900F900F9000
S1130FE009C086EA90E00E948C156AE0CE0145961D
S1130FF00E94BC09BE016B5E7F4FCE0101960E9428
S11310008C1F892B71F788E890E00E948C1581E091
S113101005C08CE690E00E948C1580E06E960FB6B9
S1131020F894DEBF0FBECDBFDF91CF911F910F911A
S113103008958EE79CE00E946009AC0161E081E0C4
S11310400E941E1382E99CE00E946009AC0161E0E9
S113105082E00E941E1362E97CE08EE79CE00E941D
S1131060C1152FEF8DE399E4215080409040E1F7C2
S113107000C0000081E00E947A124AE251E065E07B
S113108081E00E941E1384E690E00E948C152FEFED
S11310908DE399E4215080409040E1F700C00000C6
S11310A081E00E947A120E948D07813011F40E941F
S11310B0050C789487E690E00E9475190E9401114E
S11310C0811103C00E94B70CF4CF0E94FB0EF1CF34
S11310D0CF93DF9300D01F92CDB7DEB780E889832A
S11310E081E08A838B83BE016F5F7F4F80E390E052
S11310F00E942C1788E08983BE016F5F7F4F80E3D5
S113110090E00E942C1781E790E00E9445150F9013
S11311100F900F90DF91CF910895CF93DF9300D07C
S113112000D01F92CDB7DEB70E94CD138BEB90E0B9
S11311300E9438110E94DA1286E990E00E94541746
S11311400E947B1488E890E00E94391887E790E0B9
S11311500E94A91A0E94680887E690E00E94BA18C3
S113116080E690E00E947D16F89489B7846089BF78
S113117080E00E949916CE0101960E94BB10CE0118
S113118001960E94601F9093A9018093A801019683
S113119031F482E390E09093A9018093A8018FE950
S11311A090E090933D0280933C020F900F900F903B
S11311B00F900F90DF91CF9108951F920F920FB669
S11311C00F9211240F900FBE0F901F901895CF937C
S11311D0DF931F92CDB7DEB719828BEC96E09F9315
S11311E08F930E94D81F8BE896E09F938F930E9461
S11311F0D81F8BE496E09F938F930E94D81F8EE0B4
S113120096E09F938F930E94D81F8EEC95E09F9356
S11312108F930E94D81F8EE895E09F938F930E942E
S1131220D81F8EE495E09F938F930E94D81F8EE081
S113123095E09F938F930E94D81F8EEC94E09F9328
S11312408F930E94D81F8EE894E09F938F930E94FF
S1131250D81F8EE494E09F938F930E94D81F8EE052
S113126094E09F938F930E94D81F8EEC93E09F93FA
S11312708F930E94D81F8EE893E09F938F930E94D0
S1131280D81F8BE893E09F938F930E94D81F41E06F
S113129050E0BE016F5F7F4F87E790E00E94FF1A26
S11312A089E893E09F938F930E94D81F0FB6F89418
S11312B0DEBF0FBECDBF89810F90DF91CF9108951E
S11312C0009741F0BC018AEA91E00E947E1F8AEAFD
S11312D091E0089580E090E008951F93CF93DF9309
S11312E0009709F445C0EC0181E00E947A1210E0F5
S11312F03DC041E068E080E390E00E9447174DE183
S113130050E0BE0188E890E00E949B1862E371E01F
S1131310CE010E948C1F892BC9F467E271E082E23E
S113132091E00E94C1158EED9BE00E946009AC0122
S113133061E081E00E941E1382EE9CE00E9460093D
S1131340AC0161E082E00E941E1301C011E040E0A4
S113135068E080E390E00E9447172FEF87EA91E668
S1131360215080409040E1F700C00000112309F2B1
S1131370DF91CF911F9108950F931F93CF93DF9324
S1131380009791F0662391F0EC01062F10E0A8017C
S113139060E070E00E94851FA801BE0187E790E02D
S11313A00E94FF1A80E003C08FEF01C08FEFDF912E
S11313B0CF911F910F9108950F931F93CF93DF93B4
S11313C0CDB7DEB7A3970FB6F894DEBF0FBECDBF7F
S11313D08E010F5F1F4F83E2F80111928A95E9F79E
S11313E089E693E00E948C156BE0C8010E94BC0959
S11313F08EE493E00E948C156BE0CE010C960E9463
S1131400BC0910E090E005C080538A3008F41F5FE7
S11314109F5FECE0F0E0EC0FFD1FE90FF11D808110
S11314208111F2CF193021F084E293E00E948C15EF
S11314301930F1F689E093E00E948C1565E0CE0145
S113144047960E94BC0910E090E005C080538A30A2
S113145008F41F5F9F5FE7E1F0E0EC0FFD1FE90F69
S1131460F11D80818111F2CF143021F08CEE92E0D5
S11314700E948C151430F1F68BEC92E00E948C15CE
S113148067E0CE014D960E94BC09CE0101960E94F0
S1131490A30F811105C087EA92E00E948C150BC04E
S11314A0833029F48AE892E00E948C1504C08EE609
S11314B092E00E948C15A3960FB6F894DEBF0FBE7F
S11314C0CDBFDF91CF911F910F9108950F931F937B
S11314D0CF93DF93CDB7DEB7A3970FB6F894DEBFF3
S11314E00FBECDBF8E010F5F1F4F83E2F801119233
S11314F08A95E9F786E592E00E948C156BE0CE01AF
S11315000C960E94BC09C8010E94F70F811105C006
S113151083E392E00E948C1504C08DE192E00E9466
S11315208C15A3960FB6F894DEBF0FBECDBFDF9126
S1131530CF911F910F9108950F931F93CF93DF9332
S1131540CDB7DEB7A3970FB6F894DEBF0FBECDBFFD
S11315508E010F5F1F4F83E2F80111928A95E9F71C
S113156087E092E00E948C156BE0CE010C960E94FD
S1131570BC0960E0C8010E94300F019631F084EF8D
S113158091E00E948C1581E005C080EE91E00E94FC
S11315908C1582E0A3960FB6F894DEBF0FBECDBFC4
S11315A0DF91CF911F910F9108950F931F93CF93C4
S11315B0DF93CDB7DEB7A3970FB6F894DEBF0FBEA7
S11315C0CDBF8E010F5F1F4F83E2F80111928A9500
S11315D0E9F78AE89BE00E948C156AE0C8010E9442
S11315E0BC0961E0C8010E94300F019629F086E72A
S11315F09BE00E948C1504C08FE59BE00E948C1533
S1131600A3960FB6F894DEBF0FBECDBFDF91CF9186
S11316101F910F9108951F93CF93DF93CDB7DEB73A
S1131620AE970FB6F894DEBF0FBECDBF1982FE0190
S1131630329683E2DF011D928A95E9F710E0D8C063
S113164082E39BE00E948C1582EF9AE09F938F9334
S11316500E94D81F82EB9AE09F938F930E94D81F19
S113166082E79AE09F938F930E94D81F82E39AE0C7
S11316709F938F930E94D81F82EF99E09F938F933B
S11316800E94D81F8DED99E00E948C1541E050E036
S1131690BE016F5F7F4F87E790E00E94FF1A8AEDDB
S11316A099E09F938F930E94D81F0FB6F894DEBFE2
S11316B00FBECDBF8981833309F465C028F481331B
S11316C051F08233D1F194C0843309F46BC0853373
S11316D009F489C08DC08AEB99E00E948C156AE0F8
S11316E0CE0102960E94BC098AE999E00E948C15F9
S11316F06AE0CE010D960E94BC098EE899E00E9432
S11317008C159FEFADE3B9E49150A040B040E1F7F0
S113171000C00000BE01635F7F4FCE0102960E94AD
S11317204510811105C08FE699E00E948C1560C0B8
S11317308DE599E00E948C155BC08AE399E00E94D4
S11317408C156AE0CE0102960E94BC098EE299E0F3
S11317500E948C152FEF8DE399E421508040904036
S1131760E1F700C00000CE0102960E949B10811197
S113177005C08FE099E00E948C153AC08EEF98E086
S11317800E948C1535C081E00E94C310811105C0F0
S113179083EE98E00E948C152BC08AEB98E00E949F
S11317A08C1526C088E998E00E948C156AE0CE0169
S11317B085960E94BC0985E998E09F938F930E94C7
S11317C0D81FCE0185960E9430110F900F90811181
S11317D005C083E798E00E948C150AC08FE398E067
S11317E00E948C1505C088E198E00E948C1511E0D8
S11317F0112309F425CFAE960FB6F894DEBF0FBEC1
S1131800CDBFDF91CF911F910895CF9386EA9CE0DD
S11318100E946009AC0161E081E00E941E138AEB22
S11318209CE00E946009AC0161E082E00E941E130A
S11318306AEB7CE086EA9CE00E94C1152FEF8DE301
S113184099E4215080409040E1F700C0000081E01D
S11318500E947A128EEC9CE00E946009AC0161E067
S113186081E00E941E136EEC7CE086EB9BE00E94FC
S1131870C1152FEF8DE399E4215080409040E1F7AA
S113188000C00000C0E06EC00E94E70890E0FC01C8
S1131890F197E830F10508F061C0E65DFF4F0C9464
S11318A0021F0E94DC095EC00E94660A5BC00E949F
S11318B09C0A58C00E94D50A55C082EE97E09F93B7
S11318C08F930E94D81F89EB97E09F938F930E9478
S11318D0D81F0E942F109F938F938CE391E09F93C6
S11318E08F930E94C21F8BEA97E09F938F930E946D
S11318F0D81F85E797E09F938F930E94D81F82E7B4
S113190097E09F938F930E94D81F8DB79EB70E9632
S11319100FB6F8949EBF0FBE8DBF24C00E94140F53
S1131920811105C08DE597E00E948C151BC081E3F1
S113193097E00E948C1516C00E940B0B13C088E21E
S113194097E00E948C159FEF2DE389E4915020408D
S11319508040E1F700C00000C1E004C08BE097E0E4
S11319600E948C15CC2309F48FCFCF91089582EA7D
S11319709BE00E946009AC0161E081E00E941E13BB
S113198086EB9BE00E946009AC0161E082E00E946A
S11319901E1366EB7BE082EA9BE00E94C1152FEFE9
S11319A08DE399E4215080409040E1F700C00000AD
S11319B01092BE01F8C11092C60186E0E5EBF0E09A
S11319C0DF011D928A95E9F781E00E947A128AEC80
S11319D09BE00E946009AC0161E081E00E941E135B
S11319E08EED9BE00E946009AC0161E082E00E9400
S11319F01E136EED7BE08AEC9BE00E94C11560E053
S1131A0081E790E00E9475158130C9F360E081E7B9
S1131A1090E00E947515811167C181E192E00E94F6
S1131A206D0960E081E192E00E94300F9093C00163
S1131A308093BF018F3FBFEF9B07E9F044E26BEC5B
S1131A4071E00E94811487EE91E00E94601F092ECC
S1131A50000CAA0BBB0B8093B1009093B200A0932F
S1131A60B300B093B4008DEC91E00E948C1581E03A
S1131A708093C50106C089EB91E00E948C151092F9
S1131A80C5018091C501813009F02EC10E947A12EE
S1131A9082EF9BE00E946009AC0161E081E00E945A
S1131AA01E1386E09CE00E946009AC0161E082E0C4
S1131AB00E941E1366E07CE082EF9BE00E94C11549
S1131AC02FEF8DE399E4215080409040E1F700C06E
S1131AD0000066E07CE082EF9BE00E94C11581E09B
S1131AE00E947A128AE19CE00E946009AC0161E0E4
S1131AF081E00E941E1361E082E00E94A1128AE14B
S1131B009CE00E948C15C0E013C0AFEFB3EC29E059
S1131B10A150B0402040E1F700C000008BEB90E002
S1131B200E9481118093C6018A3211F41092C60179
S1131B308091C601882349F3833271F08AE20E94BE
S1131B406012EC2FF0E0EB54FF4F8091C6018083CC
S1131B501092C601CF5FECCF85EB90E00E94601F2E
S1131B60092E000CAA0BBB0B8093C1019093C201F8
S1131B70A093C301B093C40181E00E947A1267E08C
S1131B808091C1019091C2010E942D138FEF9DE3BA
S1131B90A9E481509040A040E1F700C000004091CA
S1131BA0C1015091C2016091C3017091C40180913F
S1131BB0AD009091AE00A091AF00B091B000841739
S1131BC09507A607B70768F08091B1009091B2001D
S1131BD0A091B300B091B40084179507A607B70786
S1131BE028F581E00E947A128EE29CE00E9460094E
S1131BF0AC0161E081E00E941E1382E49CE00E943B
S1131C006009AC0161E082E00E941E1362E47CE0A2
S1131C108EE29CE00E94C115BFEF2DE389E4B15030
S1131C2020408040E1F700C000005EC0841B950B9B
S1131C30A60BB70B8093B1009093B200A093B300AE
S1131C40B093B4004AE067EE71E00E94951F81E012
S1131C500E947A12C1EBD0E067E0888199810E94EA
S1131C602D138091B4008F938091B3008F93809152
S1131C70B2008F938091B1008F938FE391E09F9393
S1131C808F930E94C21F44E26BEC71E08091BF010C
S1131C909091C0010E94E3144BE551E061E081E0C2
S1131CA00E941E1343E651E061E082E00E941E138D
S1131CB065E0888199810E942D1366E480E00E948A
S1131CC00C149FEFA3EDB0E39150A040B040E1F7B6
S1131CD000C0000060E080E00E940C140F900F90A0
S1131CE00F900F900F900F908CE891E00E948C154C
S1131CF062E871E084E691E00E94C1158FE491E00E
S1131D000E948C1581E00E947A124FE651E061E056
S1131D1081E00E941E134EE751E061E082E00E94E0
S1131D201E1381E03EC01092C60113C02FEF83EC56
S1131D3099E0215080409040E1F700C000008BEB17
S1131D4090E00E9481118093C6018A3211F41092AE
S1131D50C6018091C601882349F381E00E947A126A
S1131D604DE851E061E081E00E941E134091C601FC
S1131D7066E082E00E94BE128091C601813319F0B0
S1131D80823329F009C01092BE0180E00AC081E0CC
S1131D908093BE0180E005C08EE391E00E948C1523
S1131DA081E08111C0CF8091BE01882309F403CE64
S1131DB0AFEFB7EA21E6A150B0402040E1F700C000
S1131DC0000081E391E00E948C1581E00E947A1268
S1131DD086EF9CE00E946009AC0161E081E00E9412
S1131DE01E138AE09DE00E946009AC0161E082E07C
S1131DF00E941E13FFCF86E59CE00E946009AC019F
S1131E0061E081E00E941E138AE69CE00E94600962
S1131E10AC0161E082E00E941E1361E171E08AE09E
S1131E2091E00E94C115FFCFCF93DF9300D000D083
S1131E30CDB7DEB71A8219828AEC9BE69C838B832A
S1131E4044E0BE016F5F7F4F80E090E00E94E314A6
S1131E5080E00F900F900F900F90DF91CF91089535
S1131E60FF920F931F93CF93DF938C01F62E42E0E2
S1131E7067EC71E080E090E00E9481148091C701DA
S1131E809091C801892B09F04CC082E39DE09F9397
S1131E908F930E94D81F0F900F908FEF9FEF4DC02C
S1131EA042E069EC71E0CE010E9481148091C90185
S1131EB09091CA018F3F2FEF920789F12091C701BA
S1131EC03091C801215031093093C8012093C701D2
S1131ED044E26BEC71E00E948114F1100EC0B80171
S1131EE0655F7F4F86ED91E00E948C1F892B89F4FA
S1131EF08091C9019091CA0120C0B8018BEC91E096
S1131F000E948C1F892B29F48091C9019091CA01E8
S1131F1014C08091C7019091C801892B61F0229669
S1131F2002C0C2E0D0E0CA3C8BE6D80708F4B8CFC0
S1131F308FEF9FEF02C08FEF9FEFDF91CF911F9143
S1131F400F91FF9008950F931F93CF93DF9300D0C9
S1131F5000D0CDB7DEB78C011A8219821C821B8295
S1131F6042E0BE016D5F7F4F80E090E00E948114EB
S1131F708B819C81853E954370F560E0C8010E9489
S1131F80300F019651F52B813C81C90101969C8348
S1131F908B8344E2429FC001439F900D11248653DA
S1131FA094499A838983B8010E94E3148B819C81AC
S1131FB0019642E0BE016F5F7F4F880F991F0E9418
S1131FC0E31442E0BE016D5F7F4F80E090E00E9429
S1131FD0E31480E003C083E001C081E00F900F9020
S1131FE00F900F90DF91CF911F910F910895CF9390
S1131FF0DF9300D000D0CDB7DEB760E00E94300F91
S11320002FEF3FEF3A8329831C821B828F3F2FEFF0
S11320109207E9F042E0BE016F5F7F4F0E94E31434
S113202042E0BE016D5F7F4F80E090E00E9481142A
S11320308B819C8101979C838B8342E0BE016D5F01
S11320407F4F80E090E00E94E31480E001C082E0D2
S11320500F900F900F900F90DF91CF910895CF9331
S1132060DF9300D0CDB7DEB71A82198242E0BE01F9
S11320706F5F7F4F80E090E00E94811489819A8194
S11320800F900F90DF91CF910895EF92FF920F93ED
S11320901F93CF93DF931F92CDB7DEB77C018B01E3
S11320A083E5898341E0BE016F5F7F4F88EE9DEF3A
S11320B00E94E31449E0B70182EF9DEF0E94E3140C
S11320C049E0B8018CEF9DEF0E94E31480E00F908B
S11320D0DF91CF911F910F91FF90EF900895EF92B0
S11320E0FF920F931F93CF93DF931F92CDB7DEB769
S11320F07C018B01198241E0BE016F5F7F4F88EE46
S11321009DEF0E9481148981833561F44AE0B7010F
S113211082EF9DEF0E9481144AE0B8018CEF9DEF9D
S11321200E94811480E00F90DF91CF911F910F9155
S1132130FF90EF9008950F931F93CF93DF9300D0F8
S1132140CDB7DEB78C011A82198242E0BE016F5FFF
S11321507F4F88EE9DEF0E94E31445E0B80186E0CE
S11321609EEF0E94E31480E00F900F90DF91CF91D7
S11321701F910F91089545E0BC0186E09EEF0E94F7
S1132180811480E00895CF93DF93CDB7DEB72A970B
S11321900FB6F894DEBF0FBECDBF96E0ECEFF0E0D3
S11321A0DE01119601900D929A95E1F7FE013796A2
S11321B094E0DF011D929A95E9F7811109C04AE084
S11321C0BE016F5F7F4F80E19EEF0E94E3140FC05A
S11321D0813069F4BE016F5F7F4F8AE0FB01119289
S11321E08A95E9F74AE080E19EEF0E94E31480E0DB
S11321F02A960FB6F894DEBF0FBECDBFDF91CF9104
S113220008950F931F93CF93DF93CDB7DEB72A972B
S11322100FB6F894DEBF0FBECDBF8E010F5F1F4F08
S11322208AE0F80111928A95E9F74AE0B80180E161
S11322309EEF0E9481146CEF70E0C8010E948C1F15
S1132240892B11F481E001C080E02A960FB6F8943E
S1132250DEBF0FBECDBFDF91CF911F910F910895C7
S113226046E0BC018AE19EEF0E94E31480E00895F9
S1132270FF920F931F93CF93DF938C0181E08093A0
S1132280EF01F12C19C0CF2DD0E0CE01880F991F9A
S1132290C80FD91FC00FD11F8E858093EE016EEE3B
S11322A071E08C859D850E942C1741E06E858C859C
S11322B09D850E944717F39482E08F1520F7EEEE78
S11322C0F1E0118281E08283C0E013C0EC2FF0E0E2
S11322D0CF01880F991FE80FF91FE00FF11F8281CA
S11322E08093EE016EEE71E0808191810E942C1743
S11322F0CF5FC43058F3DF91CF911F910F91FF90BE
S11323000895CF92DF92EF92FF920F931F93CF9392
S1132310DF93EC01C12C4DC00C2D10E0F801EE0F41
S1132320FF1FE00FF11FEC0FFD1F40E06685848561
S113233095850E944717D12C2AC0ED2CF12CF7016A
S1132340EE0FFF1FEE0DFF1DEC0FFD1F628180815C
S113235091810E943F17811119C0C801880F991FEC
S1132360800F911FC80FD91F41E06E858C859D8514
S11323700E944717C701880F991F8E0D9F1D805318
S11323809F4FFC01E00FF11F808118C0D39483E0BC
S11323908D1598F6F801EE0FFF1F0E0F1F1FFE019B
S11323A0E00FF11F41E06685848595850E944717FB
S11323B0C39482E08C1508F0AFCF80E0DF91CF9119
S11323C01F910F91FF90EF90DF90CF900895CF93DE
S11323D0DF93CCEDD0E041E068858E819F810E943F
S11323E0471785E08A95F1F7000040E068858E8103
S11323F09F810E9447178FE39FE10197F1F700C087
S11324000000DF91CF9108950F931F93CF93C82FAE
S113241083E090E023C08C010F5F1F4F41E050E048
S1132420002E02C0440F551F0A94E2F72C2F30E00F
S113243042235323002E02C0559547950A94E2F790
S1132440FC01EE0FFF1F8E0F9F1FFC01E452FF4F94
S11324506281808191810E944717C801873091056C
S1132460D4F20E94E71103E010E021C0C8010397F1
S113247041E050E0082E02C0440F551F0A94E2F7D1
S11324802C2F30E04223532302C0559547958A955B
S1132490E2F7F801EE0FFF1FE00FF11FE452FF4FC8
S11324A06281808191810E9447170F5F1F4F07301F
S11324B01105E4F20E94E711CF911F910F91089545
S11324C01F93CF93DF93182FCCEDD0E041E06A81C6
S11324D0888199810E94471740E06D818B819C819E
S11324E00E944717812F0E94041280E0DF91CF9150
S11324F01F9108951F93CF93DF93182FCCEDD0E055
S113250040E06A81888199810E94471740E06D818B
S11325108B819C810E944717812F0E94041280E0C6
S1132520DF91CF911F910895CF93DF93EC0103C006
S113253021960E94601288818111FACFDF91CF9198
S11325400895CF93DF9300D0CDB7DEB790E8998399
S113255090EC9A83E82FF0E0319781E090E08C0FC3
S11325609D1FE80FF91F8081860F81500E947A1207
S113257080E00F900F90DF91CF9108951F93CF9338
S1132580DF93142F0E94A112CCEDD0E041E06A81C8
S1132590888199810E94471740E06D818B819C81DD
S11325A00E944717812F0E94041280E0DF91CF918F
S11325B01F9108950F931F93CF93DF9300D01F9221
S11325C0CDB7DEB72FEF89EF90E0215080409040E7
S11325D0E1F700C0000081E08A831B8200E010E084
S11325E012C0F801EE0FFF1FE00FF11FE452FF4F7E
S11325F082818983BE016F5F7F4F808191810E94B8
S11326002C170F5F1F4F073011055CF383E30E9403
S11326107A1282E30E947A1288E20E947A128CE093
S11326200E947A1281E00E947A1280E00F900F904B
S11326300F90DF91CF911F910F910895CF93DF9366
S1132640EA010E94A11203C021960E9460128881AF
S11326508111FACFDF91CF910895EF92FF920F93FA
S11326601F93CF93DF93CDB7DEB7EDB6FEB62DB78C
S11326703EB7261B31090FB6F8943EBF0FBE2DBFDF
S11326800DB71EB70F5F1F4F4AE0B8010E94951F98
S1132690C8010E94941280E00FB6F894FEBE0FBEEB
S11326A0EDBEDF91CF911F910F91FF90EF900895B0
S11326B0EF92FF920F931F93CF93DF93C82FD0E035
S11326C07E01EE0CFF1C87010C0F1D1F000F111F54
S11326D004561E4F40E0F8016481808191810E947C
S11326E04717E80140E06D818A819B810E9447176A
S11326F0DF91CF911F910F91FF90EF900895EF928A
S1132700FF920F931F93CF93DF93C82FD0E07E01E6
S1132710EE0CFF1C87010C0F1D1F000F111F045628
S11327201E4F41E0F8016481808191810E94471726
S1132730E80140E06D818A819B810E944717DF9107
S1132740CF911F910F91FF90EF900895EF92FF9218
S11327500F931F93CF93DF93C82FD0E07E01EE0C2D
S1132760FF1C87010C0F1D1F000F111F04561E4F65
S113277040E0F8016481808191810E944717E8015B
S113278041E06D818A819B810E944717DF91CF913F
S11327901F910F91FF90EF9008950F931F93CF9384
S11327A0DF9300D01F92CDB7DEB719821A821B8245
S11327B081E08A8342EF50E060E880E390E00E9489
S11327C0231C81111EC082EF90E00E94931C811192
S11327D01AC010E012C004E00983BE016F5F7F4F8E
S11327E086E390E00E942C170983BE016F5F7F4F40
S11327F086E390E00E942C171F5F123060F380E0A4
S113280003C083E001C083E00F900F900F90DF912D
S1132810CF911F910F910895CF939091F101961349
S113282005C09091F100981709F462C0C62F823058
S113283071F130F48823E1F1813009F449C058C0C2
S11328408330A1F0843009F053C080E00E94581313
S113285081E00E94581384E08093F1001092F1010A
S113286062EF70E080E00E949B1C42C080E00E9406
S11328707F1381E00E947F1383E08093F100C09373
S1132880F10162EF70E08C2F0E949B1C31C080E04C
S11328900E94A61381E00E94A61382E08093F100B7
S11328A0C093F10162EF70E08C2F0E949B1C20C04A
S11328B080E00E94A61381E00E947F131092F10031
S11328C0C093F10162EF70E08C2F0E949B1C10C03A
S11328D080E00E947F1381E00E94A61381E0809330
S11328E0F100C093F10162EF70E08C2F0E949B1CF9
S11328F080E0CF91089586E990E00E94541780E02B
S113290008958F929F92AF92BF92CF92DF92EF92EF
S11329100F931F93CF936115710509F446C04423A7
S113292009F445C0C42F6B01AC015C01AA0CAB2CAB
S1132930AA1CBB08B1944C01E89487F89924C401FB
S11329408C0F911D8138910530F180E8E82EE8184C
S11329508B0122E060EA86E990E00E94D81700E843
S113296010E0081919098C2F880D6894EE24E7F8F3
S1132970E80E0C0D1D1DA5014F5F5F4F5695542F9A
S113298044275795479522E060EA86E990E00E9443
S1132990D81780E00DC0EC2E8B0122E060EA86E9B6
S11329A090E00E94D81780E003C081E001C081E07C
S11329B0CF911F910F91EF90DF90CF90BF90AF9088
S11329C09F908F9008958F929F92AF92BF92CF92D3
S11329D0DF92EF920F931F93CF936115710509F462
S11329E046C0442309F445C0C42F6B01AC015C010B
S11329F0AA0CAB2CAA1CBB08B1944C01E89487F830
S1132A009924C4018C0F911D8138910530F180E81F
S1132A10E82EE8188B0122E060EA86E990E00E9443
S1132A20951700E810E0081919098C2F880D68948F
S1132A30EE24E7F8E80E0C0D1D1DA5014F5F5F4F56
S1132A405695542F44275795479522E060EA86E926
S1132A5090E00E94951780E00DC0EC2E8B0122E0DF
S1132A6060EA86E990E00E94951780E003C081E067
S1132A7001C081E0CF911F910F91EF90DF90CF9033
S1132A80BF90AF909F908F900895EF92FF921F9305
S1132A90CF93DF9300D01F92CDB7DEB70097D9F064
S1132AA07C011A8210E013C0E12FF0E0CF01880FFF
S1132AB0991FE80FF91FEE0DFF1D82818983BE0166
S1132AC06F5F7F4F808191810E942C171F5F1230AE
S1132AD058F380E001C081E00F900F900F90DF91D8
S1132AE0CF911F91FF90EF900895009789F0633084
S1132AF088F470E0FB01EE0FFF1F6E0F7F1FFC01D7
S1132B00E60FF71F6281808191810E943F1708952B
S1132B108FEF08958FEF0895CF93DF93009769F1B6
S1132B20EC0183E99EE09F938F930E94D81F84E475
S1132B309EE09F938F930E94D81FDF93CF930E94B0
S1132B40D81F82E39EE09F938F930E94D81F82EF49
S1132B509DE09F938F930E94D81F80EF9DE09F93E9
S1132B608F930E94D81F8DB79EB70C960FB6F8941A
S1132B709EBF0FBE8DBF80E001C081E0DF91CF9189
S1132B8008950F931F93CF93DF93009779F1611505
S1132B90710571F18B01EC0180EA9DE09F938F93A5
S1132BA00E94D81FDF93CF930E94D81F8EE89DE028
S1132BB09F938F930E94D81F1F930F930E94D81F37
S1132BC08CE89DE09F938F930E94D81F8CE49DE036
S1132BD09F938F930E94D81F8DB79EB70C960FB604
S1132BE0F8949EBF0FBE8DBF80E003C081E001C09A
S1132BF081E0DF91CF911F910F9108950E948D087C
S1132C0078940E941908FDCF1F920F920FB60F926D
S1132C1011242F933F934F935F936F937F938F93DD
S1132C209F93AF93BF93EF93FF93E0913402F0919E
S1132C3035020995FF91EF91BF91AF919F918F91CB
S1132C407F916F915F914F913F912F910F900FBEA4
S1132C500F901F9018951F920F920FB60F92112488
S1132C602F933F934F935F936F937F938F939F9390
S1132C70AF93BF93EF93FF93E0913802F091390241
S1132C800995FF91EF91BF91AF919F918F917F91A2
S1132C906F915F914F913F912F910F900FBE0F90C5
S1132CA01F9018951F920F920FB60F9211242F9315
S1132CB03F934F935F936F937F938F939F93AF93C0
S1132CC0BF93EF93FF93E0913602F0913702099599
S1132CD0FF91EF91BF91AF919F918F917F916F91F0
S1132CE05F914F913F912F910F900FBE0F901F90C6
S1132CF0189586B1806486B90895FC0180B78F71F8
S1132D0080BF20B7908130E2939FC0011124822BB1
S1132D1080BF16B893818181892B806A86B917B8E0
S1132D2094818281892B87B98381882309F07894DF
S1132D300895CF93C82FE2EFF1E0118281E00C2EC9
S1132D4001C0880F0A94EAF780831282BF0189E3E5
S1132D5090E00E942C1787B1807E87B987B18C2BB5
S1132D6087B90E947916CF9108951F920F920FB6DA
S1132D700F9211242F933F934F935F936F937F93FD
S1132D808F939F93AF93BF93EF93FF933D9B15C096
S1132D9064B185B16295669566956370682B70E041
S1132DA080E090E00E94D31D6093F5017093F601DA
S1132DB08093F7019093F80114C084B165B170E079
S1132DC0762F6627682B072E000C880B990B0E9420
S1132DD0D31D6093F5017093F6018093F7019093EE
S1132DE0F80125EE3FEF4FE95BE36091F501709147
S1132DF0F6018091F7019091F8010E945F1E2AE08C
S1132E0037ED43E25CE30E94301D6093F50170935B
S1132E10F6018093F7019093F8010E94A21D20917E
S1132E20A8013091A9012617370728F480E00E94F1
S1132E30C3100E94FB0EFF91EF91BF91AF919F9140
S1132E408F917F916F915F914F913F912F910F904F
S1132E500FBE0F901F901895FC01DB0111968C9109
S1132E601197813029F48C919181892B8183089564
S1132E70DB019C9190958181982391830895FC01B5
S1132E808081682311F081E0089580E0089544234F
S1132E9029F0FC012281622B628308956095FC0174
S1132EA022816223628308958F929F92AF92BF9290
S1132EB0CF92DF92EF92FF920F93CF93DF93EC01C7
S1132EC0288139814A815B8160E074E284EF90E07B
S1132ED00E94E01E49015A01392D4A2D5B2D60E004
S1132EE070E080E090E0A0EF0E94311F01E00E94BA
S1132EF0151F20B98C8182B916BE11B88D8181301D
S1132F0029F4789486B7816086BF03C086B78E7F24
S1132F1086BFDF91CF910F91FF90EF90DF90CF901C
S1132F20BF90AF909F908F900895EF920F931F934F
S1132F30DC0117961C930E9316971896EC9218972B
S1132F4084EA86BF06B607FEFDCF63B984E886BF70
S1132F5006B607FEFDCF223031F453B984E886BFAC
S1132F6006B607FEFDCF43B984E886BF06B607FE62
S1132F70FDCF13C01696ED91FC9117979F012F5F1B
S1132F803F4F17963C932E931697908193B994E8EC
S1132F9096BF06B607FEFDCFE82E8FEF8E0DE1102B
S1132FA0E9CF84E986BF80E01F910F91EF900895E7
S1132FB0EF920F931F93DC019E2D17961C930E9393
S1132FC016971896EC92189784EA86BF06B607FE01
S1132FD0FDCF63B984E886BF06B607FEFDCF223075
S1132FE031F453B984E886BF06B607FEFDCF43B972
S1132FF084E886BF06B607FEFDCF84EA86BF06B620
S113300007FEFDCF616063B984E886BF06B607FE9C
S1133010FDCF13C094EC96BF06B607FEFDCF1696FF
S1133020ED91FC9117979F012F5F3F4F17963C93AB
S11330302E93169793B19083982F8FEF890F923028
S113304048F784E886BF06B607FEFDCF1696ED91D5
S1133050FC911797CF01019617969C938E93169720
S113306083B1808384E986BF80E01F910F91EF9044
S113307008950F931F93CF93DF9300D01F92CDB782
S1133080DEB78C01FC018381882344F49DB18370F5
S1133090892B8DB98EB181608EB904C09DB18370C6
S11330A0892B8DB9F801808184FF16C081E08A8361
S11330B080EB8983BE016F5F7F4F86E390E00E94BF
S11330C02C171A8280E48983BE016F5F7F4F86E3E9
S11330D090E00E942C1715C01A8280EB8983BE01F0
S11330E06F5F7F4F86E390E00E942C1781E08A8314
S11330F080E48983BE016F5F7F4F86E390E00E9486
S11331002C17F80142818181348125819081842B9F
S1133110832B822B892B8DB98DB180648DB98581E8
S1133120803809F478940F900F900F90DF91CF912D
S11331301F910F910895FC01718760871782168291
S1133140558744871386128610C0779BFECFA085CF
S1133150B1858FB18C938085918501969187808705
S11331608485958501979587848784859585892BA2
S113317061F70895009789F0FC018085811102C0F0
S113318013BE0895823019F415BC80E0089581308F
S113319031F41FBC1EBC80E0089581E0089582E0F4
S11331A00895CF92DF92EF92FF920F931F93CF93E4
S11331B0DF938C01C62F009709F48BC0FC01808536
S11331C0811108C0962F64E670E00E94CC1E6CBF8B
S11331D080E082C0823049F4962F80E064E670E09B
S11331E00E94CC1E63BD80E077C0813009F073C0BB
S11331F08FEF9FE097BD86BDF80186818F3FB9F5BB
S113320080819181A281B381BC01CD017F70882727
S113321099270F2EF4E6CF2ED12CE12CF12CF02D92
S1133220A70196010E94E01ED0E0C29FC001C39F87
S1133230900DD29F900D11249BBD8ABDF801808111
S11332409181A281B381BC01CD017F708827992728
S1133250A70196010E94E01EC29FC001C39F900D6A
S1133260D29F900D112499BD88BD80E035C0843073
S1133270C1F4F80180819181A281B3819C01AD01E7
S11332803F7044275527A62FB0E00E94081F24E66C
S113329030E040E050E00E94E01E39BD28BD80E0EF
S11332A01BC0F80180819181A281B3819C01AD0191
S11332B03F7044275527A62FB0E00E94081F24E63C
S11332C030E040E050E00E94E01E3BBD2ABD80E0BB
S11332D003C081E001C080E0DF91CF911F910F9185
S11332E0FF90EF90DF90CF900895009729F1FC01B3
S11332F02085211109C023B7287F23BF23B78781E5
S1133300822B83BF80E00895223051F425B5287FB5
S113331025BD25B5FC018781822B85BD80E00895FC
S1133320213061F42EB5287F2EBD2EB5FC01878196
S1133330822B8EBD80E0089581E0089582E0089597
S1133340811107C083B7887F83BF83B783BF80E0C1
S11333500895823039F485B5887F85BD85B585BDEE
S113336080E00895813039F48EB5887F8EBD8EB5A6
S11333708EBD80E0089582E00895FC01892B09F454
S113338098C08085813009F06DC080819181A281CF
S1133390B38194FF33C0AA27BB278F3F20E1920754
S11333A0A105B10529F481E08FBD88E08EBD1FC061
S11333B08F3F21E19207A105B10529F482E08FBD79
S11333C088E08EBD14C08F3F23E19207A105B105AB
S11333D029F483E08FBD88E08EBD09C08F3F9F41F3
S11333E0A105B10521F482E08FBD88E18EBD818500
S11333F0882389F099B7892B89BF0DC095FF05C033
S113340082E08FBD80E18EBD06C096FF04C081E0DE
S11334108FBD80E18EBD26812F3FC1F42FB59481ED
S1133420892F90E0AC010024569547950794569552
S113343047950794542F402D82959295907F982715
S1133440807F9827842B822B8FBD2BC03FB594811E
S1133450892F90E002C0880F991F2A95E2F7832BE9
S11334608FBD1FC0882311F0823029F581110CC053
S113347083B7877883BF93B724818281822B892B7A
S113348083BF85818CBF0DC0823059F485B58778A0
S113349085BD95B524818281822B892B85BD85814B
S11334A083BD8185882349F099B7892B89BF80E042
S11334B0089581E0089582E0089580E008956115FB
S11334C07105E1F08830E1F038F4823089F084301D
S11334D0B9F0813059F414C0803291F018F480317D
S11334E079F004C0803461F0803851F082E00895AE
S11334F07093FA016093F90180E0089581E00895E2
S113350080E008951F920F920FB60F9211242F930B
S11335103F934F935F936F937F938F939F93AF9357
S1133520BF93EF93FF93E091F901F091FA010995AC
S1133530FF91EF91BF91AF919F918F917F916F9187
S11335405F914F913F912F910F900FBE0F901F905D
S11335501895FC011AB880E880BD9AB18781892B3F
S11335608AB920B5948185819670982B922B9068A6
S113357090BD80819181A281B381880F991FAA1F78
S1133580BB1F880F991FAA1FBB1F9C01AD01220FEF
S1133590331F441F551F220F331F441F551F60E064
S11335A074E284EF90E00E94E01E2150310929B9B1
S11335B0832F8F7080BD81B3826081BB81B38E7F86
S11335C081BB0895FC01718760875587448720E09B
S11335D030E00FC05D9BFECF8481863119F48AB13F
S11335E081608AB9DB01A20FB31F8C918CB92F5F64
S11335F03F4F848595852817390760F30895CF9345
S1133600DF93FC0111861086158614867387628702
S11336105787468720E030E05F9BFECF9CB16685EC
S113362077856217730708F45CC084818631D1F50D
S1133630A285B385E901CC0FDD1FAC0FBD1F6AB1B4
S1133640627070E07695762F6627779567956D930F
S11336507C93A285B385AC0FBD1F6D917C911197AE
S1133660692B6D937C939D3019F09A3009F04EC00C
S1133670868597852817390738F482859385C80F7E
S1133680D91F1982188245C04130510509F441C03F
S11336900284F385E02D440F551FE40FF51F1182BA
S11336A0108237C0A285B385A20FB31F9C939D30AF
S11336B011F09A3059F5868597852817390738F41B
S11336C082859385FC01E20FF31F108222C04130F2
S11336D05105F9F082859385FC01E40FF51F1082F2
S11336E018C09D3011F09A3089F42617370738F442
S11336F082859385FC01E20FF31F10820AC0828544
S11337009385FC01E40FF51F108203C02F5F3F4F28
S113371083CFDF91CF9108958091000281110AC077
S113372040E06091080280910202909103020E949D
S1133730471708958091FD01811110C040E0609108
S1133740080280910202909103020E94471780911F
S1133750000283BD81E08093FD01089541E0609102
S1133760080280910202909103020E9447178091FF
S11337700002819583BD1092FD0108958091FE01A0
S11337809091FF01892B61F18091FC01811113C09B
S113379040E060910B0280910402909105020E9426
S11337A047178091FE019091FF019BBD8ABD81E086
S11337B08093FC01089541E060910B028091040222
S11337C0909105020E9447172091FE013091FF015C
S11337D08FEF9FE0821B930B9BBD8ABD1092FC016F
S11337E008958091010281110AC040E060910E02A7
S11337F080910602909107020E94471708958091D4
S1133800FB01811110C040E060910E02809106021C
S1133810909107020E944717809101028CBF81E0BA
S11338208093FB01089541E060910E0280910602AD
S1133830909107020E9447178091010281958CBFE5
S11338401092FB010895FF920F931F93CF93DF9380
S11338504115510509F45EC0EA01F62E8C018FEF83
S11338609FE0A8E0B0E088839983AA83BB83CA0160
S11338700E94BD19988591111AC0EEE0F2E081E032
S11338808183F0821282BF01C8010E942C17109319
S113389007020093060261EF7BE181E00E945F1A58
S11338A061EF7BE189850E945F1A80E036C0913028
S11338B0A9F4EBE0F2E081E08183F0821282BF019F
S11338C0C8010E942C1710930502009304026EEBAA
S11338D07BE189850E945F1A80E01FC09230E1F489
S11338E0E8E0F2E081E08183F0821282BF01C80146
S11338F00E942C1710930302009302026CE87BE1F0
S113390080E40E945F1A6CE87BE189850E945F1A5B
S113391080E003C081E001C082E0DF91CF911F917C
S11339200F91FF900895009721F00E94751980E08F
S1133930089581E008958F929F92AF92BF92CF92A3
S1133940DF92EF92FF921F93CF93DF93611571057E
S113395009F471C0EB01182F88850E94A019811108
S11339606CC0612FCE010E94D118811168C0CE01B4
S11339700E947519811165C08885813041F588815F
S11339809981AA81BB814C015D012FE09222AA2476
S1133990BB24612F70E080E090E00E94D31D20E002
S11339A030E048EC52E40E945F1E6B017C01C501CB
S11339B0B4010E94D11DA70196010E94301D0E94EE
S11339C0A21D7093FF016093FE0180E03DC0811150
S11339D018C0612F70E080E090E00E94D31D20E0C9
S11339E030E048EC52E40E94301D20E030E040E832
S11339F053E40E945F1E0E94A21D6093010280E0B6
S1133A0023C0823001F5612F70E080E090E00E94D5
S1133A10D31D20E030E048EC52E40E94301D20E049
S1133A2030E040E853E40E945F1E0E94A21D6093B0
S1133A30000280E009C081E007C082E005C082E0A6
S1133A4003C082E001C082E0DF91CF911F91FF901B
S1133A50EF90DF90CF90BF90AF909F908F9008959C
S1133A600E94441D0C94251E0E941E1E58F00E94A4
S1133A70171E40F029F45F3F29F00C940E1E5111DB
S1133A800C94591E0C94141E0E94361E68F399233C
S1133A90B1F3552391F3951B550BBB27AA27621746
S1133AA07307840738F09F5F5F4F220F331F441F53
S1133AB0AA1FA9F335D00E2E3AF0E0E832D0915087
S1133AC05040E695001CCAF72BD0FE2F29D0660F74
S1133AD0771F881FBB1F261737074807AB07B0E8B7
S1133AE009F0BB0B802DBF01FF2793585F4F3AF0BD
S1133AF09E3F510578F00C940E1E0C94591E5F3FA6
S1133B00E4F3983ED4F3869577956795B795F79542
S1133B109F5FC9F7880F911D9695879597F908952A
S1133B20E1E0660F771F881FBB1F621773078407C6
S1133B30BA0720F0621B730B840BBA0BEE1F88F7D5
S1133B40E09508950E943E1E88F09F5798F0B92F83
S1133B509927B751B0F0E1F0660F771F881F991FBE
S1133B601AF0BA95C9F714C0B13091F00E94581EEA
S1133B70B1E008950C94581E672F782F8827B85FFA
S1133B8039F0B93FCCF3869577956795B395D9F716
S1133B903EF490958095709561957F4F8F4F9F4F20
S1133BA00895E89409C097FB3EF49095809570952C
S1133BB061957F4F8F4F9F4F9923A9F0F92F96E975
S1133BC0BB279395F695879577956795B795F111EA
S1133BD0F8CFFAF4BB0F11F460FF1BC06F5F7F4F87
S1133BE08F4F9F4F16C0882311F096E911C0772399
S1133BF021F09EE8872F762F05C0662371F096E8A2
S1133C00862F70E060E02AF09A95660F771F881F70
S1133C10DAF7880F9695879597F9089597F99F672E
S1133C2080E870E060E008959FEF80EC0895002440
S1133C300A941616170618060906089500240A940D
S1133C4012161306140605060895092E0394000C93
S1133C5011F4882352F0BB0F40F4BF2B11F460FF22
S1133C6004C06F5F7F4F8F4F9F4F089557FD90584B
S1133C70440F551F59F05F3F71F04795880F97FB2C
S1133C80991F61F09F3F79F08795089512161306E6
S1133C901406551FF2CF4695F1DF08C01616170615
S1133CA01806991FF1CF869571056105089408954A
S1133CB0E894BB2766277727CB0197F908950E94DC
S1133CC0721E0C94251E0E94171E38F00E941E1EA0
S1133CD020F0952311F00C940E1E0C94141E112444
S1133CE00C94591E0E94361E70F3959FC1F3950FD4
S1133CF050E0551F629FF001729FBB27F00DB11D6C
S1133D00639FAA27F00DB11DAA1F649F6627B00DFB
S1133D10A11D661F829F2227B00DA11D621F739FE4
S1133D20B00DA11D621F839FA00D611D221F749FF2
S1133D303327A00D611D231F849F600D211D822F39
S1133D40762F6A2F11249F5750409AF0F1F0882360
S1133D504AF0EE0FFF1FBB1F661F771F881F91508D
S1133D605040A9F79E3F510580F00C940E1E0C9410
S1133D70591E5F3FE4F3983ED4F386957795679593
S1133D80B795F795E7959F5FC1F7FE2B880F911DB7
S1133D909695879597F9089597FB072E16F4009446
S1133DA007D077FD09D00E943D1F07FC05D03EF4E3
S1133DB0909581959F4F0895709561957F4F0895D3
S1133DC0A1E21A2EAA1BBB1BFD010DC0AA1FBB1F1B
S1133DD0EE1FFF1FA217B307E407F50720F0A21B8D
S1133DE0B30BE40BF50B661F771F881F991F1A94FA
S1133DF069F760957095809590959B01AC01BD0124
S1133E00CF010895EE0FFF1F0590F491E02D099462
S1133E100E94511FA59F900DB49F900DA49F800DEB
S1133E20911D1124089597FB10F8169400080F9320
S1133E30083098F00850232F342F452F562F672F22
S1133E40782F892F902DF4CF0594979587957795A2
S1133E50679557954795379527950A95AAF70F9132
S1133E6008950024A7FD00942A0F301D401D501D05
S1133E70601D701D801D901D0895AA1BBB1B51E180
S1133E8007C0AA1FBB1FA617B70710F0A61BB70BC6
S1133E90881F991F5A95A9F780959095BC01CD016B
S1133EA00895A29FB001B39FC001A39F700D811D0F
S1133EB01124911DB29F700D811D1124911D08952F
S1133EC0FC0188279927E89421912032E9F32930CD
S1133ED010F02E30C8F32B3241F02D3239F46894AF
S1133EE004C00E94A01F820F911D219120532A30EB
S1133EF0C0F31EF4909581959F4F0895FB01DC015A
S1133F0005900D920020E1F70895DC0101C06D9346
S1133F1041505040E0F70895FB01DC018D91019080
S1133F2080190110D9F3990B0895BB274A3031F455
S1133F30992322F4BDE2909581959F4F0C94A91F7B
S1133F407AE0979F902D879F802D910D11240895DD
S1133F50BB27FB015527AA27880F991FAA1FA4175F
S1133F6010F0A41B83955051B9F7A05DAA3308F053
S1133F70A95DA193009779F7B111B1931192CB0187
S1133F800C94F521A0E0B0E0E8ECFFE10C94AF2242
S1133F90AE014B5F5F4FFA0161917191AF01809166
S1133FA03C0290913D020E94FE1FE2E00C94CB2261
S1133FB0A0E0B0E0EEEDFFE10C94AD22AE01495F6C
S1133FC05F4FDA016D917D91AD010AE312E0F801D2
S1133FD082819381DC0113962C91139728601396A8
S1133FE02C930E94FE1FD8011296ED91FC91139719
S1133FF02381277F2383E4E00C94C922ABE0B0E063
S1134000E4E0F0E20C949F226C017B018A01FC0144
S113401017821682838181FFCCC1CE0101963C01B7
S1134020F6019381F70193FD859193FF81917F01BF
S1134030882309F4BAC1853239F493FD859193FF3D
S113404081917F01853229F4B60190E00E94052216
S1134050E7CF912C212C312CFFE1F315D8F08B32D2
S113406079F038F4803279F08332A1F4232D206181
S11340701DC08D3261F0803369F4232D216016C098
S1134080832D8260382EE32DE4603E2E2AC0F32D6A
S1134090F8601DC037FC2DC020ED280F2A3040F0F9
S11340A08E32B9F436FC81C1232D2064322E19C01E
S11340B036FE06C08AE0989E200D1124922E11C06F
S11340C0EAE02E9E200D1124222EF32DF0623F2EC5
S11340D008C08C3621F4832D8068382E02C08836BF
S11340E041F4F70193FD859193FF81917F01811143
S11340F0B3CF982F9F7D9554933028F40C5F1F4FB6
S11341009FE399830DC0833631F0833771F0833593
S113411009F059C021C0F801808189830E5F1F4FC7
S113412088248394912C530113C02801F2E04F0E8C
S1134130511CF801A080B18036FE03C0692D70E0E7
S113414002C06FEF7FEFC5010E94EA214C0182019A
S1134150F32DFF773F2E16C0280122E0420E511C9A
S1134160F801A080B18036FE03C0692D70E002C062
S11341706FEF7FEFC5010E94DF214C01F32DF06842
S11341803F2E820133FC1BC0822D90E088169906D5
S1134190B0F4B60180E290E00E9405222A94F4CFA4
S11341A0F50137FC859137FE81915F01B60190E0FE
S11341B00E94052221102A9421E0821A9108811478
S11341C0910471F7E8C0843611F0893641F5F8019D
S11341D037FE07C060817181828193810C5F1F4F1C
S11341E008C060817181072E000C880B990B0E5F4B
S11341F01F4FF32DFF763F2E97FF09C090958095B2
S1134200709561957F4F8F4F9F4FF0683F2E2AE046
S113421030E0A3010E944122882E861845C08537CC
S113422031F4232D2F7EB22E2AE030E025C0932DC9
S1134230997FB92E8F36C1F018F4883579F0B5C05E
S1134240803719F0883721F0B0C0E92FE061BE2E25
S1134250B4FE0DC0FB2DF460BF2E09C034FE0AC0AD
S1134260292F2660B22E06C028E030E005C020E1E8
S113427030E002C020E132E0F801B7FE07C06081FF
S11342807181828193810C5F1F4F06C060817181AF
S113429080E090E00E5F1F4FA3010E944122882E10
S11342A08618FB2DFF773F2E36FE0DC0232D2E7F63
S11342B0A22E891458F434FE0BC032FC09C0832D9D
S11342C08E7EA82E05C0B82CA32C03C0B82C01C028
S11342D0B92CA4FE0FC0FE01E80DF11D80818033CE
S11342E021F49A2D997EA92E09C0A2FE06C0B3948A
S11342F0B39404C08A2D867809F0B394A3FC11C04A
S1134300A0FE06C0B21488F4280C922C9B180EC090
S1134310B21460F4B60180E290E00E940522B394E6
S1134320F7CFB21418F42B1802C0982C212CA4FE39
S113433010C0B60180E390E00E940522A2FE17C0DF
S1134340A1FC03C088E790E002C088E590E0B601D4
S11343500CC08A2D867859F0A1FE02C08BE201C000
S113436080E2A7FC8DE2B60190E00E940522891448
S113437038F4B60180E390E00E9405229A94F7CFC6
S11343808A94F301E80DF11D8081B60190E00E944A
S113439005228110F5CF222009F442CEB60180E235
S11343A090E00E9405222A94F6CFF6018681978137
S11343B002C08FEF9FEF2B96E2E10C94BB22FC012D
S11343C00590615070400110D8F7809590958E0F3C
S11343D09F1F0895FC016150704001900110D8F7AF
S11343E0809590958E0F9F1F0895DC01FC01672F27
S11343F071917723E1F7329704C07C916D937083B8
S11344006291AE17BF07C8F308950F931F93CF931C
S1134410DF93FB01238121FD03C08FEF9FEF2CC0AD
S113442022FF16C0468157812481358142175307E4
S113443044F4A081B1819D012F5F3F4F31832083DC
S11344408C93268137812F5F3F4F3783268314C097
S11344508B01EC01FB010084F185E02D0995892B8A
S1134460E1F6D80116968D919C91179701961796AF
S11344709C938E931697CE01DF91CF911F910F914C
S11344800895FA01AA27283051F1203181F1E894E6
S11344906F936E7F6E5F7F4F8F4F9F4FAF4FB1E033
S11344A03ED0B4E03CD0670F781F891F9A1FA11D2E
S11344B0680F791F8A1F911DA11D6A0F711D811D2F
S11344C0911DA11D20D009F468943F912AE0269FF4
S11344D011243019305D3193DEF6CF010895462F53
S11344E04770405D4193B3E00FD0C9F7F6CF462F34
S11344F04F70405D4A3318F0495D31FD405241939D
S113450002D0A9F7EACFB4E0A69597958795779559
S11345106795BA95C9F700976105710508959B01E0
S1134520AC010A2E06945795479537952795BA9569
S1134530C9F7620F731F841F951FA01D08952F9242
S11345403F924F925F926F927F928F929F92AF921F
S1134550BF92CF92DF92EF92FF920F931F93CF936C
S1134560DF93CDB7DEB7CA1BDB0B0FB6F894DEBF03
S11345700FBECDBF09942A88398848885F846E8429
S11345807D848C849B84AA84B984C884DF80EE8073
S1134590FD800C811B81AA81B981CE0FD11D0FB67C
S11345A0F894DEBF0FBECDBFED010895F894FFCFA0
S11345B006000008400000000000000000000401A4
S11345C00430002030004000E10000060000180024
S11345D00000000F000F00000000000300000000B6
S11345E000000F000F00A0860100AA0200000F00C7
S11345F0000002000000006A0700000000D007006D
S113460000D00700003130303000003300043300A4
S11346100833001030001033002033004033008092
S11346203132333435363738392A302339000239B8
S113463000043900083900103900203900403900DD
S11346408004000000000000000400024552524FA4
S113465052000000000041444D494E004F50455265
S11346604154450057656C636F6D652041444D4965
S11346704E203A2C2573200A0A0077656C636F6D0F
S113468065004E4F5420524541445900256900436A
S1134690757272656E74202062616C616E63652050
S11346A06973203A20256C75200A0043757272657F
S11346B06E740042616C616E6365206973200053FF
S11346C0656C65637420436F6D6D616E6400312E9B
S11346D0547279202020322E4578697400596F7500
S11346E020456E7465726564203D200036003600F6
S10B46F0040836003600010243
S9030000FC
