S01500005061796D656E7453797374656D2E73726563AC
S11300000C94A3080C9413170C943A170C946117CE
S11300100C94C0080C94C0080C94C0080C94C0083C
S11300200C94C0080C94170A0C94901B0C94C008F0
S11300300C94C0080C94C0080C94C0080C94C0081C
S11300400C94C3170C94C0080C94C0080C94C008FA
S11300500C94C0084B0D4E0D510D540D570D880DC9
S1130060960D990D77656C636F6D650053776974B0
S11300706368696E6720746F204F5045524154493C
S11300804F4E206D6F646500537769746368696EC1
S11300906720746F2070726F6772616D6D696E672F
S11300A0206D6F64650057726F6E672050617373C3
S11300B0776F72642021212100456E746572205986
S11300C06F75722050617373776F7264203A004CBD
S11300D04F434B454400506C656173652043616C2C
S11300E06C20585858580043415244004E4F5420F5
S11300F05245414459005468616E6B20596F752014
S113010020200057726F6E6720436F6D6D616E64BF
S1130110212121000A00454E44204F462053454CDE
S1130120454354494F4E20212121002A2A2A2A2AB4
S11301302A2A2A2A2A2A2A2A2A2A2A2A2A2A2A2A1B
S11301402A2A2A20322D2045786974202A2A2A2A2C
S11301502A2A2A2A2A2A2A2A2A2A2A2A2A2A2A2AFB
S11301602A2A2A2A2A2A2A2A2A2A2A2A2A2A2A2AEB
S11301702A2A2A2A2A2A2A2A2A2A2A2A2A2A2A2ADB
S11301802A2A2A2A2A2A0A002A2A2A2A2A2A2A2A15
S11301902A2A2A2A2A2A2A2A2A2A2A2A2A2A2A2ABB
S11301A020312D2054727920616E6F74686572203D
S11301B05472616E73616374696F6E20202A2A2AF7
S11301C02A2A2A2A2A2A2A2A2A2A2A2A2A2A2A2A8B
S11301D02A2A2A2A2A2A2A2A2A2A2A2A2A2A2A2A7B
S11301E02A2A2A0A00506C656173652043686F6F80
S11301F07365206F6E65206F662074686520666F76
S11302006C6C6F77696E6720436F6D6D616E64739C
S113021020004E6F742065786973742043617264A2
S113022020446174610054686973206361726420BE
S11302304973204578697374004E6F74206578693A
S1130240737420436172642044617461005468696A
S11302507320636172642049732045786973740064
S1130260506C6561736520656E74657220436172BC
S1130270642050414E004E6F742065786973742079
S1130280436172642044617461203A005761697467
S113029020556E74696C2072656D6F766520746884
S11302A0697320436172642044617461203A005090
S11302B06C6561736520656E746572204361726458
S11302C02050414E203A007468697320636172645F
S11302D020616C726561647920657869737420218A
S11302E02121005468657265206973206E6F206552
S11302F06E6F75676820737061636520212121002A
S113030047726561742061206E6577204361726471
S113031020616464656420737563636573736675D3
S11303206C6C7900506C6561736520656E746572E0
S1130330204361726420546F74616C2042616C616B
S11303406E63652000506C6561736520656E74652D
S11303507220436172642050494E203A202000509C
S11303606C6561736520656E7465722043617264A7
S11303702050414E20203A202000506C6561736566
S113038020656E746572204361726420486F6C64EA
S11303906572204E616D652020000A00200A002A43
S11303A02A2A2A2A2A2A2A2A2A2A2A2A2A2A2A2AA9
S11303B02A2A2A2A2A2A2A2A2A2A2A2A2A2A2A2A99
S11303C02A2A2A2A2A2A2A2A2A2A2A2A2A2A2A2A89
S11303D02A2A2A2A2A2A2A2A2A2A2A2A2A2A2A2A79
S11303E02A2A2A2A2A2A2A2A2A2A2A2A2A2A2A2A69
S11303F02A2A2A2A2A2A2A2A2A2A0A002A2A2A2AA3
S11304002A2A2A2A2A2A2A2A2A2A2A2A2A2A2A2A48
S11304102A2A2A2A2A2A2A2A2A2A2A2A2A2A2A2A38
S11304202A2A20454E44204F462053454C454354E8
S1130430494F4E202121212A2A2A2A2A2A2A2A2AD5
S11304402A2A2A2A2A2A2A2A2A2A2A2A2A2A2A2A08
S11304502A2A2A2A2A2A2A0A002A2A2A2A2A2A2A42
S11304602A2A2A2A2A2A2A2A2A2A2A2A2A2A2A2AE8
S11304702A2A2A2A2A2A2A2A2A2A2A2A2A2A2A2AD8
S11304802A2A2A2A2A2A2A2A2A2A2A2A2A2A2A2AC8
S11304902A2A2A2A2A2A2A2A2A2A2A2A2A2A2A2AB8
S11304A02A2A2A2A2A2A2A2A2A2A2A2A2A2A2A2AA8
S11304B02A2A2A2A0A002A2A2A2A2A2A2A2A2A2AE2
S11304C02A2A2A2A2A2A2A2A2A2A2A2A2A2A203884
S11304D02D20457869742050726F6772616D6D6963
S11304E06E67206D6F6465202A2A2A2A2A2A2A2AFE
S11304F02A2A2A2A2A2A2A2A2A2A2A2A2A2A2A2A58
S11305002A2A2A2A2A2A2A2A2A2A2A2A2A2A2A2A47
S11305102A0A002A2A2A2A2A2A2A2A2A2A2A2A2A81
S11305202A2A2A2A2A2A2A2A2A2A2A20372D204114
S1130530646D696E204D6F646966792044617461ED
S1130540202A2A2A2A2A2A2A2A2A2A2A2A2A2A2A11
S11305502A2A2A2A2A2A2A2A2A2A2A2A2A2A2A2AF7
S11305602A2A2A2A2A2A2A2A2A2A2A2A2A2A0A0031
S11305702A2A2A2A2A2A2A2A2A2A2A2A2A2A2A2AD7
S11305802A2A2A2A2A2A2A2A20362D2052657365E5
S11305907420446174612042617365202A2A2A2AE6
S11305A02A2A2A2A2A2A2A2A2A2A2A2A2A2A2A2AA7
S11305B02A2A2A2A2A2A2A2A2A2A2A2A2A2A2A2A97
S11305C02A2A2A2A2A2A2A2A2A2A2A0A002A2A2AD1
S11305D02A2A2A2A2A2A2A2A2A2A2A2A2A2A2A2A77
S11305E02A2A2A2A2A20352D20546F74616C204E21
S11305F0554D206F662043757272656E74204341B9
S1130600524473202A2A2A2A2A2A2A2A2A2A2A2AC5
S11306102A2A2A2A2A2A2A2A2A2A2A2A2A2A2A2A36
S11306202A2A2A2A2A2A2A2A0A002A2A2A2A2A2A70
S11306302A2A2A2A2A2A2A2A2A2A2A2A2A2A2A2A16
S11306402A2A20342D205365617263682057697407
S113065068204361726420486F6C646572204E6147
S11306606D65202A2A2A2A2A2A2A2A2A2A2A2A2A72
S11306702A2A2A2A2A2A2A2A2A2A2A2A2A2A2A2AD6
S11306802A2A2A2A2A0A002A2A2A2A2A2A2A2A2A10
S11306902A2A2A2A2A2A2A2A2A2A2A2A2A2A2A20C0
S11306A0332D2053656172636820466F7220436165
S11306B0726420576974682050414E202A2A2A2ADD
S11306C02A2A2A2A2A2A2A2A2A2A2A2A2A2A2A2A86
S11306D02A2A2A2A2A2A2A2A2A2A2A2A2A2A2A2A76
S11306E02A2A0A002A2A2A2A2A2A2A2A2A2A2A2AB0
S11306F02A2A2A2A2A2A2A2A2A2A2A2A20322D205F
S113070052656D6F766520436172642020202A2A29
S11307102A2A2A2A2A2A2A2A2A2A2A2A2A2A2A2A35
S11307202A2A2A2A2A2A2A2A2A2A2A2A2A2A2A2A25
S11307302A2A2A2A2A2A2A2A2A2A2A2A2A2A2A0A35
S1130740002A2A2A2A2A2A2A2A2A2A2A2A2A2A2A2F
S11307502A2A2A2A2A2A2A2A2A20312D2041646474
S1130760204361726409202A2A2A2A2A2A2A2A2A48
S11307702A2A2A2A2A2A2A2A2A2A2A2A2A2A2A2AD5
S11307802A2A2A2A2A2A2A2A2A2A2A2A2A2A2A2AC5
S11307902A2A2A2A2A2A2A2A2A2A2A2A0A002A2AFF
S11307A02A2A2A2A2A2A2A2A2A2A2A2A2A2A2A2AA5
S11307B02A2A2A2A2A2A2A2A2A2A2A2A2A2A2A2A95
S11307C02A2A2A2A2A2A2A2A2A2A2A2A2A2A2A2A85
S11307D02A2A2A2A2A2A2A2A2A2A2A2A2A2A2A2A75
S11307E02A2A2A2A2A2A2A2A2A2A2A2A2A2A2A2A65
S11307F02A2A2A2A2A2A2A2A2A0A002A2A2A2A2A9F
S11308002A2A2A2A2A2A2A2A2A2A2A2A2A2A2A2A44
S11308102A2A20506C656173652043686F6F736585
S1130820206F6E65206F662074686520666F6C6C3F
S11308306F77696E6720436F6D6D616E6473202AF4
S11308402A2A2A2A2A2A2A2A2A2A2A2A2A2A2A2A04
S11308502A2A2A2A2A2A0A002A2A2A2A2A2A2A2A3E
S11308602A2A2A2A2A2A2A2A2A2A2A2A2A2A2A2AE4
S11308702A2A2A2A2A2A2A2A2A2A2A2A2A2A2A2AD4
S11308802A2A2A2A2A2A2A2A2A2A2A2A2A2A2A2AC4
S11308902A2A2A2A2A2A2A2A2A2A2A2A2A2A2A2AB4
S11308A02A2A2A2A2A2A2A2A2A2A2A2A2A2A2A2AA4
S11308B02A2A2A0A0057726F6E672063686F73656D
S11308C020506C6561736520547279206167616999
S11308D06E0077616974202121210070726F626C4F
S11308E0656D2057697468204461746120426173A6
S11308F0652043616C6C205365727669636520538F
S11309007570706F72740044656C657465642073EF
S113091075636365737366756C6C7900200A002ACD
S11309202A2A2A2A2A2A2A2A2A2A2A2A2A2A2A2A23
S11309302A2A2A2A2A2A2A2A2A2A2A2A2A2A2A2A13
S11309402A2A2A2A2A2A2A2A2A2A2A2A2A2A2A2A03
S11309502A2A2A0A002A2A2A2A2A2A2A2A2A2A2A3D
S1130960200A002A2A2A2A2A20546865204E756DF6
S1130970626572206F6620496E7374616C6C656485
S1130980204361726473206973203A002A2A2A2A58
S11309902A2A2A2A2A2A2A2A2A2A2A2A2A2A2A2AB3
S11309A02A2A2A2A2A2A2A2A2A2A2A2A2A2A2A2AA3
S11309B02A2A2A2A2A2A2A2A2A2A2A2A2A2A2A2A93
S11309C00A00455849542041646D696E204D6F6496
S11309D0696679696E67206D6F64652073756363FA
S11309E065737366756C6C79004D6178696D756DAE
S11309F0204461696C7920416D6F756E7420446F79
S1130A006573204E6F74205365742053756363655A
S1130A10737366756C6C792021212121004D6178F6
S1130A20696D756D204461696C7920416D6F756ED7
S1130A3074205375636365737366756C6C790020F9
S1130A400A00506C6561736520456E74657220748C
S1130A506865204D4178204461696C7920416D6F4F
S1130A60756E74004572726F7220446F6573204E08
S1130A706F7420436C6561726564205375636365AC
S1130A80737366756C6C7920212121210045727283
S1130A906F7220436C65617265642053756363658E
S1130AA0737366756C6C7900506C65617365205462
S1130AB0727920416761696E0041646D696E2044FA
S1130AC06174612053746F72656420537563636548
S1130AD0737366756C6C79007761697420212121C8
S1130AE020200A00456E7465722061206E657720AF
S1130AF061646D696E204D41582054656D70207697
S1130B00616C75653A2000506C65617365205472A0
S1130B107920416761696E200041646D696E2044EB
S1130B206174612053746F726564205375636365E7
S1130B30737366756C6C7900776169742021212167
S1130B4020200A00506C6561736520656E746572BF
S1130B502061206E65772061646D696E2070617319
S1130B6073203A00506C6561736520656E7465721C
S1130B702061206E65772061646D696E206E616D01
S1130B8065203A00200A00454E44204F4620534534
S1130B904C454354494F4E20212121002A2A2A2A18
S1130BA02A2A2A2A2A2A2A2A2A2A2A2A2A2A2A2AA1
S1130BB02A2A2A2A20352D2045786974202A2A2AAF
S1130BC02A2A2A2A2A2A2A2A2A2A2A2A2A2A2A2A81
S1130BD02A2A2A2A2A2A2A2A2A2A2A2A2A2A2A2A71
S1130BE02A2A2A2A2A2A2A2A2A2A2A2A2A2A2A2A61
S1130BF02A2A2A2A2A2A2A0A002A2A2A2A2A2A2A9B
S1130C002A2A2A2A2A2A2A2A2A2A2A2A2A2A2A2A40
S1130C102A20342D20536574204D61782044616965
S1130C206C7920416D6F756E74202A2A2A2A2A2A2B
S1130C302A2A2A2A2A2A2A2A2A2A2A2A2A2A2A2A10
S1130C402A2A2A2A2A2A2A2A2A2A2A2A2A2A2A2A00
S1130C502A2A2A2A0A002A2A2A2A2A2A2A2A2A2A3A
S1130C602A2A2A2A2A2A2A2A2A2A2A2A2A2A2033E1
S1130C702D20436C656172204572726F7220466C40
S1130C806167202A2A2A2A2A2A2A2A2A2A2A2A2A56
S1130C902A2A2A2A2A2A2A2A2A2A2A2A2A2A2A2AB0
S1130CA02A2A2A2A2A2A2A2A2A2A2A2A2A2A2A2AA0
S1130CB02A0A002A2A2A2A2A2A2A2A2A2A2A2A2ADA
S1130CC02A2A2A2A2A2A2A2A2A2A2A20322D205360
S1130CD065742041646D696E204D6178696D756D30
S1130CE02054656D7065726174757265202A2A2AB4
S1130CF02A2A2A2A2A2A2A2A2A2A2A2A2A2A2A2A50
S1130D002A2A2A2A2A2A2A2A2A2A2A2A2A2A0A0089
S1130D102A2A2A2A2A2A2A2A2A2A2A2A2A2A2A2A2F
S1130D202A2A2A2A2A2A2A2A20312D205365742085
S1130D3041646D696E2050617373776F72642061D2
S1130D406E64204E616D65202A2A2A2A2A2A2A2ABC
S1130D502A2A2A2A2A2A2A2A2A2A2A2A2A2A2A2AEF
S1130D602A2A2A2A2A2A2A2A2A2A2A0A00506C6586
S1130D706173652043686F6F7365206F6E65206FC4
S1130D80662074686520666F6C6C6F77696E672087
S1130D90436F6D6D616E64732000546869732063E2
S1130DA0617264204973206E6F742045786973748E
S1130DB0005468697320636172642020497320457C
S1130DC07869737400506C6561736520656E746531
S1130DD0722043617264204E616D653A0057454C40
S1130DE0434F4D45204F50455241544500000000AB
S1130DF0004D4F44450000000000000000000000CA
S1130E000000000000504C4541534520454E5445D8
S1130E10522000000000000000454E54455220546A
S1130E20484500000000000000000000005452414A
S1130E304E53414320414D4F554E54200000000075
S1130E40005452414E53414354494F4E20203A20BE
S1130E50000000000057726F6E6720000000000061
S1130E600000000000000000005472616E736163B2
S1130E7074696F6E000000000000000000455252CB
S1130E804F525F54656D70000000000000000000C8
S1130E900043414C4C5F58585858585800000000C3
S1130EA00000000000447261676F6E730000000070
S1130EB000000000000000000041544D20537973ED
S1130EC074656D00000000000000000000656E7491
S1130ED065722050726F6772616D0000000000003F
S1130EE0004D6F6465000000000000000000000079
S1130EF0000000000050726F6772616D204D6F64D6
S1130F00450000000000000000434152440000007E
S1130F10000000000000000000000000004E4F54DC
S1130F202052454144590000000000000000000028
S1130F30005448414E4B0000000000000000000037
S1130F400000000000594F550000000000000000A0
S1130F5000000000000000000053756363657373B4
S1130F600000000000000000000000000048696E5E
S1130F70742121212120456D7074792044617461AC
S1130F8042617365200A002A2A2A2A2A2A2A2A2A3E
S1130F902A2A2A2A2A2A2A2A2A2A2A2A2A2A2A2AAD
S1130FA02A2A2A2A2A2A2A2A2A2A2A2A2A2A2A2A9D
S1130FB02A2A2A2A2A2A2A2A2A2A2A2A2A2A2A2A8D
S1130FC02A2A2A2A2A2A2A2A2A2A2A2A2A2A2A2A7D
S1130FD02A2A2A2A2A2A2A2A2A2A2A2A2A2A2A2A6D
S1130FE02A2A0A000A000A2020202020202020206B
S1130FF020202020202020002A2A2A2A2A2A2A2ABD
S11310002A2A2A2A2A2A2A2A2A2A2A2A2A2A2A2A3C
S11310102A2A2A2A2A2A2A2A2A2A2A2A2A2A2A2A2C
S11310202A2A2A2A2A2A2A2A2A2A2A2A2A2A2A2A1C
S11310302A2A2A2A2A2A2A2A2A2A2A2A2A2A2A2A0C
S11310402A2A2A2A2A2A2A2A2A2A2A2A2A2A2A2AFC
S11310502A2A2A0A20202020202020202020202084
S113106020202020000A002A2A2A2A2A2A2A2A2A78
S11310702A2A2A2A2A2A2A2A2A2A2A2A2A2A2A2ACC
S11310802A2A2A2A2A2A2A2A2A2A2A2A2A2A2A2ABC
S11310902A2A2A2A2A2A2A2A2A2A2A2A2A2A2A2AAC
S11310A02A2A2A2A2A2A2A2A2A2A2A2A2A2A2A2A9C
S11310B02A2A2A2A2A2A2A2A2A2A2A2A2A2A2A2A8C
S11310C02A2A0A002020202020202020202020203E
S11310D0202020200A002A2A2A2A2A2A2A2A2A2ADE
S11310E02A2A2A2A2A2A2A2A2A2A2A2A2A2A2A2A5C
S11310F02A2A2A2A2A2A2A2A2A2A2A2A2A2A2A2A4C
S11311002A2A2A2A2A2A2A2A2A2A2A2A2A2A2A2A3B
S11311102A2A2A2A2A2A2A2A2A2A2A2A2A2A2A2A2B
S11311202A2A2A2A2A2A2A2A2A2A2A2A2A2A2A2A1B
S11311302A0A2020202020202020202020202020B7
S11311402020000A000011241FBECFE5D8E0DEBF36
S1131150CDBF11E0A0E6B0E0E4EDF7E402C00590F5
S11311600D92A238B107D9F722E0A2E8B1E001C09C
S11311701D92AF31B207E1F70E940B170C94E823DC
S11311800C9400000895CF93DF9300D0CDB7DEB761
S113119089839DE09A838A3049F441E050E0BE019E
S11311A06E5F7F4F87E790E00E94F01B41E050E0C4
S11311B0BE016F5F7F4F87E790E00E94F01B80E0E5
S11311C090E00F900F90DF91CF9108950F931F93AC
S11311D0CF93DF93CDB7DEB76E970FB6F894DEBF2B
S11311E00FBECDBF8AE0FE013196DF01982F1D921C
S11311F09A95E9F73A96DF01982F1D929A95E9F7A7
S11312003A96DF011D928A95E9F761E081E790E063
S11312100E94821681113CC08E01055F1F4FBE01E2
S11312206F5F7F4FC8010E947A111F930F9386E06E
S113123091E09F938F930E94D42089EB90E00E94C9
S11312409916CE0145962AE0FC0111922A95E9F7F8
S11312506AE00E94E90A0F900F900F900F9009C066
S113126086EA90E00E9499166AE0CE0145960E94B3
S1131270E90ABE016B5E7F4FCE0101960E94932066
S1131280892B71F788E890E00E94991681E005C0E7
S11312908CE690E00E94991680E06E960FB6F89462
S11312A0DEBF0FBECDBFDF91CF911F910F91089587
S11312B089EB9EE00E94DC0AAC0161E081E00E94BF
S11312C029148DEC9EE00E94DC0AAC0161E082E00E
S11312D00E9429146DEC7EE089EB9EE00E94CE16FC
S11312E02FEF8DE399E4215080409040E1F700C056
S11312F0000081E00E9485134CE151E065E081E04B
S11313000E94291484E690E00E9499162FEF8DE341
S113131099E4215080409040E1F700C0000081E052
S11313200E9485130E94E608813011F40E94FF0C8C
S1131330789487E690E00E94831A0E940C1281112F
S113134003C00E94B10DF4CF0E940610F1CFCF93D9
S1131350DF9300D01F92CDB7DEB780E8898381E0A8
S11313608A838B83BE016F5F7F4F80E390E00E948E
S11313703A1888E08983BE016F5F7F4F80E390E075
S11313800E943A1881E790E00E9452160F900F9045
S11313900F90DF91CF9108950E94D9140E941015E7
S11313A08BEB90E00E9443120E94E51386E990E0E3
S11313B00E9462180E94881588E890E00E944719EC
S11313C087E790E00E94B71B0E94A70987E690E098
S11313D00E94C81962EC78E084E00E946D1B80E6EC
S11313E090E00E948C17F89489B7846089BF60E00C
S11313F080E690E00E94A8178BEE91E00E94C6114F
S11314008BEE91E00E946720909383018093820188
S1131410019631F482E390E09093830180938201FA
S11314208FE990E090931C0280931B0208951F9211
S11314300F920FB60F9211240F900FBE0F901F90B2
S11314401895CF93DF931F92CDB7DEB7198288E545
S113145098E09F938F930E94EA208BEF97E09F93ED
S11314608F930E94EA208EE997E09F938F930E94C6
S1131470EA2081E497E09F938F930E94EA2084EE10
S113148096E09F938F930E94EA2087E896E09F93CB
S11314908F930E94EA208AE296E09F938F930E94A2
S11314A0EA208DEC95E09F938F930E94EA2080E7D9
S11314B095E09F938F930E94EA2083E195E09F93A8
S11314C08F930E94EA2086EB94E09F938F930E946F
S11314D0EA2089E594E09F938F930E94EA208CEFA1
S11314E093E09F938F930E94EA208FE993E09F9368
S11314F08F930E94EA208CE993E09F938F930E943C
S1131500EA2041E050E0BE016F5F7F4F87E790E043
S11315100E940D1C8AE993E09F938F930E94EA2016
S11315200FB6F894DEBF0FBECDBF89810F90DF9157
S1131530CF9108951F93CF93DF930097C9F1EC01E6
S113154010E034C041E068E080E390E00E94551868
S11315504DE150E0BE0188E890E00E94A91964E2E0
S113156071E0CE010E949320892B81F46CEE70E02F
S113157087EE90E00E94CE1681E00E94851361E31D
S11315807FE08DE19FE00E94CE1601C011E040E0B3
S113159068E080E390E00E9455182FEF87EA91E617
S11315A0215080409040E1F700C00000112351F227
S11315B0DF91CF911F910895009741F0BC0184E819
S11315C091E00E94852084E891E0089580E090E015
S11315D008950F931F93CF93DF93009791F06623A1
S11315E091F0EC01062F10E0A80160E070E00E9489
S11315F08C20A801BE0187E790E00E940D1C80E0CA
S113160003C08FEF01C08FEFDF91CF911F910F9136
S113161008950F931F93CF93DF93CDB7DEB7A397AE
S11316200FB6F894DEBF0FBECDBF8E010F5F1F4F04
S113163083E2F80111928A95E9F78AE793E00E9420
S113164099166BE0C8010E94E90A8FE593E00E94B5
S113165099166BE0CE010C960E94E90A85E493E0AA
S11316600E94991666E0CE0147960E94E90A84E238
S113167093E00E94991667E0CE014D960E94E90A14
S1131680C8010E94AE10811105C080E093E00E9461
S113169099160BC0833029F483EE92E00E949916C8
S11316A004C087EC92E00E949916A3960FB6F894B2
S11316B0DEBF0FBECDBFDF91CF911F910F91089573
S11316C00F931F93CF93DF93CDB7DEB7A3970FB6D6
S11316D0F894DEBF0FBECDBF8E010F5F1F4F83E2B4
S11316E0F80111928A95E9F78FEA92E00E9499161F
S11316F06BE0CE010C960E94E90AC8010E94021117
S1131700811105C08CE892E00E94991604C086E716
S113171092E00E949916A3960FB6F894DEBF0FBE0E
S1131720CDBFDF91CF911F910F9108950F931F9318
S1131730CF93DF93CDB7DEB7A3970FB6F894DEBF90
S11317400FBECDBF8E010F5F1F4F83E2F8011192D0
S11317508A95E9F780E692E00E9499166BE0CE0143
S11317600C960E94E90A60E0C8010E943B100196B1
S113177031F08DE492E00E94991681E005C089E37E
S113178092E00E94991682E0A3960FB6F894DEBF09
S11317900FBECDBFDF91CF911F910F9108950F938D
S11317A01F93CF93DF93CDB7DEB7A3970FB6F8940B
S11317B0DEBF0FBECDBF8E010F5F1F4F83E2F80166
S11317C011928A95E9F785EC9DE00E9499166AE0EA
S11317D0C8010E94E90A61E0C8010E943B10019619
S11317E029F081EB9DE00E94991604C08AE99DE0EE
S11317F00E949916A3960FB6F894DEBF0FBECDBF14
S1131800DF91CF911F910F9108951F93CF93DF9391
S1131810CDB7DEB7AE970FB6F894DEBF0FBECDBF1F
S11318201982FE01329683E2DF011D928A95E9F75F
S113183010E0D8C08DE69DE00E94991680E19DE0FD
S11318409F938F930E94EA2083EB9CE09F938F9356
S11318500E94EA2086E59CE09F938F930E94EA20F1
S113186089EF9BE09F938F930E94EA208CE99BE091
S11318709F938F930E94EA2087E89BE00E94991629
S113188041E050E0BE016F5F7F4F87E790E00E9428
S11318900D1C84E89BE09F938F930E94EA200FB66F
S11318A0F894DEBF0FBECDBF8981833309F465C0D0
S11318B028F4813351F08233D1F194C0843309F494
S11318C06BC0853309F489C08DC084E69BE00E9417
S11318D099166AE0CE0102960E94E90A84E49BE02C
S11318E00E9499166AE0CE010D960E94E90A88E3E7
S11318F09BE00E9499169FEFADE3B9E49150A0409C
S1131900B040E1F700C00000BE01635F7F4FCE012D
S113191002960E945011811105C089E19BE00E944A
S1131920991660C087E09BE00E9499165BC084EE24
S11319309AE00E9499166AE0CE0102960E94E90A92
S113194088ED9AE00E9499162FEF8DE399E42150D7
S113195080409040E1F700C00000CE0102960E9452
S1131960A611811105C089EB9AE00E9499163AC02C
S113197088EA9AE00E94991635C081E00E94CE114F
S1131980811105C08DE89AE00E9499162BC084E667
S11319909AE00E94991626C082E49AE00E94991661
S11319A06AE0CE0185960E94E90A8FE39AE09F934C
S11319B08F930E94EA20CE0185960E943B120F90DD
S11319C00F90811105C08DE19AE00E9499160AC01A
S11319D089EE99E00E94991605C082EC99E00E9474
S11319E0991611E0112309F425CFAE960FB6F89499
S11319F0DEBF0FBECDBFDF91CF911F910895CF936E
S1131A0081EE9EE00E94DC0AAC0161E081E00E946C
S1131A10291485EF9EE00E94DC0AAC0161E082E0BB
S1131A200E94291465EF7EE081EE9EE00E94CE16AE
S1131A302FEF8DE399E4215080409040E1F700C0FE
S1131A40000081E00E94851389E09FE00E94DC0A87
S1131A50AC0161E081E00E94291469E07FE081EF3C
S1131A609DE00E94CE162FEF8DE399E42150804033
S1131A709040E1F700C00000C0E06EC00E94210A5F
S1131A8090E0FC01F197E830F10508F061C0E65DF3
S1131A90FF4F0C9409200E94090B5EC00E94600B4A
S1131AA05BC00E94960B58C00E94CF0B55C08CE8B7
S1131AB099E09F938F930E94EA2083E699E09F9395
S1131AC08F930E94EA200E943A119F938F938EE293
S1131AD091E09F938F930E94D42085E599E09F9392
S1131AE08F930E94EA208FE199E09F938F930E9445
S1131AF0EA208CE199E09F938F930E94EA208DB7AE
S1131B009EB70E960FB6F8949EBF0FBE8DBF24C02D
S1131B100E941F10811105C087E099E00E94991668
S1131B201BC08BED98E00E94991616C00E94050C0C
S1131B3013C082ED98E00E9499169FEF2DE389E48B
S1131B40915020408040E1F700C00000C1E004C093
S1131B5085EB98E00E949916CC2309F48FCFCF919E
S1131B6008958DED9DE00E94DC0AAC0161E081E006
S1131B700E94291481EF9DE00E94DC0AAC0161E01F
S1131B8082E00E94291461EF7DE08DED9DE00E94CA
S1131B90CE162FEF8DE399E4215080409040E1F779
S1131BA000C000000BC21092A00186E0E5EBF0E05B
S1131BB0DF011D928A95E9F781E00E94851385E093
S1131BC09EE00E94DC0AAC0161E081E00E942914DD
S1131BD08DE19FE00E94DC0AAC0161E082E00E949A
S1131BE029146DE17FE085E09EE00E94CE1660E05E
S1131BF081E790E00E9482168130C9F360E081E7BA
S1131C0090E00E948216811168C180EF91E00E94E9
S1131C109A0A60E080EF91E00E943B1090939A0151
S1131C20809399018F3FBFEF9B07E9F044E265EA97
S1131C3071E00E948E1581EC91E00E946720092ECC
S1131C40000CAA0BBB0B8093B1009093B200A0933D
S1131C50B300B093B40086E292E00E94991681E04A
S1131C6080939F0106C082E192E00E94991610922F
S1131C709F0180919F01813009F02FC10E9485133B
S1131C808DE29EE00E94DC0AAC0161E081E00E94EA
S1131C90291481E49EE00E94DC0AAC0161E082E048
S1131CA00E94291461E47EE08DE29EE00E94CE163B
S1131CB02FEF8DE399E4215080409040E1F700C07C
S1131CC0000061E47EE08DE29EE00E94CE1681E099
S1131CD00E94851385E59EE00E94DC0AAC0161E068
S1131CE081E00E94291461E082E00E94AC1385E542
S1131CF09EE00E949916C0E013C0AFEFB3EC29E058
S1131D00A150B0402040E1F700C000008BEB90E010
S1131D100E948C128093A0018A3211F41092A001C7
S1131D208091A001882349F3833271F08AE20E94F2
S1131D306B13EC2FF0E0EB54FF4F8091A0018083F4
S1131D401092A001CF5FECCF85EB90E00E9467205A
S1131D50092E000CAA0BBB0B80939B0190939C0152
S1131D60A0939D01B0939E0181E00E94851367E0DA
S1131D7080919B0190919C010E9438148FEF9DE308
S1131D80A9E481509040A040E1F700C000004091D8
S1131D909B0150919C0160919D0170919E018091E5
S1131DA0AD009091AE00A091AF00B091B000841747
S1131DB09507A607B70768F08091B1009091B2002B
S1131DC0A091B300B091B40084179507A607B70794
S1131DD028F581E00E94851389E69EE00E94DC0AD2
S1131DE0AC0161E081E00E9429148DE79EE00E942D
S1131DF0DC0AAC0161E082E00E9429146DE77EE018
S1131E0089E69EE00E94CE16BFEF2DE389E4B1502F
S1131E1020408040E1F700C000005FC0841B950BA8
S1131E20A60BB70B8093B1009093B200A093B300BC
S1131E30B093B4004AE061EC71E00E94A72081E015
S1131E400E94851367E08091B1009091B2000E94D6
S1131E5038148091B4008F938091B3008F93809154
S1131E60B2008F938091B1008F9381E391E09F93AF
S1131E708F930E94D42044E265EA71E08091990135
S1131E8090919A010E94F0158DE69FE00E94DC0A71
S1131E90AC0161E081E00E9429148DE79EE00E947C
S1131EA0DC0AAC0161E082E00E94291466E480E06F
S1131EB00E9419159FEFA3EDB0E39150A040B040EC
S1131EC0E1F700C0000060E080E00E9419150F9067
S1131ED00F900F900F900F900F9085EE91E00E945D
S1131EE0991688E891E09F938F930E94EA208BE2F1
S1131EF091E09F938F930E94EA2086E191E00E94F3
S1131F00991684E191E09F938F930E94EA2081E0E7
S1131F100E9485134CE451E061E081E00E942914A1
S1131F204BE551E061E082E00E9429140F900F908C
S1131F300F900F900F900F9081E03EC01092A0017F
S1131F4013C02FEF83EC99E0215080409040E1F7DB
S1131F5000C000008BEB90E00E948C128093A001E3
S1131F608A3211F41092A0018091A001882349F3D0
S1131F7081E00E9485134AE651E061E081E00E941D
S1131F8029144091A00166E082E00E94C913809167
S1131F90A001813319F0823329F009C0109298010D
S1131FA080E00AC081E08093980180E005C083E06E
S1131FB091E00E94991681E08111C0CF809198012F
S1131FC0882309F4F0CDAFEFB7EA21E6A150B04081
S1131FD02040E1F700C0000086EF90E00E949916CF
S1131FE081E00E94851385E49FE00E94DC0AAC0135
S1131FF061E081E00E94291489E59FE00E94DC0AE7
S1132000AC0161E082E00E942914FFCF81E99EE0E7
S11320100E94DC0AAC0161E081E00E94291485EA97
S11320209EE00E94DC0AAC0161E082E00E94291477
S113203066ED70E08FEC90E00E94CE16FFCFCF9358
S1132040DF9300D000D0CDB7DEB71A8219828AECB4
S11320509BE69C838B8344E0BE016F5F7F4F80E0EF
S113206090E00E94F01580E00F900F900F900F9079
S1132070DF91CF910895FF920F931F93CF93DF9336
S11320808C01F62E42E061EA71E080E090E00E946B
S11320908E158091A1019091A201892B09F04CC069
S11320A08DE69FE09F938F930E94EA200F900F90FC
S11320B08FEF9FEF4DC042E063EA71E0CE010E94D2
S11320C08E158091A3019091A4018F3F2FEF920769
S11320D089F12091A1013091A2012150310930935D
S11320E0A2012093A10144E265EA71E00E948E15E9
S11320F0F1100EC0B801655F7F4F80EB91E00E9444
S11321009320892B89F48091A3019091A40120C08C
S1132110B80185EA91E00E949320892B29F48091EB
S1132120A3019091A40114C08091A1019091A201F6
S1132130892B61F0229602C0C2E0D0E0CA3C8BE653
S1132140D80708F4B8CF8FEF9FEF02C08FEF9FEF4F
S1132150DF91CF911F910F91FF9008950F931F93DB
S1132160CF93DF9300D000D0CDB7DEB78C011A82B5
S113217019821C821B8242E0BE016D5F7F4F80E0AA
S113218090E00E948E158B819C81853E954370F56D
S113219060E0C8010E943B10019651F52B813C81FF
S11321A0C90101969C838B8344E2429FC001439FF3
S11321B0900D1124865394499A838983B8010E940F
S11321C0F0158B819C81019642E0BE016F5F7F4FC9
S11321D0880F991F0E94F01542E0BE016D5F7F4F8A
S11321E080E090E00E94F01580E003C083E001C02D
S11321F081E00F900F900F900F90DF91CF911F917E
S11322000F910895CF93DF9300D000D0CDB7DEB700
S113221060E00E943B102FEF3FEF3A8329831C823A
S11322201B828F3F2FEF9207E9F042E0BE016F5F00
S11322307F4F0E94F01542E0BE016D5F7F4F80E04A
S113224090E00E948E158B819C8101979C838B83E7
S113225042E0BE016D5F7F4F80E090E00E94F01588
S113226080E001C082E00F900F900F900F90DF91FB
S1132270CF910895CF93DF9300D0CDB7DEB71A8204
S1132280198242E0BE016F5F7F4F80E090E00E94C0
S11322908E1589819A810F900F90DF91CF910895C7
S11322A0EF92FF920F931F93CF93DF931F92CDB7BB
S11322B0DEB77C018B0183E5898341E0BE016F5F5A
S11322C07F4F88EE9DEF0E94F01549E0B70182EF41
S11322D09DEF0E94F01549E0B8018CEF9DEF0E943C
S11322E0F01580E00F90DF91CF911F910F91FF9037
S11322F0EF900895EF92FF920F931F93CF93DF9384
S11323001F92CDB7DEB77C018B01198241E0BE017B
S11323106F5F7F4F88EE9DEF0E948E158981833514
S113232061F44AE0B70182EF9DEF0E948E154AE006
S1132330B8018CEF9DEF0E948E1580E00F90DF9125
S1132340CF911F910F91FF90EF9008950F931F93DA
S1132350CF93DF9300D0CDB7DEB78C011A821982F8
S113236042E0BE016F5F7F4F88EE9DEF0E94F01543
S113237045E0B80186E09EEF0E94F01580E00F90E2
S11323800F90DF91CF911F910F9108954AE0BC0106
S113239086E09EEF0E948E1580E00895CF93DF9330
S11323A0CDB7DEB72A970FB6F894DEBF0FBECDBF08
S11323B096E0ECEFF0E0DE01119601900D929A9513
S11323C0E1F7FE01379694E0DF011D929A95E9F753
S11323D0811109C04AE0BE016F5F7F4F80E19EEF2B
S11323E00E94F0150FC0813069F4BE016F5F7F4F0A
S11323F08AE0FB0111928A95E9F74AE080E19EEFB9
S11324000E94F01580E02A960FB6F894DEBF0FBE46
S1132410CDBFDF91CF9108950F931F93CF93DF9397
S1132420CDB7DEB72A970FB6F894DEBF0FBECDBF87
S11324308E010F5F1F4F8AE0F80111928A95E9F728
S11324404AE0B80180E19EEF0E948E156CEF70E0C7
S1132450C8010E949320892B11F481E001C080E01F
S11324602A960FB6F894DEBF0FBECDBFDF91CF9191
S11324701F910F91089546E0BC018AE19EEF0E94EE
S1132480F01580E00895FF920F931F93CF93DF938D
S11324908C0181E08093C901F12C19C0CF2DD0E0CB
S11324A0CE01880F991FC80FD91FC00FD11F8E8569
S11324B08093C80168EC71E08C859D850E943A1870
S11324C041E06E858C859D850E945518F39482E0C9
S11324D08F1520F7E8ECF1E0118281E08283C0E0FF
S11324E013C0EC2FF0E0CF01880F991FE80FF91FFC
S11324F0E00FF11F82818093C80168EC71E0808154
S113250091810E943A18CF5FC43058F3DF91CF9184
S11325101F910F91FF900895CF92DF92EF92FF9257
S11325200F931F93CF93DF93EC01C12C4DC00C2D5F
S113253010E0F801EE0FFF1FE00FF11FEC0FFD1F7D
S113254040E06685848595850E945518D12C2AC063
S1132550ED2CF12CF701EE0FFF1FEE0DFF1DEC0F1C
S1132560FD1F6281808191810E944D18811119C0E3
S1132570C801880F991F800F911FC80FD91F41E010
S11325806E858C859D850E945518C701880F991FFB
S11325908E0D9F1D80539F4FFC01E00FF11F808122
S11325A018C0D39483E08D1598F6F801EE0FFF1F41
S11325B00E0F1F1FFE01E00FF11F41E066858485A9
S11325C095850E945518C39482E08C1508F0AFCF0E
S11325D080E0DF91CF911F910F91FF90EF90DF90FA
S11325E0CF900895CF93DF93CCEDD0E041E06885A0
S11325F08E819F810E94551885E08A95F1F700002D
S113260040E068858E819F810E9455188FE39FE189
S11326100197F1F700C00000DF91CF9108950F9367
S11326201F93CF93C82F83E090E023C08C010F5FEA
S11326301F4F41E050E0002E02C0440F551F0A9482
S1132640E2F72C2F30E042235323002E02C055958D
S113265047950A94E2F7FC01EE0FFF1F8E0F9F1FB0
S1132660FC01E452FF4F6281808191810E945518E0
S1132670C80187309105D4F20E94F21203E010E001
S113268021C0C801039741E050E0082E02C0440F66
S1132690551F0A94E2F72C2F30E04223532302C043
S11326A0559547958A95E2F7F801EE0FFF1FE00F65
S11326B0F11FE452FF4F6281808191810E9455187D
S11326C00F5F1F4F07301105E4F20E94F212CF9101
S11326D01F910F9108951F93CF93DF93182FCCED83
S11326E0D0E041E06A81888199810E94551840E0D8
S11326F06D818B819C810E945518812F0E940F133C
S113270080E0DF91CF911F9108951F93CF93DF93C2
S1132710182FCCEDD0E040E06A81888199810E9435
S1132720551840E06D818B819C810E945518812F42
S11327300E940F1380E0DF91CF911F910895CF93F2
S1132740DF93EC0103C021960E946B1388818111F1
S1132750FACFDF91CF910895CF93DF9300D0CDB717
S1132760DEB790E8998390EC9A83E82FF0E03197F4
S113277081E090E08C0F9D1FE80FF91F8081860F88
S113278081500E94851380E00F900F90DF91CF91CC
S113279008951F93CF93DF93142F0E94AC13CCEDB5
S11327A0D0E041E06A81888199810E94551840E017
S11327B06D818B819C810E945518812F0E940F137B
S11327C080E0DF91CF911F9108950F931F93CF93D2
S11327D0DF9300D01F92CDB7DEB72FEF89EF90E0E3
S11327E0215080409040E1F700C0000081E08A83DE
S11327F01B8200E010E012C0F801EE0FFF1FE00F93
S1132800F11FE452FF4F82818983BE016F5F7F4FC6
S1132810808191810E943A180F5F1F4F0730110584
S11328205CF383E30E94851382E30E94851388E2AC
S11328300E9485138CE00E94851381E00E94851319
S113284080E00F900F900F90DF91CF911F910F9127
S11328500895CF93DF93EA010E94AC1303C021963D
S11328600E946B1388818111FACFDF91CF91089573
S1132870EF92FF920F931F93CF93DF93CDB7DEB701
S1132880EDB6FEB62DB73EB7261B31090FB6F89448
S11328903EBF0FBE2DBF0DB71EB70F5F1F4F4AE0DF
S11328A050E0B8010E949C20C8010E949F1380E060
S11328B00FB6F894FEBE0FBEEDBEDF91CF911F910F
S11328C00F91FF90EF900895EF92FF920F931F9353
S11328D0CF93DF93C82FD0E07E01EE0CFF1C87015D
S11328E00C0F1D1F000F111F0A581E4F40E0F80166
S11328F06481808191810E945518E80140E06D81D6
S11329008A819B810E945518DF91CF911F910F916D
S1132910FF90EF900895EF92FF920F931F93CF9340
S1132920DF93C82FD0E07E01EE0CFF1C87010C0F53
S11329301D1F000F111F0A581E4F41E0F80164814A
S1132940808191810E945518E80140E06D818A815F
S11329509B810E945518DF91CF911F910F91FF9099
S1132960EF900895EF92FF920F931F93CF93DF930D
S1132970C82FD0E07E01EE0CFF1C87010C0F1D1F39
S1132980000F111F0A581E4F40E0F8016481808136
S113299091810E945518E80141E06D818A819B81F3
S11329A00E945518DF91CF911F910F91FF90EF90E6
S11329B008950F931F93CF93DF9300D01F92CDB749
S11329C0DEB719821A821B8281E08A8342EF50E0CB
S11329D060E880E390E00E942A1D811118C010E095
S11329E012C004E00983BE016F5F7F4F86E390E06D
S11329F00E943A180983BE016F5F7F4F86E390E01F
S1132A000E943A181F5F123060F380E001C083E037
S1132A100F900F900F90DF91CF911F910F91089518
S1132A2082EF90E00E949A1D882311F083E00895BC
S1132A300895CF939091CB01961305C09091F10026
S1132A40981709F462C0C62F823071F130F48823DC
S1132A50E1F1813009F449C058C08330A1F08430D9
S1132A6009F053C080E00E94641481E00E94641461
S1132A7084E08093F1001092CB0162EF70E080E07B
S1132A800E94A21D42C080E00E948B1481E00E943B
S1132A908B1483E08093F100C093CB0162EF70E06C
S1132AA08C2F0E94A21D31C080E00E94B21481E0EC
S1132AB00E94B21482E08093F100C093CB0162EFD4
S1132AC070E08C2F0E94A21D20C080E00E94B214EE
S1132AD081E00E948B141092F100C093CB0162EF4D
S1132AE070E08C2F0E94A21D10C080E00E948B1405
S1132AF081E00E94B21481E08093F100C093CB0185
S1132B0062EF70E08C2F0E94A21D80E0CF910895A7
S1132B1086E990E00E94621880E008958F929F9267
S1132B20AF92BF92CF92DF92EF920F931F93CF9306
S1132B306115710509F446C0442309F445C0C42F46
S1132B406B01AC015C01AA0CAB2CAA1CBB08B194B0
S1132B504C01E89487F89924C4018C0F911D8138A5
S1132B60910530F180E8E82EE8188B0122E060EA54
S1132B7086E990E00E94E61800E810E008191909B7
S1132B808C2F880D6894EE24E7F8E80E0C0D1D1DBB
S1132B90A5014F5F5F4F5695542F4427579547958E
S1132BA022E060EA86E990E00E94E61880E00DC029
S1132BB0EC2E8B0122E060EA86E990E00E94E618A0
S1132BC080E003C081E001C081E0CF911F910F91AB
S1132BD0EF90DF90CF90BF90AF909F908F9008952B
S1132BE08F929F92AF92BF92CF92DF92EF920F9308
S1132BF01F93CF936115710509F446C0442309F46A
S1132C0045C0C42F6B01AC015C01AA0CAB2CAA1CFF
S1132C10BB08B1944C01E89487F89924C4018C0F43
S1132C20911D8138910530F180E8E82EE8188B0178
S1132C3022E060EA86E990E00E94A31800E810E030
S1132C40081919098C2F880D6894EE24E7F8E80E0A
S1132C500C0D1D1DA5014F5F5F4F5695542F442742
S1132C605795479522E060EA86E990E00E94A31810
S1132C7080E00DC0EC2E8B0122E060EA86E990E052
S1132C800E94A31880E003C081E001C081E0CF91DD
S1132C901F910F91EF90DF90CF90BF90AF909F90D6
S1132CA08F900895EF92FF921F93CF93DF9300D0FC
S1132CB01F92CDB7DEB70097D9F07C011A8210E0DD
S1132CC013C0E12FF0E0CF01880F991FE80FF91F1F
S1132CD0EE0DFF1D82818983BE016F5F7F4F80816E
S1132CE091810E943A181F5F123058F380E001C0AE
S1132CF081E00F900F900F90DF91CF911F91FF9083
S1132D00EF900895009789F0633088F470E0FB0138
S1132D10EE0FFF1F6E0F7F1FFC01E60FF71F62818E
S1132D20808191810E944D1808958FEF08958FEF4F
S1132D300895CF93DF93009769F1EC0183E491E167
S1132D409F938F930E94EA2086ED90E19F938F9347
S1132D500E94EA20DF93CF930E94EA2084EC90E162
S1132D609F938F930E94EA2087E690E19F938F932D
S1132D700E94EA2085E690E19F938F930E94EA20C7
S1132D808DB79EB70C960FB6F8949EBF0FBE8DBF3D
S1132D9080E001C081E0DF91CF9108950F931F93EC
S1132DA0CF93DF93009779F16115710571F18B0170
S1132DB0EC0188EF9FE09F938F930E94EA20DF93BA
S1132DC0CF930E94EA2086EE9FE09F938F930E9408
S1132DD0EA201F930F930E94EA2084EE9FE09F93C2
S1132DE08F930E94EA2087E89FE09F938F930E942D
S1132DF0EA208DB79EB70C960FB6F8949EBF0FBE0F
S1132E008DBF80E003C081E001C081E0DF91CF91FC
S1132E101F910F9108950E94CC090E941015789477
S1132E200E945809FDCF1F920F920FB60F921124E2
S1132E302F933F934F935F936F937F938F939F93BE
S1132E40AF93BF93EF93FF93E0911302F0911402B9
S1132E500995FF91EF91BF91AF919F918F917F91D0
S1132E606F915F914F913F912F910F900FBE0F90F3
S1132E701F9018951F920F920FB60F9211242F9343
S1132E803F934F935F936F937F938F939F93AF93EE
S1132E90BF93EF93FF93E0911702F0911802099505
S1132EA0FF91EF91BF91AF919F918F917F916F911E
S1132EB05F914F913F912F910F900FBE0F901F90F4
S1132EC018951F920F920FB60F9211242F933F93D0
S1132ED04F935F936F937F938F939F93AF93BF931E
S1132EE0EF93FF93E0911502F09116020995FF917B
S1132EF0EF91BF91AF919F918F917F916F915F916E
S1132F004F913F912F910F900FBE0F901F901895E6
S1132F1086B1806486B90895FC0180B78F7180BF43
S1132F2020B7908130E2939FC0011124822B80BF8F
S1132F3016B893818181892B806A86B917B89481E8
S1132F408281892B87B98381882309F07894089535
S1132F50CF93C62FECECF1E0118281E001C0880F21
S1132F606A95EAF780831282BF0189E390E00E94A8
S1132F703A1887B1807E87B967B16C2B67B90E9414
S1132F808817CF9108951F920F920FB60F921124B4
S1132F902F933F934F935F936F937F938F939F935D
S1132FA0AF93BF93EF93FF933D9B15C064B185B17D
S1132FB06295669566956370682B70E080E090E09A
S1132FC00E94DA1E6093CF017093D0018093D101E7
S1132FD09093D20114C084B165B170E0762F662756
S1132FE0682B072E000C880B990B0E94DA1E609345
S1132FF0CF017093D0018093D1019093D20125EE3B
S11330003FEF4FE95BE36091CF017091D001809174
S1133010D1019091D2010E94661F2AE037ED43E26C
S11330205CE30E94371E6093CF017093D0018093BC
S1133030D1019093D2010E94A91E20918201309166
S113304083012617370728F480E00E94CE110E94DE
S11330500610FF91EF91BF91AF919F918F917F9156
S11330606F915F914F913F912F910F900FBE0F90F1
S11330701F901895FC01DB0111968C9111978130FA
S113308029F48C919181892B81830895DB019C9192
S113309090958181982391830895FC018081682310
S11330A011F081E0089580E00895442329F0FC01A3
S11330B02281622B628308956095FC012281622340
S11330C0628308958F929F92AF92BF92CF92DF92C4
S11330D0EF92FF920F93CF93DF93EC012881398114
S11330E04A815B8160E074E284EF90E00E94E71F14
S11330F049015A01392D4A2D5B2D60E070E080E0D2
S113310090E0A0EF0E94382001E00E941C2020B92A
S11331108C8182B916BE11B88D81813029F47894DE
S113312086B7816086BF03C086B78E7F86BFDF9176
S1133130CF910F91FF90EF90DF90CF90BF90AF9021
S11331409F908F900895EF920F931F93DC01179631
S11331501C930E9316971896EC92189784EA86BFE0
S113316006B607FEFDCF63B984E886BF06B607FE40
S1133170FDCF223031F453B984E886BF06B607FE8A
S1133180FDCF43B984E886BF06B607FEFDCF13C062
S11331901696ED91FC9117979F012F5F3F4F17965D
S11331A03C932E931697908193B994E896BF06B6F4
S11331B007FEFDCFE82E8FEF8E0DE110E9CF84E9F5
S11331C086BF80E01F910F91EF900895EF920F93C7
S11331D01F93DC019E2D17961C930E931697189639
S11331E0EC92189784EA86BF06B607FEFDCF63B952
S11331F084E886BF06B607FEFDCF223031F453B90A
S113320084E886BF06B607FEFDCF43B984E886BFCF
S113321006B607FEFDCF84EA86BF06B607FEFDCFDD
S1133220616063B984E886BF06B607FEFDCF13C0AC
S113323094EC96BF06B607FEFDCF1696ED91FC9171
S113324017979F012F5F3F4F17963C932E93169726
S113325093B19083982F8FEF890F923048F784E8C9
S113326086BF06B607FEFDCF1696ED91FC91179723
S1133270CF01019617969C938E93169783B1808302
S113328084E986BF80E01F910F91EF9008950F931A
S11332901F93CF93DF9300D01F92CDB7DEB78C017D
S11332A0FC018381882344F49DB18370892B8DB9FB
S11332B08EB181608EB904C09DB18370892B8DB9A4
S11332C0F801808184FF16C081E08A8380EB8983C2
S11332D0BE016F5F7F4F86E390E00E943A181A8226
S11332E080E48983BE016F5F7F4F86E390E00E9494
S11332F03A1815C01A8280EB8983BE016F5F7F4F35
S113330086E390E00E943A1881E08A8380E489830E
S1133310BE016F5F7F4F86E390E00E943A18F80188
S113332042818181348125819081842B832B822B5E
S1133330892B8DB98DB180648DB98581803809F46C
S113334078940F900F900F90DF91CF911F910F9170
S11333500895FC0171876087178216825587448718
S11333601386128610C0779BFECFA085B1858FB1DE
S11333708C93808591850196918780878485958536
S113338001979587848784859585892B61F70895AE
S1133390009789F0FC018085811102C013BE089555
S11333A0823019F415BC80E00895813031F41FBCDB
S11333B01EBC80E0089581E0089582E00895CF92D4
S11333C0DF92EF92FF920F931F93CF93DF938C01C1
S11333D0C62F009709F48BC0FC018085811108C0B9
S11333E0962F64E670E00E94D31F6CBF80E082C019
S11333F0823049F4962F80E064E670E00E94D31F87
S113340063BD80E077C0813009F073C08FEF9FE027
S113341097BD86BDF80186818F3FB9F58081918182
S1133420A281B381BC01CD017F70882799270F2E1B
S1133430F4E6CF2ED12CE12CF12CF02DA70196012E
S11334400E94E71FD0E0C29FC001C39F900DD29F8E
S1133450900D11249BBD8ABDF80180819181A281C8
S1133460B381BC01CD017F7088279927A7019601FC
S11334700E94E71FC29FC001C39F900DD29F900D71
S1133480112499BD88BD80E035C08430C1F4F801B1
S113349080819181A281B3819C01AD013F70442759
S11334A05527A62FB0E00E940F2024E630E040E02C
S11334B050E00E94E71F39BD28BD80E01BC0F80121
S11334C080819181A281B3819C01AD013F70442729
S11334D05527A62FB0E00E940F2024E630E040E0FC
S11334E050E00E94E71F3BBD2ABD80E003C081E09D
S11334F001C080E0DF91CF911F910F91FF90EF9079
S1133500DF90CF900895009729F1FC0120852111C7
S113351009C023B7287F23BF23B78781822B83BFAA
S113352080E00895223051F425B5287F25BD25B5C6
S1133530FC018781822B85BD80E00895213061F4F0
S11335402EB5287F2EBD2EB5FC018781822B8EBD22
S113355080E0089581E0089582E00895811107C014
S113356083B7887F83BF83B783BF80E008958230A9
S113357039F485B5887F85BD85B585BD80E008951E
S1133580813039F48EB5887F8EBD8EB58EBD80E0D6
S1133590089582E00895FC01892B09F498C0808580
S11335A0813009F06DC080819181A281B38194FF43
S11335B033C0AA27BB278F3F20E19207A105B1059D
S11335C029F481E08FBD88E08EBD1FC08F3F21E1CB
S11335D09207A105B10529F482E08FBD88E08EBD74
S11335E014C08F3F23E19207A105B10529F483E0BC
S11335F08FBD88E08EBD09C08F3F9F41A105B105F5
S113360021F482E08FBD88E18EBD8185882389F015
S113361099B7892B89BF0DC095FF05C082E08FBD86
S113362080E18EBD06C096FF04C081E08FBD80E1BD
S11336308EBD26812F3FC1F42FB59481892F90E050
S1133640AC010024569547950794569547950794E1
S1133650542F402D82959295907F9827807F9827AC
S1133660842B822B8FBD2BC03FB59481892F90E092
S113367002C0880F991F2A95E2F7832B8FBD1FC0C4
S1133680882311F0823029F581110CC083B7877823
S113369083BF93B724818281822B892B83BF858149
S11336A08CBF0DC0823059F485B5877885BD95B53A
S11336B024818281822B892B85BD858183BD81856F
S11336C0882349F099B7892B89BF80E0089581E068
S11336D0089582E0089580E0089561157105E1F090
S11336E08830E1F038F4823089F08430B9F08130E8
S11336F059F414C0803291F018F4803179F004C088
S1133700803461F0803851F082E008957093D401E0
S11337106093D30180E0089581E0089580E00895E6
S11337201F920F920FB60F9211242F933F934F9332
S11337305F936F937F938F939F93AF93BF93EF9315
S1133740FF93E091D301F091D4010995FF91EF919A
S1133750BF91AF919F918F917F916F915F914F91A5
S11337603F912F910F900FBE0F901F901895FC0161
S11337701AB880E880BD9AB18781892B8AB920B5AF
S1133780948185819670982B922B906890BD80814E
S11337909181A281B381880F991FAA1FBB1F880F33
S11337A0991FAA1FBB1F9C01AD01220F331F441F89
S11337B0551F220F331F441F551F60E074E284EF2E
S11337C090E00E94E71F2150310929B9832F8F709F
S11337D080BD81B3826081BB81B38E7F81BB08953C
S11337E0FC01718760875587448720E030E00FC073
S11337F05D9BFECF8481863119F48AB181608AB9D8
S1133800DB01A20FB31F8C918CB92F5F3F4F8485CE
S113381095852817390760F30895CF93DF93FC014A
S113382011861086158614867387628757874687A4
S113383020E030E05F9BFECF9CB166857785621700
S1133840730708F455C084818631B1F5A285B38528
S1133850E901CC0FDD1FAC0FBD1F6AB1627070E0CF
S11338607695762F6627779567956D937C93A285D9
S1133870B385AC0FBD1F6D917C911197692B6D932E
S11338807C939D3019F09A3009F047C0868597855E
S11338902817390738F482859385C80FD91F1982F0
S11338A018823EC00284F385E02D440F551FE40FB7
S11338B0F51F1182108234C0A285B385A20FB31FF5
S11338C09C939D3011F09A3041F586859785281791
S11338D0390738F482859385FC01E20FF31F1082C7
S11338E01FC082859385FC01E40FF51F108218C068
S11338F09D3011F09A3089F42617370738F4828501
S11339009385FC01E20FF31F10820AC08285938520
S1133910FC01E40FF51F108203C02F5F3F4F8ACFD5
S1133920DF91CF9108958091DA0181110AC040E0BE
S11339306091E2018091DC019091DD010E945518B3
S113394008958091D701811110C040E06091E20197
S11339508091DC019091DD010E9455188091DA017B
S113396083BD81E08093D701089541E06091E20135
S11339708091DC019091DD010E9455188091DA015B
S1133980819583BD1092D70108958091D8019091BB
S1133990D901892B61F18091D601811113C040E0D6
S11339A06091E5018091DE019091DF010E9455183C
S11339B08091D8019091D9019BBD8ABD81E080930B
S11339C0D601089541E06091E5018091DE01909176
S11339D0DF010E9455182091D8013091D9018FEF51
S11339E09FE0821B930B9BBD8ABD1092D601089564
S11339F08091DB0181110AC040E06091E80180916F
S1133A00E0019091E1010E94551808958091D5013B
S1133A10811110C040E06091E8018091E001909133
S1133A20E1010E9455188091DB018CBF81E08093F5
S1133A30D501089541E06091E8018091E001909101
S1133A40E1010E9455188091DB0181958CBF109291
S1133A50D5010895FF920F931F93CF93DF934115E0
S1133A60510509F45EC0EA01F62E8C018FEF9FE048
S1133A70A8E0B0E088839983AA83BB83CA010E942B
S1133A80CB1A988591111AC0E8EEF1E081E08183A8
S1133A90F0821282BF01C8010E943A181093E1011A
S1133AA00093E00168EF7CE181E00E946D1B68EF08
S1133AB07CE189850E946D1B80E036C09130A9F4B9
S1133AC0E5EEF1E081E08183F0821282BF01C8015A
S1133AD00E943A181093DF010093DE0165EC7CE14B
S1133AE089850E946D1B80E01FC09230E1F4E2EEF4
S1133AF0F1E081E08183F0821282BF01C8010E945B
S1133B003A181093DD010093DC0163E97CE180E461
S1133B100E946D1B63E97CE189850E946D1B80E036
S1133B2003C081E001C082E0DF91CF911F910F912A
S1133B30FF900895009721F00E94831A80E0089571
S1133B4081E008958F929F92AF92BF92CF92DF92BD
S1133B50EF92FF921F93CF93DF936115710509F4E0
S1133B6071C0EB01182F88850E94AE1A81116CC0B8
S1133B70612FCE010E94DF19811168C0CE010E941D
S1133B80831A811165C08885813041F588819981C6
S1133B90AA81BB814C015D012FE09222AA24BB249F
S1133BA0612F70E080E090E00E94DA1E20E030E0B7
S1133BB048EC52E40E94661F6B017C01C501B4010C
S1133BC00E94D81EA70196010E94371E0E94A91EBA
S1133BD07093D9016093D80180E03DC0811118C071
S1133BE0612F70E080E090E00E94DA1E20E030E077
S1133BF048EC52E40E94371E20E030E040E853E4F1
S1133C000E94661F0E94A91E6093DB0180E023C00E
S1133C10823001F5612F70E080E090E00E94DA1EAE
S1133C2020E030E048EC52E40E94371E20E030E00F
S1133C3040E853E40E94661F0E94A91E6093DA01C3
S1133C4080E009C081E007C082E005C082E003C0D3
S1133C5082E001C082E0DF91CF911F91FF90EF904D
S1133C60DF90CF90BF90AF909F908F9008950E9467
S1133C704B1E0C942C1F0E94251F58F00E941E1FDF
S1133C8040F029F45F3F29F00C94151F51110C9456
S1133C90601F0C941B1F0E943D1F68F39923B1F30E
S1133CA0552391F3951B550BBB27AA27621773075E
S1133CB0840738F09F5F5F4F220F331F441FAA1FF2
S1133CC0A9F335D00E2E3AF0E0E832D091505040AE
S1133CD0E695001CCAF72BD0FE2F29D0660F771F5C
S1133CE0881FBB1F261737074807AB07B0E809F042
S1133CF0BB0B802DBF01FF2793585F4F3AF09E3FC7
S1133D00510578F00C94151F0C94601F5F3FE4F389
S1133D10983ED4F3869577956795B795F7959F5F09
S1133D20C9F7880F911D9695879597F90895E1E055
S1133D30660F771F881FBB1F621773078407BA07B4
S1133D4020F0621B730B840BBA0BEE1F88F7E0950F
S1133D5008950E94451F88F09F5798F0B92F99271E
S1133D60B751B0F0E1F0660F771F881F991F1AF062
S1133D70BA95C9F714C0B13091F00E945F1FB1E049
S1133D8008950C945F1F672F782F8827B85F39F048
S1133D90B93FCCF3869577956795B395D9F73EF4FB
S1133DA090958095709561957F4F8F4F9F4F0895A3
S1133DB0E89409C097FB3EF49095809570956195C1
S1133DC07F4F8F4F9F4F9923A9F0F92F96E9BB2777
S1133DD09395F695879577956795B795F111F8CFF3
S1133DE0FAF4BB0F11F460FF1BC06F5F7F4F8F4F5E
S1133DF09F4F16C0882311F096E911C0772321F054
S1133E009EE8872F762F05C0662371F096E8862FEB
S1133E1070E060E02AF09A95660F771F881FDAF742
S1133E20880F9695879597F9089597F99F6780E885
S1133E3070E060E008959FEF80EC089500240A94F8
S1133E401616170618060906089500240A94121671
S1133E501306140605060895092E0394000C11F4A4
S1133E60882352F0BB0F40F4BF2B11F460FF04C051
S1133E706F5F7F4F8F4F9F4F089557FD9058440FAA
S1133E80551F59F05F3F71F04795880F97FB991FB5
S1133E9061F09F3F79F08795089512161306140672
S1133EA0551FF2CF4695F1DF08C0161617061806FF
S1133EB0991FF1CF86957105610508940895E894DA
S1133EC0BB2766277727CB0197F908950E94791FAE
S1133ED00C942C1F0E941E1F38F00E94251F20F0F6
S1133EE0952311F00C94151F0C941B1F11240C9492
S1133EF0601F0E943D1F70F3959FC1F3950F50E022
S1133F00551F629FF001729FBB27F00DB11D639F87
S1133F10AA27F00DB11DAA1F649F6627B00DA11D2D
S1133F20661F829F2227B00DA11D621F739FB00DD3
S1133F30A11D621F839FA00D611D221F749F332743
S1133F40A00D611D231F849F600D211D822F762FDC
S1133F506A2F11249F5750409AF0F1F088234AF0B9
S1133F60EE0FFF1FBB1F661F771F881F9150504025
S1133F70A9F79E3F510580F00C94151F0C94601F07
S1133F805F3FE4F3983ED4F3869577956795B795AC
S1133F90F795E7959F5FC1F7FE2B880F911D9695C6
S1133FA0879597F9089597FB072E16F4009407D088
S1133FB077FD09D00E94442007FC05D03EF490957B
S1133FC081959F4F0895709561957F4F0895A1E263
S1133FD01A2EAA1BBB1BFD010DC0AA1FBB1FEE1F7F
S1133FE0FF1FA217B307E407F50720F0A21BB30BCA
S1133FF0E40BF50B661F771F881F991F1A9469F746
S113400060957095809590959B01AC01BD01CF01A1
S11340100895EE0FFF1F0590F491E02D09940E947E
S11340205820A59F900DB49F900DA49F800D911DC5
S11340301124089597FB10F8169400080F93083084
S113404098F00850232F342F452F562F672F782FA1
S1134050892F902DF4CF059497958795779567953B
S113406057954795379527950A95AAF70F9108957F
S11340700024A7FD00942A0F301D401D501D601D13
S1134080701D801D901D0895AA1BBB1B51E107C024
S1134090AA1FBB1FA617B70710F0A61BB70B881FD4
S11340A0991F5A95A9F780959095BC01CD01089563
S11340B0A29FB001B39FC001A39F700D811D112465
S11340C0911DB29F700D811D1124911D0895FC0155
S11340D088279927E89421912032E9F3293010F0B8
S11340E02E30C8F32B3241F02D3239F4689404C0D9
S11340F00E94B220820F911D219120532A30C0F3D7
S11341001EF4909581959F4F0895FB01DC01059065
S11341100D920020E1F70895DC0101C06D93415038
S11341205040E0F70895FB01DC018D910190801966
S11341300110D9F3990B08954532510520F442300A
S113414010F00C94A720FB011082CB010895BB272B
S11341504A3031F4992322F4BDE2909581959F4F22
S11341600C94BB207AE0979F902D879F802D910D12
S113417011240895BB27FB015527AA27880F991FEF
S1134180AA1FA41710F0A41B83955051B9F7A05D82
S1134190AA3308F0A95DA193009779F7B111B193FF
S11341A01192CB010C940723A0E0B0E0EAEDF0E219
S11341B00C94C123AE014B5F5F4FFA016191719181
S11341C0AF0180911B0290911C020E941021E2E039
S11341D00C94DD23A0E0B0E0E0EFF0E20C94BF2308
S11341E0AE01495F5F4FDA016D917D91AD0109E147
S11341F012E0F80182819381DC0113962C911397CC
S1134200286013962C930E941021D8011296ED91E8
S1134210FC9113972381277F2383E4E00C94DB2311
S1134220ABE0B0E0E6E1F1E20C94B1236C017B0178
S11342308A01FC0117821682838181FFCCC1CE01E1
S113424001963C01F6019381F70193FD859193FF5B
S113425081917F01882309F4BAC1853239F493FD31
S1134260859193FF81917F01853229F4B60190E015
S11342700E941723E7CF912C212C312CFFE1F31559
S1134280D8F08B3279F038F4803279F08332A1F4AB
S1134290232D20611DC08D3261F0803369F4232DFC
S11342A0216016C0832D8260382EE32DE4603E2EFB
S11342B02AC0F32DF8601DC037FC2DC020ED280F57
S11342C02A3040F08E32B9F436FC81C1232D2064AB
S11342D0322E19C036FE06C08AE0989E200D1124A5
S11342E0922E11C0EAE02E9E200D1124222EF32DD1
S11342F0F0623F2E08C08C3621F4832D8068382E5E
S113430002C0883641F4F70193FD859193FF8191B2
S11343107F018111B3CF982F9F7D9554933028F45A
S11343200C5F1F4F9FE399830DC0833631F08337B1
S113433071F0833509F059C021C0F8018081898367
S11343400E5F1F4F88248394912C530113C02801BE
S1134350F2E04F0E511CF801A080B18036FE03C07C
S1134360692D70E002C06FEF7FEFC5010E94FC224F
S11343704C018201F32DFF773F2E16C0280122E065
S1134380420E511CF801A080B18036FE03C0692D95
S113439070E002C06FEF7FEFC5010E94F1224C0173
S11343A0F32DF0683F2E820133FC1BC0822D90E078
S11343B088169906B0F4B60180E290E00E941723B3
S11343C02A94F4CFF50137FC859137FE81915F0182
S11343D0B60190E00E94172321102A9421E0821A4A
S11343E091088114910471F7E8C0843611F089367C
S11343F041F5F80137FE07C06081718182819381A4
S11344000C5F1F4F08C060817181072E000C880B60
S1134410990B0E5F1F4FF32DFF763F2E97FF09C0B8
S113442090958095709561957F4F8F4F9F4FF06861
S11344303F2E2AE030E0A3010E945323882E8618E1
S113444045C0853731F4232D2F7EB22E2AE030E08B
S113445025C0932D997FB92E8F36C1F018F4883575
S113446079F0B5C0803719F0883721F0B0C0E92F52
S1134470E061BE2EB4FE0DC0FB2DF460BF2E09C05A
S113448034FE0AC0292F2660B22E06C028E030E090
S113449005C020E130E002C020E132E0F801B7FEBF
S11344A007C060817181828193810C5F1F4F06C0B8
S11344B06081718180E090E00E5F1F4FA3010E9434
S11344C05323882E8618FB2DFF773F2E36FE0DC012
S11344D0232D2E7FA22E891458F434FE0BC032FCF7
S11344E009C0832D8E7EA82E05C0B82CA32C03C032
S11344F0B82C01C0B92CA4FE0FC0FE01E80DF11DBB
S11345008081803321F49A2D997EA92E09C0A2FEC0
S113451006C0B394B39404C08A2D867809F0B3948A
S1134520A3FC11C0A0FE06C0B21488F4280C922C7F
S11345309B180EC0B21460F4B60180E290E00E94B1
S11345401723B394F7CFB21418F42B1802C0982C85
S1134550212CA4FE10C0B60180E390E00E94172332
S1134560A2FE17C0A1FC03C088E790E002C088E562
S113457090E0B6010CC08A2D867859F0A1FE02C0E5
S11345808BE201C080E2A7FC8DE2B60190E00E94BC
S11345901723891438F4B60180E390E00E941723AE
S11345A09A94F7CF8A94F301E80DF11D8081B60146
S11345B090E00E9417238110F5CF222009F442CE07
S11345C0B60180E290E00E9417232A94F6CFF60108
S11345D08681978102C08FEF9FEF2B96E2E10C94C6
S11345E0CD23FC010590615070400110D8F78095EF
S11345F090958E0F9F1F0895FC01615070400190AB
S11346000110D8F7809590958E0F9F1F0895DC01B7
S1134610FC01672F71917723E1F7329704C07C91F5
S11346206D9370836291AE17BF07C8F308950F931B
S11346301F93CF93DF93FB01238121FD03C08FEFF1
S11346409FEF2CC022FF16C04681578124813581FB
S11346504217530744F4A081B1819D012F5F3F4F5E
S1134660318320838C93268137812F5F3F4F37839B
S1134670268314C08B01EC01FB010084F185E02D3D
S11346800995892BE1F6D80116968D919C9117977F
S1134690019617969C938E931697CE01DF91CF9136
S11346A01F910F910895FA01AA27283051F1203162
S11346B081F1E8946F936E7F6E5F7F4F8F4F9F4FB2
S11346C0AF4FB1E03ED0B4E03CD0670F781F891FF4
S11346D09A1FA11D680F791F8A1F911DA11D6A0FC2
S11346E0711D811D911DA11D20D009F468943F9175
S11346F02AE0269F11243019305D3193DEF6CF0174
S11347000895462F4770405D4193B3E00FD0C9F739
S1134710F6CF462F4F70405D4A3318F0495D31FDA6
S11347204052419302D0A9F7EACFB4E0A6959795F9
S1134730879577956795BA95C9F7009761057105CF
S113474008959B01AC010A2E069457954795379519
S11347502795BA95C9F7620F731F841F951FA01D73
S113476008952F923F924F925F926F927F928F9211
S11347709F92AF92BF92CF92DF92EF92FF920F93EC
S11347801F93CF93DF93CDB7DEB7CA1BDB0B0FB6F6
S1134790F894DEBF0FBECDBF09942A8839884888B3
S11347A05F846E847D848C849B84AA84B984C88449
S11347B0DF80EE80FD800C811B81AA81B981CE0F40
S11347C0D11D0FB6F894DEBF0FBECDBFED01089525
S10747D0F894FFCF87
S11347D4060000084000000000000000000004017E
S11347E40430002030004000E100000600001800FE
S11347F40000000F000F0000000000030000000090
S113480400000F000F00A0860100AA0200000F00A0
S113481400000200000000C30800000000D00700EC
S113482400D007000031303030000033000433007E
S1134834083300103000103300203300403300806C
S11348443132333435363738392A30233900023992
S113485400043900083900103900203900403900B7
S11348648004000000000000000400024552524F7E
S113487452000000000057656C636F6D652041446D
S11348844D494E203A2C2573200A0A0077656C633F
S11348946F6D65004E4F54205245414459002569BB
S11348A40043757272656E74202062616C616E637C
S11348B465206973203A202569200A0053656C65D4
S11348C4637420436F6D6D616E6400312E5472798C
S11348D4202020322E4578697400596F7520507257
S11348E465737365640036003600040836003600C8
S10548F40102BB
S9030000FC
