S01500005061796D656E7453797374656D2E73726563AC
S11300000C944C190C94D62C0C94FD2C0C94242D8B
S11300100C9469190C9469190C9469190C94691954
S11300200C9469190C94721B0C9469190C94691939
S11300300C9469190C9469190C9469190C94691934
S11300400C94862D0C9469190C9469190C946919F3
S11300500C946919652268226B226E227122A222F5
S1130060E822EB22200A002A2A2A2A2A2A2A2A2AD1
S11300702A2A2A2A2A2A2A2A2A2A2A2A2A2A2A2ADC
S11300802A2A2A2A2A2A2A2A2A2A2A2A2A2A2A2ACC
S11300902A2A2A2A2A2A2A2A2A2A2A0A002A2A2A06
S11300A02A2A2A2A2A2A2A2A2A2A2A2A2A2A2A2AAC
S11300B02A2A2A2A2A2077656C636F6D65202A2AEA
S11300C02A2A2A2A2A2A2A2A2A2A2A2A2A2A2A2A8C
S11300D02A0A002A2A2A2A2A2A2A2A2A2A2A2A2AC6
S11300E02A2A2A2A2A2A2A2A2A2A2A2A2A2A2A2A6C
S11300F02A2A2A2A2A2A2A2A2A2A2A2A2A2A2A2A5C
S11301002A2A2A2A2A2A2A0A00200A002A2A2A2AE9
S11301102A2A2A2A2A2A2A2A2A2A2A2A2A2A2A2A3B
S11301202A2A2A2A2A2A2A2A2A2A2A2A2A2A2A2A2B
S11301302A2A2A2A2A2A2A2A2A2A2A2A2A2A2A2A1B
S11301400A00202A2A2A2A2A2A2A2A2A2A2A2A2A5F
S11301502A2A2A0A002A2A2A2A2A2A2A2A2A2A2A45
S11301602A2A2A2A2A2A2A202000202A2A2A2A2A33
S11301702A2A2A2A2A2A2A2A2A2A2A2A2A0A002A25
S11301802A2A2A2A2A2A2A2A2A2A2A2A2A2A2A2ACB
S11301902020002A2A2A2A2A2A2A2A2A2A2A2A2AF9
S11301A02A2A2A2A2A2A2A2A2A2A2A2A2A2A2A2AAB
S11301B02A2A2A2A2A2A2A2A2A2A2A2A2A2A2A2A9B
S11301C02A2A2A2A2A2A2A0A00200A002A2A2A2A29
S11301D02A2A2A2A2A2A2A2A2A2A2A2A2A2A2A2A7B
S11301E02A2A2A2A2A2A2A2A2A2A2A2A2A2A2A2A6B
S11301F02A2A2A2A2A2A2A2A2A2A2A2A2A2A2A2A5B
S11302000A002A2A2A2A2A2A2A2A2A2A20537769E9
S1130210746368696E6720746F204F50455241546F
S1130220494F4E206D6F6465202A2A2A2A2A2A2AD9
S11302302A2A2A2A2A2A0A002A2A2A2A2A2A2A2A64
S11302402A2A2A2A2A2A2A2A2A2A2A2A2A2A2A2A0A
S11302502A2A2A2A2A2A2A2A2A2A2A2A2A2A2A2AFA
S11302602A2A2A2A2A2A2A2A2A2A2A2A0A00200A5E
S1130270002A2A2A2A2A2A2A2A2A2A2A2A2A2A2A04
S11302802A2A2A2A2A2A2A2A2A2A2A2A2A2A2A2ACA
S11302902A2A2A2A2A2A2A2A2A2A2A2A2A2A2A2ABA
S11302A02A2A2A2A2A0A002A2A2A2A2A2A2A2A20FE
S11302B0537769746368696E6720746F2070726F16
S11302C06772616D6D696E67206D6F646520202AA9
S11302D02A2A2A2A2A2A2A2A2A2A0A002A2A2A2AC4
S11302E02A2A2A2A2A2A2A2A2A2A2A2A2A2A2A2A6A
S11302F02A2A2A2A2A2A2A2A2A2A2A2A2A2A2A2A5A
S11303002A2A2A2A2A2A2A2A2A2A2A2A2A2A2A2A49
S11303100A00200A002A2A2A2A2A2A2A2A2A2A2AD7
S11303202A2A2A2A2A2A2A2A2A2A2A2A2A2A2A2A29
S11303302A2A2A2A2A2A2A2A2A2A2A2A2A2A2A2A19
S11303402A2A2A2A2A2A2A2A2A0A002A2A2A2A2A53
S11303502A2A2A2A2A2A2A2A2A2A2A2A2057726F49
S11303606E672050617373776F726420212121209E
S11303702A2A2A2A2A2A2A2A2A2A2A2A2A2A2A0AF9
S1130380002A2A2A2A2A2A2A2A2A2A2A2A2A2A2AF3
S11303902A2A2A2A2A2A2A2A2A2A2A2A2A2A2A2AB9
S11303A02A2A2A2A2A2A2A2A2A2A2A2A2A2A2A2AA9
S11303B02A2A2A2A2A0A00200A002A2A2A2A2A2A37
S11303C02A2A2A2A2A2A2A2A2A2A2A2A2A2A2A2A89
S11303D02A2A2A2A2A2A2A2A2A2A2A2A2A2A2A2A79
S11303E02A2A2A2A2A2A2A2A2A2A2A2A2A2A0A00B3
S11303F02A2A2A2A2A2A2A2A2A2A2A20456E74657F
S11304007220596F75722050617373776F72642014
S11304103A20202A2A2A2A2A2A2A2A2A2A2A2A2A3C
S11304202A2A2A2A0A002A2A2A2A2A2A2A2A2A2A72
S11304302A2A2A2A2A2A2A2A2A2A2A2A2A2A2A2A18
S11304402A2A2A2A2A2A2A2A2A2A2A2A2A2A2A2A08
S11304502A2A2A2A2A2A2A2A2A2A0A00200A002A96
S11304602A2A2A2A2A2A2A2A2A2A2A2A2A2A2A2AE8
S11304702A2A2A2A2A2A2A2A2A2A2A2A2A2A2A2AD8
S11304802A2A2A2A2A2A2A2A2A2A2A2A2A2A2A2AC8
S11304902A2A2A0A002A2A2A2A2A2A2A2A2A2A2A02
S11304A02A2A2A2A20506C656173652043616C6C8A
S11304B02058585858202A2A2A2A2A2A2A2A2A2AF4
S11304C02A2A2A2A2A2A2A2A2A0A002A2A2A2A2AD2
S11304D02A2A2A2A2A2A2A2A2A2A20202020204C88
S11304E04F434B4544202020202020202A2A2A2A1A
S11304F02A2A2A2A2A2A2A2A2A2A2A2A2A2A2A0A78
S1130500002A2A2A2A2A2A2A2A2A2A2A2A2A2A2A71
S11305102A2A2A2A2A2A2A2A2A2A2A2A2A2A2A2A37
S11305202A2A2A2A2A2A2A2A2A2A2A2A2A2A2A2A27
S11305302A2A2A2A2A0A002A2A2A2A2A2A2A2A2A61
S11305402A2A2A2A2A2A2A2A2A2A2A2A2A2A2A2A07
S11305502A2A2A2A2A2A2A2A2A2A2A2A2A2A2A2AF7
S11305602A2A2A2A2A2A2A2A2A2A2A0A00202A2A3B
S11305702A2A2A2A2A2A2A2A2A2A2A2A2A200A002B
S11305802A2A2A2A2A2A2A2A2A2A2A2A2A2A2A2AC7
S11305902A202000202A2A2A2A2A2A2A2A2A2A2AFF
S11305A02A2A2A2A0A002A2A2A2A2A2A2A2A2A2AF1
S11305B02A2A2A2A2A2A2A2020002A2A2A2A2A2AD5
S11305C02A2A2A2A2A2A2A2A2A2A2A2A2A2A2A2A87
S11305D02A2A2A2A2A2A2A2A2A2A2A2A2A2A2A2A77
S11305E02A2A2A2A2A2A2A2A2A2A2A2A2A2A0A00B1
S11305F0200A002A2A2A2A2A2A2A2A2A2A2A2A2AAB
S11306002A2A2A2A2A2A2A2A2A2A2A2A2A2A2A2A46
S11306102A2A2A2A2A2A2A2A2A2A2A2A2A2A2A2A36
S11306202A2A2A0A002A2A2A2A2A2A2A2A2A2A2A70
S11306302A2A2A2A2A2A2A20204E4F542052454167
S11306404459202A2A2A2A2A2A2A2A2A2A2A2A2AC7
S11306502A2A2A2A2A0A002A2A2A2A2A2A2A2A2A40
S11306602A2A2A2A2A2A2A2A2A20202020434152B6
S113067044202020202A2A2A2A2A2A2A2A2A2A2AE4
S11306802A2A2A2A2A2A2A0A002A2A2A2A2A2A2A10
S11306902A2A2A2A2A2A2A2A2A2A2A2A2A2A2A2AB6
S11306A02A2A2A2A2A2A2A2A2A2A2A2A2A2A2A2AA6
S11306B02A2A2A2A2A2A2A2A2A0A00200A002A2A34
S11306C02A2A2A2A2A2A2A2A2A2A2A2A2A2A2A2A86
S11306D02A2A2A2A2A2A2A2A2A2A2A2A2A2A2A2A76
S11306E02A2A2A2A2A2A2A2A2A2A2A2A2A2A2A2A66
S11306F02A2A0A002A2A2A2A2A2A2A2A2A2A2A2AA0
S11307002A2A2A2A2A2A2A2A2A2A2A2A20546861B0
S11307106E6B20596F75202A2A2A2A2A2A2A2A2A05
S11307202A2A2A2A2A2A2A2A0A002A2A2A2A2A2A6F
S11307302A2A2A2A2A2A2A2A2A2A2A2A2A2A2A2A15
S11307402A2A2A2A2A2A2A2A2A2A2A2A2A2A2A2A05
S11307502A2A2A2A2A2A2A2A2A2A2A2A2A2A0A003F
S11307602A2A2A2A2A2A2A2A2A2A2A2A2A2A2A2AE5
S11307702A2A2A2A2A2A2A2A2A2A2A2A2A2A2A2AD5
S11307802A2A2A2A2A2A2A2A2A2A2A2A2A2A2A2AC5
S11307902A2A2A2A2A2A2A2A2A2A2A2A2A2A2A2AB5
S11307A02A2A2A2A2A2A2A2A2A2A2A2A2A2A2A2AA5
S11307B02A2A2A2A2A2A2A2A2A2A2A0A002A2A2ADF
S11307C02A2A2A2A2A2A2A2A2A2A2A2A2A2A2A2A85
S11307D02A2A2A2A2A2A2A2A2A2A2A2A2A2A2A2A75
S11307E02A2057726F6E6720436F6D6D616E6420AF
S11307F02020202121212A2A2A2A2A2A2A2A2A2A8E
S11308002A2A2A2A2A2A2A2A2A2A2A2A2A2A2A2A44
S11308102A2A2A2A2A2A2A2A0A002A2A2A2A2A2A7E
S11308202A2A2A2A2A2A2A2A2A2A2A2A2A2A2A2A24
S11308302A2A2A2A2A2A2A2A2A2A2A2A2A2A2A2A14
S11308402A2A2A2A2A2A2A2A2A2A2A2A2A2A2A2A04
S11308502A2A2A2A2A2A2A2A2A2A2A2A2A2A2A2AF4
S11308602A2A2A2A2A2A2A2A2A2A2A2A2A2A2A2AE4
S11308702A2A2A2A2A0A000A002A2A2A2A2A2A2A68
S11308802A2A2A2A2A2A2A2A2A2A2A2A2A2A2A2AC4
S11308902A2A2A2A2A2A2A2A2A2A2A2A2A2A2A2AB4
S11308A02A2A2A2A2A2A2A2A2A2A2A2A2A2A2A2AA4
S11308B02A2A2A2A2A2A2A2A2A2A2A2A2A2A2A2A94
S11308C02A2A2A2A2A2A2A2A2A2A2A2A2A2A2A2A84
S11308D02A2A2A2A0A002A2A2A2A2A2A2A2A2A2ABE
S11308E02A2A2A2A2A2A2A2A2A2A2A2A2A2A2A2A64
S11308F02A2A2A2A2A2A2A2A2A2A20454E44204FEA
S1130900462053454C454354494F4E202121212A2A
S11309102A2A2A2A2A2A2A2A2A2A2A2A2A2A2A2A33
S11309202A2A2A2A2A2A2A2A2A2A2A2A2A2A2A2A23
S11309302A0A002A2A2A2A2A2A2A2A2A2A2A2A2A5D
S11309402A2A2A2A2A2A2A2A2A2A2A2A2A2A2A2A03
S11309502A2A2A2A2A2A2A2A2A2A2A2A2A2A2A2AF3
S11309602A2A2A2A2A2A2A2A2A2A2A2A2A2A2A2AE3
S11309702A2A2A2A2A2A2A2A2A2A2A2A2A2A2A2AD3
S11309802A2A2A2A2A2A2A2A2A2A2A2A2A2A0A000D
S11309902A2A2A2A2A2A2A2A2A2A2A2A2A2A2A2AB3
S11309A02A2A2A2A2A2A2A2A20322D2045786974BA
S11309B0202A2A2A2A2A2A2A2A2A2A2A2A2A2A2A9D
S11309C02A2A2A2A2A2A2A2A2A2A2A2A2A2A2A2A83
S11309D02A2A2A2A2A2A2A2A2A2A2A2A2A2A2A2A73
S11309E02A2A2A2A2A2A2A2A2A2A2A0A002A2A2AAD
S11309F02A2A2A2A2A2A2A2A2A2A2A2A2A2A2A2A53
S1130A002A2A2A2A2A20312D2054727920616E6FD5
S1130A1074686572205472616E73616374696F6E79
S1130A2020202A2A2A2A2A2A2A2A2A2A2A2A2A2A36
S1130A302A2A2A2A2A2A2A2A2A2A2A2A2A2A2A2A12
S1130A402A2A2A2A2A2A2A2A0A002A2A2A2A2A2A4C
S1130A502A2A2A2A2A2A2A2A2A2A2A2A2A2A2A2AF2
S1130A602A2A2A2A2A2A2A2A2A2A2A2A2A2A2A2AE2
S1130A702A2A2A2A2A2A2A2A2A2A2A2A2A2A2A2AD2
S1130A802A2A2A2A2A2A2A2A2A2A2A2A2A2A2A2AC2
S1130A902A2A2A2A2A2A2A2A2A2A2A2A2A2A2A2AB2
S1130AA02A2A2A2A2A0A002A2A2A2A2A2A2A2A2AEC
S1130AB02A2A2A2A2A2A2A2A2A2A2A2A2A2A205076
S1130AC06C656173652043686F6F7365206F6E6535
S1130AD0206F662074686520666F6C6C6F77696E32
S1130AE06720436F6D6D616E6473202A2A2A2A2A57
S1130AF02A2A2A2A2A2A2A2A2A2A2A2A2A2A2A2A52
S1130B002A2A0A002A2A2A2A2A2A2A2A2A2A2A2A8B
S1130B102A2A2A2A2A2A2A2A2A2A2A2A2A2A2A2A31
S1130B202A2A2A2A2A2A2A2A2A2A2A2A2A2A2A2A21
S1130B302A2A2A2A2A2A2A2A2A2A2A2A2A2A2A2A11
S1130B402A2A2A2A2A2A2A2A2A2A2A2A2A2A2A2A01
S1130B502A2A2A2A2A2A2A2A2A2A2A2A2A2A2A0A11
S1130B6000200A002A2A2A2A2A2A2A2A2A2A2A2A5F
S1130B702A2A2A2A2A2A2A2A2A2A2A2A2A2A2A2AD1
S1130B802A2A2A2A2A2A2A2A2A2A2A2A2A2A2A2AC1
S1130B902A2A2A2A2A2A2A2A0A00202A2A2A2A2A05
S1130BA02A2A2A2A2A2A2A2A2A2A200A002A2A2AF5
S1130BB02A2A2A2A2A2A2A2A2A2A2A2A2A2A2020A5
S1130BC000202A2A2A2A2A2A2A2A2A2A2A2A2A2AB5
S1130BD02A0A002A2A2A2A2A2A2A2A2A2A2A2A2ABB
S1130BE02A2A2A2A2020002A2A2A2A2A2A2A2A2A9F
S1130BF02A2A2A2A2A2A2A2A2A2A2A2A2A2A2A2A51
S1130C002A2A2A2A2A2A2A2A2A2A2A2A2A2A2A2A40
S1130C102A2A2A2A2A2A2A2A2A2A2A0A00200A00CE
S1130C202A2A2A2A2A2A2A2A2A2A2A2A2A2A2A2A20
S1130C302A2A2A2A2A2A2A2A2A2A2A2A2A2A2A2A10
S1130C402A2A2A2A2A2A2A2A2A2A2A2A2A2A2A2A00
S1130C502A2A2A2A0A00202A2A2A2A2A2A2A2A2A44
S1130C602A2A2A2A2A2A2A0A002A2A2A2A2A2A2A2A
S1130C702A2A2A2A2A2A2A2A2A2A2020002A2A2A0E
S1130C802A2A2A2A2A2A2A2A2A2A2A2A2A2A2A2AC0
S1130C902A2A2A2A2A2A2A2A2A2A2A2A2A2A2A2AB0
S1130CA02A2A2A2A2A2A2A2A2A2A2A2A2A2A2A2AA0
S1130CB02A0A00200A002A2A2A2A2A2A2A2A2A2A2E
S1130CC02A2A2A2A2A2A2A2A2A2A2A2A2A2A2A2A80
S1130CD02A2A2A2A2A2A2A2A2A2A2A2A2A2A2A2A70
S1130CE02A2A2A2A2A2A2A2A2A2A0A00202A2A2AB4
S1130CF02A2A2A2A2A2A2A2A2A2A2A2A2A200A00A4
S1130D002A2A2A2A2A2A2A2A2A2A2A2A2A2A2A2A3F
S1130D102A202000202A2A2A2A2A2A2A2A2A2A2A77
S1130D202A2A2A2A2A0A002A2A2A2A2A2A2A2A2A69
S1130D302A2A2A2A2A2A2A2A2020002A2A2A2A2A4D
S1130D402A2A2A2A2A2A2A2A2A2A2A2A2A2A2A2AFF
S1130D502A2A2A2A2A2A2A2A2A2A2A2A2A2A2A2AEF
S1130D602A2A2A2A2A2A2A2A2A2A2A2A2A2A2A0AFF
S1130D7000200A002A2A2A2A2A2A2A2A2A2A2A2A4D
S1130D802A2A2A2A2A2A2A2A2A2A2A2A2A2A2A2ABF
S1130D902A2A2A2A2A2A2A2A2A2A2A2A2A2A2A2AAF
S1130DA02A2A2A2A0A002A2A2A2A2A2A2A2A2A2AE9
S1130DB02A2A2A204E6F742065786973742043614F
S1130DC07264204461746120202A2A2A2A2A2A2A49
S1130DD02A2A2A2A2A2A0A002A2A2A2A2A2A2A2AB9
S1130DE02A2A2A2A2A2A2A2A2A2A2A2A2A2A2A2A5F
S1130DF02A2A2A2A2A2A2A2A2A2A2A2A2A2A2A2A4F
S1130E002A2A2A2A2A2A2A2A0A00200A002A2A2ADC
S1130E102A2A2A2A2A2A2A2A2A2A2A2A2A2A2A2A2E
S1130E202A2A2A2A2A2A2A2A2A2A2A2A2A2A2A2A1E
S1130E302A2A2A2A2A2A2A2A2A2A2A0A002A2A2A58
S1130E402A2A2A2A2A2A2A2A2A20546869732063E9
S1130E50617264204973204578697374202A2A2AB0
S1130E602A2A2A2A2A2A2A2A2A2A2A0A002A2A2A28
S1130E702A2A2A2A2A2A2A2A2A2A2A2A2A2A2A2ACE
S1130E802A2A2A2A2A2A2A2A2A2A2A2A2A2A2A2ABE
S1130E902A2A2A2A2A2A2A2A2A2A2A0A00200A004C
S1130EA02A2A2A2A2A2A2A2A2A2A2A2A2A2A2A2A9E
S1130EB02A2A2A2A2A2A2A2A2A2A2A2A2A2A2A2A8E
S1130EC02A2A2A2A2A2A2A2A2A2A2A2A2A2A2A2A7E
S1130ED02A2A2A2A0A00202A2A2A2A2A2A2A2A2AC2
S1130EE02A2A2A2A2A2A2A0A002A2A2A2A2A2A2AA8
S1130EF02A2A2A2A2A2A2A2A2A2A202000202A2A96
S1130F002A2A2A2A2A2A2A2A2A2A2A2A2A0A002A87
S1130F102A2A2A2A2A2A2A2A2A2A2A2A2A2A2A2A2D
S1130F202020002A2A2A2A2A2A2A2A2A2A2A2A2A5B
S1130F302A2A2A2A2A2A2A2A2A2A2A2A2A2A2A2A0D
S1130F402A2A2A2A2A2A2A2A2A2A2A2A2A2A2A2AFD
S1130F502A2A2A2A2A2A2A0A00200A002A2A2A2A8B
S1130F602A2A2A2A2A2A2A2A2A2A2A2A2A2A2A2ADD
S1130F702A2A2A2A2A2A2A2A2A2A2A2A2A2A2A2ACD
S1130F802A2A2A2A2A2A2A2A2A2A2A2A2A2A2A2ABD
S1130F900A00202A2A2A2A2A2A2A2A2A2A2A2A2A01
S1130FA02A2A0A002A2A2A2A2A2A2A2A2A2A2A2AE7
S1130FB02A2A2A2A2A202000202A2A2A2A2A2A2AD5
S1130FC02A2A2A2A2A2A2A2A2A0A002A2A2A2A2AC7
S1130FD02A2A2A2A2A2A2A2A2A2A2A2A2020002AAB
S1130FE02A2A2A2A2A2A2A2A2A2A2A2A2A2A2A2A5D
S1130FF02A2A2A2A2A2A2A2A2A2A2A2A2A2A2A2A4D
S11310002A2A2A2A2A2A2A2A2A2A2A2A2A2A2A2A3C
S11310102A2A2A0A00200A002A2A2A2A2A2A2A2ACA
S11310202A2A2A2A2A2A2A2A2A2A2A2A2A2A2A2A1C
S11310302A2A2A2A2A2A2A2A2A2A2A2A2A2A2A2A0C
S11310402A2A2A2A2A2A2A2A0A002A2A2A2A2A2A46
S11310502A2A2A2A2A2A2A204E6F7420657869733C
S1131060742043617264204461746120202A2A2A16
S11310702A2A2A2A2A2A2A2A2A2A0A002A2A2A2A16
S11310802A2A2A2A2A2A2A2A2A2A2A2A2A2A2A2ABC
S11310902A2A2A2A2A2A2A2A2A2A2A2A2A2A2A2AAC
S11310A02A2A2A2A2A2A2A2A2A2A2A2A0A00200A10
S11310B0002A2A2A2A2A2A2A2A2A2A2A2A2A2A2AB6
S11310C02A2A2A2A2A2A2A2A2A2A2A2A2A2A2A2A7C
S11310D02A2A2A2A2A2A2A2A2A2A2A2A2A2A2A0A8C
S11310E0002A2A2A2A2A2A2A2A2A2A2A2A20546828
S11310F0697320636172642049732045786973744D
S1131100202A2A2A2A2A2A2A2A2A2A2A2A2A2A0A65
S1131110002A2A2A2A2A2A2A2A2A2A2A2A2A2A2A55
S11311202A2A2A2A2A2A2A2A2A2A2A2A2A2A2A2A1B
S11311302A2A2A2A2A2A2A2A2A2A2A2A2A2A2A0A2B
S113114000200A002A2A2A2A2A2A2A2A2A2A2A2A79
S11311502A2A2A2A2A2A2A2A2A2A2A2A2A2A2A2AEB
S11311602A2A2A2A2A2A2A2A2A2A2A2A2A2A2A2ADB
S11311702A2A2A2A2A0A002A2A2A2A2A2A2A2A2A15
S11311802A2A2A2A20506C6561736520656E74656D
S11311907220436172642050414E202A2A2A2A2A4E
S11311A02A2A2A2A2A2A2A2A0A002A2A2A2A2A2AE5
S11311B02A2A2A2A2A2A2A2A2A2A2A2A2A2A2A2A8B
S11311C02A2A2A2A2A2A2A2A2A2A2A2A2A2A2A2A7B
S11311D02A2A2A2A2A2A2A2A2A2A2A0A00200A0009
S11311E02A2A2A2A2A2A2A2A2A2A2A2A2A2A2A2A5B
S11311F02A2A2A2A2A2A2A2A2A2A2A2A2A2A2A2A4B
S11312002A2A2A2A2A2A2A2A2A2A2A2A2A2A2A2A3A
S11312102A0A002A2A2A2A2A2A2A2A2A2A2A2A207E
S11312204E6F74206578697374204361726420443E
S1131230617461203A202A2A2A2A2A2A2A2A2A2A56
S11312402A2A2A2A0A002A2A2A2A2A2A2A2A2A2A44
S11312502A2A2A2A2A2A2A2A2A2A2A2A2A2A2A2AEA
S11312602A2A2A2A2A2A2A2A2A2A2A2A2A2A2A2ADA
S11312702A2A2A2A2A2A2A0A00200A002A2A2A2A68
S11312802A2A2A2A2A2A2A2A2A2A2A2A2A2A2A2ABA
S11312902A2A2A2A2A2A2A2A2A2A2A2A2A2A2A2AAA
S11312A02A2A2A2A2A2A2A2A2A2A2A2A2A0A002AE4
S11312B02A2A2A2A2A2A205761697420556E7469B9
S11312C06C2072656D6F7665207468697320436164
S11312D072642044617461203A202A2A2A2A2A2A24
S11312E00A002A2A2A2A2A2A2A2A2A2A2A2A2A2AA4
S11312F02A2A2A2A2A2A2A2A2A2A2A2A2A2A2A2A4A
S11313002A2A2A2A2A2A2A2A2A2A2A2A2A2A2A2A39
S11313102A2A2A0A00200A002A2A2A2A2A2A2A2AC7
S11313202A2A2A2A2A2A2A2A2A2A2A2A2A2A2A2A19
S11313302A2A2A2A2A2A2A2A2A2A2A2A2A2A2A2A09
S11313402A2A2A2A2A2A2A2A2A0A002A2A2A2A2A43
S11313502A2A2A2A20506C6561736520656E74659B
S11313607220436172642050414E20203A202A2A80
S11313702A2A2A2A2A2A2A2A2A2A2A2A0A002A2A13
S11313802A2A2A2A2A2A2A2A2A2A2A2A2A2A2A2AB9
S11313902A2A2A2A2A2A2A2A2A2A2A2A2A2A2A2AA9
S11313A02A2A2A2A2A2A2A2A2A2A2A2A2A2A2A0AB9
S11313B000200A002A2A2A2A2A2A2A2A2A2A2A2A07
S11313C02A2A2A2A2A2A2A2A2A2A2A2A2A2A2A2A79
S11313D02A2A2A2A2A2A2A2A2A2A2A2A2A2A2A2A69
S11313E02A2A2A2A2A0A002A2A2A2A2A2A2A2A2AA3
S11313F02074686973206361726420616C72656132
S1131400647920657869737420212121202A2A2A8D
S11314102A2A2A2A2A2A2A2A0A002A2A2A2A2A2A72
S11314202A2A2A2A2A2A2A2A2A2A2A2A2A2A2A2A18
S11314302A2A2A2A2A2A2A2A2A2A2A2A2A2A2A2A08
S11314402A2A2A2A2A2A2A2A2A2A2A0A00200A0096
S11314502A2A2A2A2A2A2A2A2A2A2A2A2A2A2A2AE8
S11314602A2A2A2A2A2A2A2A2A2A2A2A2A2A2A2AD8
S11314702A2A2A2A2A2A2A2A2A2A2A2A2A2A2A2AC8
S11314802A0A002A2A2A2A2A2A2A2A205468657221
S113149065206973206E6F20656E6F7567682073B1
S11314A07061636520212121202A2A2A2A2A2A2AD6
S11314B02A2A2A2A0A002A2A2A2A2A2A2A2A2A2AD2
S11314C02A2A2A2A2A2A2A2A2A2A2A2A2A2A2A2A78
S11314D02A2A2A2A2A2A2A2A2A2A2A2A2A2A2A2A68
S11314E02A2A2A2A2A2A2A0A00200A002A2A2A2AF6
S11314F02A2A2A2A2A2A2A2A2A2A2A2A2A2A2A2A48
S11315002A2A2A2A2A2A2A2A2A2A2A2A2A2A2A2A37
S11315102A2A2A2A2A2A2A2A2A2A2A2A2A0A002A71
S11315202A2A2A2A2A2047726561742061206E655E
S11315307720436172642061646465642073756319
S11315406365737366756C6C79202A2A2A2A2A2AA1
S11315500A002A2A2A2A2A2A2A2A2A2A2A2A2A2A31
S11315602A2A2A2A2A2A2A2A2A2A2A2A2A2A2A2AD7
S11315702A2A2A2A2A2A2A2A2A2A2A2A2A2A2A2AC7
S11315802A2A2A0A000A002A2A2A2A2A2A2A2A2A4B
S11315902A2A2A2A2A2A2A2A2A2A2A2A2A2A2A2AA7
S11315A02A2A2A2A2A2A2A2A2A2A2A2A2A2A2A2A97
S11315B02A2A2A2A2A2A2A2A0A002A2A2A2A2A2AD1
S11315C02A20506C6561736520656E7465722043D2
S11315D061726420546F74616C2042616C616E634B
S11315E0652A2A2A2A2A2A2A2A2A2A0A002A2A2A66
S11315F02A2A2A2A2A2A2A2A2A2A2A2A2A2A2A2A47
S11316002A2A2A2A2A2A2A2A2A2A2A2A2A2A2A2A36
S11316102A2A2A2A2A2A2A2A2A2A2A2A2A2A0A0070
S1131620200A002A2A2A2A2A2A2A2A2A2A2A2A2A6A
S11316302A2A2A2A2A2A2A2A2A2A2A2A2A2A2A2A06
S11316402A2A2A2A2A2A2A2A2A2A2A2A2A2A2A2AF6
S11316502A2A2A2A0A002A2A2A2A2A2A2A2A2A2A30
S11316602A2A20506C6561736520656E746572204A
S1131670436172642050494E203A202A2A2A2A2A99
S11316802A2A2A2A2A2A2A0A002A2A2A2A2A2A2A00
S11316902A2A2A2A2A2A2A2A2A2A2A2A2A2A2A2AA6
S11316A02A2A2A2A2A2A2A2A2A2A2A2A2A2A2A2A96
S11316B02A2A2A2A2A2A2A2A2A2A0A00200A002A24
S11316C02A2A2A2A2A2A2A2A2A2A2A2A2A2A2A2A76
S11316D02A2A2A2A2A2A2A2A2A2A2A2A2A2A2A2A66
S11316E02A2A2A2A2A2A2A2A2A2A2A2A2A2A2A2A56
S11316F00A002A2A2A2A2A2A2A2A2A2A2A20506C32
S11317006561736520656E7465722043617264203F
S113171050414E20203A202A2A2A2A2A2A2A2A2AD2
S11317202A2A2A0A002A2A2A2A2A2A2A2A2A2A2A5F
S11317302A2A2A2A2A2A2A2A2A2A2A2A2A2A2A2A05
S11317402A2A2A2A2A2A2A2A2A2A2A2A2A2A2A2AF5
S11317502A2A2A2A2A2A0A00200A002A2A2A2A2A83
S11317602A2A2A2A2A2A2A2A2A2A2A2A2A2A2A2AD5
S11317702A2A2A2A2A2A2A2A2A2A2A2A2A2A2A2AC5
S11317802A2A2A2A2A2A2A2A2A2A2A2A0A002A2AFF
S11317902A2A2A2A2A20506C6561736520656E7492
S11317A06572204361726420486F6C646572204ED8
S11317B0616D65202A2A2A2A2A2A2A2A2A2A2A0AFA
S11317C0002A2A2A2A2A2A2A2A2A2A2A2A2A2A2A9F
S11317D02A2A2A2A2A2A2A2A2A2A2A2A2A2A2A2A65
S11317E02A2A2A2A2A2A2A2A2A2A2A2A2A2A2A2A55
S11317F02A2A0A000A00200A002A2A2A2A2A2A2A2D
S11318002A2A2A2A2A2A2A2A2A2A2A2A2A2A2A2A34
S11318102A2A2A2A2A2A2A2A2A2A2A2A2A2A2A2A24
S11318202A2A2A2A2A2A2A2A2A2A2A2A2A2A2A2A14
S11318302A2A2A2A2A2A2A2A2A2A2A2A2A2A2A2A04
S11318402A2A2A2A2A2A2A2A2A2A2A2A2A2A2A2AF4
S11318502A2A2A2A0A002A2A2A2A2A2A2A2A2A2A2E
S11318602A2A2A2A2A2A2A2A2A2A2A2A2A2A2A2AD4
S11318702A2A2A2A2A2A2A2A2A2A2A2A20454E4475
S1131880204F462053454C454354494F4E20212177
S1131890212A2A2A2A2A2A2A2A2A2A2A2A2A2A2AAD
S11318A02A2A2A2A2A2A2A2A2A2A2A2A2A2A2A2A94
S11318B02A0A002A2A2A2A2A2A2A2A2A2A2A2A2ACE
S11318C02A2A2A2A2A2A2A2A2A2A2A2A2A2A2A2A74
S11318D02A2A2A2A2A2A2A2A2A2A2A2A2A2A2A2A64
S11318E02A2A2A2A2A2A2A2A2A2A2A2A2A2A2A2A54
S11318F02A2A2A2A2A2A2A2A2A2A2A2A2A2A2A2A44
S11319002A2A2A2A2A2A2A2A2A2A2A2A2A2A0A007D
S11319102A2A2A2A2A2A2A2A2A2A2A2A2A2A2A2A23
S11319202A2A2A2A2A2A2A2A20382D204578697424
S11319302050726F6772616D6D696E67206D6F64A0
S113194065202A2A2A2A2A2A2A2A2A2A2A2A2A2AC2
S11319502A2A2A2A2A2A2A2A2A2A2A2A2A2A2A2AE3
S11319602A2A2A2A2A2A2A2A2A2A2A0A002A2A2A1D
S11319702A2A2A2A2A2A2A2A2A2A2A2A2A2A2A2AC3
S11319802A2A2A2A2A20372D2041646D696E204D87
S11319906F646966792044617461202A2A2A2A2A9C
S11319A02A2A2A2A2A2A2A2A2A2A2A2A2A2A2A2A93
S11319B02A2A2A2A2A2A2A2A2A2A2A2A2A2A2A2A83
S11319C02A2A2A2A2A2A2A2A0A002A2A2A2A2A2ABD
S11319D02A2A2A2A2A2A2A2A2A2A2A2A2A2A2A2A63
S11319E02A2A20362D20526573657420446174615F
S11319F02042617365202A2A2A2A2A2A2A2A2A2A84
S1131A002A2A2A2A2A2A2A2A2A2A2A2A2A2A2A2A32
S1131A102A2A2A2A2A2A2A2A2A2A2A2A2A2A2A2A22
S1131A202A2A2A2A2A0A002A2A2A2A2A2A2A2A2A5C
S1131A302A2A2A2A2A2A2A2A2A2A2A2A2A2A2A200C
S1131A40352D20546F74616C204E554D206F6620E7
S1131A5043757272656E74204341524473202A2A7E
S1131A602A2A2A2A2A2A2A2A2A2A2A2A2A2A2A2AD2
S1131A702A2A2A2A2A2A2A2A2A2A2A2A2A2A2A2AC2
S1131A802A2A0A002A2A2A2A2A2A2A2A2A2A2A2AFC
S1131A902A2A2A2A2A2A2A2A2A2A2A2A20342D20A9
S1131AA05365617263682057697468204361726486
S1131AB020486F6C646572204E616D65202A2A2A65
S1131AC02A2A2A2A2A2A2A2A2A2A2A2A2A2A2A2A72
S1131AD02A2A2A2A2A2A2A2A2A2A2A2A2A2A2A0A82
S1131AE0002A2A2A2A2A2A2A2A2A2A2A2A2A2A2A7C
S1131AF02A2A2A2A2A2A2A2A2A20332D20536561AF
S1131B0072636820466F722043617264205769745F
S1131B10682050414E202A2A2A2A2A2A2A2A2A2A96
S1131B202A2A2A2A2A2A2A2A2A2A2A2A2A2A2A2A11
S1131B302A2A2A2A2A2A2A2A2A2A2A2A0A002A2A4B
S1131B402A2A2A2A2A2A2A2A2A2A2A2A2A2A2A2AF1
S1131B502A2A2A2A2A2A20322D2052656D6F766578
S1131B6020436172642020202A2A2A2A2A2A2A2A27
S1131B702A2A2A2A2A2A2A2A2A2A2A2A2A2A2A2AC1
S1131B802A2A2A2A2A2A2A2A2A2A2A2A2A2A2A2AB1
S1131B902A2A2A2A2A2A2A2A2A0A002A2A2A2A2AEB
S1131BA02A2A2A2A2A2A2A2A2A2A2A2A2A2A2A2A91
S1131BB02A2A2A20312D2041646420436172640959
S1131BC0202A2A2A2A2A2A2A2A2A2A2A2A2A2A2A7B
S1131BD02A2A2A2A2A2A2A2A2A2A2A2A2A2A2A2A61
S1131BE02A2A2A2A2A2A2A2A2A2A2A2A2A2A2A2A51
S1131BF02A2A2A2A2A2A0A002A2A2A2A2A2A2A2A8B
S1131C002A2A2A2A2A2A2A2A2A2A2A2A2A2A2A2A30
S1131C102A2A2A2A2A2A2A2A2A2A2A2A2A2A2A2A20
S1131C202A2A2A2A2A2A2A2A2A2A2A2A2A2A2A2A10
S1131C302A2A2A2A2A2A2A2A2A2A2A2A2A2A2A2A00
S1131C402A2A2A2A2A2A2A2A2A2A2A2A2A2A2A2AF0
S1131C502A2A2A0A002A2A2A2A2A2A2A2A2A2A2A2A
S1131C602A2A2A2A2A2A2A2A2A2A2A2A20506C6537
S1131C706173652043686F6F7365206F6E65206FB5
S1131C80662074686520666F6C6C6F77696E672078
S1131C90436F6D6D616E6473202A2A2A2A2A2A2AC8
S1131CA02A2A2A2A2A2A2A2A2A2A2A2A2A2A2A2A90
S1131CB00A002A2A2A2A2A2A2A2A2A2A2A2A2A2ACA
S1131CC02A2A2A2A2A2A2A2A2A2A2A2A2A2A2A2A70
S1131CD02A2A2A2A2A2A2A2A2A2A2A2A2A2A2A2A60
S1131CE02A2A2A2A2A2A2A2A2A2A2A2A2A2A2A2A50
S1131CF02A2A2A2A2A2A2A2A2A2A2A2A2A2A2A2A40
S1131D002A2A2A2A2A2A2A2A2A2A2A2A2A0A002083
S1131D100A002A2A2A2A2A2A2A2A2A2A2A2A2A2A69
S1131D202A2A2A2A2A2A2A2A2A2A2A2A2A2A2A2A0F
S1131D302A2A2A2A2A2A2A2A2A2A2A2A2A2A2A2AFF
S1131D402A2A2A2A2A2A0A002A2A2A2A2A2A2A2A39
S1131D502057726F6E672063686F736520506C65DF
S1131D606173652054727920616761696E202A2A43
S1131D702A2A2A2A2A2A2A2A2A2A2A2A0A002A2A09
S1131D802A2A2A2A2A2A2A2A2A2A2A2A2A2A2A2AAF
S1131D902A2A2A2A2A2A2A2A2A2A2A2A2A2A2A2A9F
S1131DA02A2A2A2A2A2A2A2A2A2A2A2A2A2A2A2A8F
S1131DB02A2A0A00200A002A2A2A2A2A2A2A2A2A1D
S1131DC02A2A2A2A2A2A2A2A2A2A2A2A2A2A2A2A6F
S1131DD02A2A2A2A2A2A2A2A2A2A2A2A2A2A2A2A5F
S1131DE02A2A2A2A2A2A2A0A002A2A2A2A2A2A2A99
S1131DF02A2A2A2A2A2A2A2A2A2A2A202077616990
S1131E007420212121202A2A2A2A2A2A2A2A2A2A13
S1131E102A2A2A2A2A2A2A2A2A0A002A2A2A2A2A68
S1131E202A2A2A2A2A2A2A2A2A2A2A2A2A2A2A2A0E
S1131E302A2A2A2A2A2A2A2A2A2A2A2A2A2A2A2AFE
S1131E402A2A2A2A2A2A2A2A2A2A2A0A00200A008C
S1131E502A2A2A2A2A2A2A2A2A2A2A2A2A2A2A2ADE
S1131E602A2A2A2A2A2A2A2A2A2A2A2A2A2A2A2ACE
S1131E702A2A2A2A2A2A2A2A2A2A2A2A2A2A2A2ABE
S1131E802A2A2A2A2A2A0A002A2A2A2A2A20707274
S1131E906F626C656D2057697468204461746120B9
S1131EA0426173652043616C6C205365727669638B
S1131EB06520537570706F7274202A2A2A2A0A00CA
S1131EC02A2A2A2A2A2A2A2A2A2A2A2A2A2A2A2A6E
S1131ED02A2A2A2A2A2A2A2A2A2A2A2A2A2A2A2A5E
S1131EE02A2A2A2A2A2A2A2A2A2A2A2A2A2A2A2A4E
S1131EF02A2A2A2A2A2A0A00200A002A2A2A2A2ADC
S1131F002A2A2A2A2A2A2A2A2A2A2A2A2A2A2A2A2D
S1131F102A2A2A2A2A2A2A2A2A2A2A2A2A2A2A2A1D
S1131F202A2A2A2A2A2A2A2A2A2A2A2A2A2A2A0A2D
S1131F30002A2A2A2A2A2A2A2A2A2A2A2A2A20203B
S1131F4044656C6574656420737563636573736657
S1131F50756C6C7920202A2A2A2A2A2A2A2A2A2AD3
S1131F602A2A2A2A2A0A002A2A2A2A2A2A2A2A2A17
S1131F702A2A2A2A2A2A2A2A2A2A2A2A2A2A2A2ABD
S1131F802A2A2A2A2A2A2A2A2A2A2A2A2A2A2A2AAD
S1131F902A2A2A2A2A2A2A2A2A2A2A0A00200A003B
S1131FA02A2A2A2A2A2A2A2A2A2A2A2A2A2A2A2A8D
S1131FB02A2A2A2A2A2A2A2A2A2A2A2A2A2A2A2A7D
S1131FC02A2A2A2A2A2A2A2A2A2A2A2A2A2A2A2A6D
S1131FD02A2A2A2A0A002A2A2A2A2A2A2A2A2A2AA7
S1131FE02A200A002A2A2A2A2A20546865204E75A3
S1131FF06D626572206F6620496E7374616C6C65E6
S113200064204361726473206973203A002A2A2A87
S11320102A2A2A2A2A2A2A2A2A2A2A2A2A2A2A2A1C
S11320202A2A2A2A2A2A2A2A2A2A2A2A2A2A2A2A0C
S11320302A2A2A2A2A2A2A2A2A2A2A2A2A2A2A2AFC
S11320402A0A00200A002A2A2A2A2A2A2A2A2A2A8A
S11320502A2A2A2A2A2A2A2A2A2A2A2A2A2A2A2ADC
S11320602A2A2A2A2A2A2A2A2A2A2A2A2A2A2A2ACC
S11320702A2A2A2A2A2A2A2A2A2A0A00202A2A2A10
S11320802A2A2A2A2A2A2A2A2A2A2A2A2A0A002AF6
S11320902A2A2A2A2A2A2A2A2A2A2A2A2A2A2A2A9C
S11320A02020002A2A2A2A2A2A2A2A2A2A2A2A2ACA
S11320B02A2A2A2A2A2A2A2A2A2A2A2A2A2A2A2A7C
S11320C02A2A2A2A2A2A2A2A2A2A2A2A2A2A2A2A6C
S11320D02A2A2A2A2A2A2A0A00200A002A2A2A2AFA
S11320E02A2A2A2A2A2A2A2A2A2A2A2A2A2A2A2A4C
S11320F02A2A2A2A2A2A2A2A2A2A2A2A2A2A2A2A3C
S11321002A2A2A2A2A2A2A2A2A2A2A2A2A2A2A2A2B
S11321100A00202A2A2A2A2A2A2A2A2A2A2A2A2A6F
S11321202A2A0A002A2A2A2A2A2A2A2A2A2A2A2A55
S11321302A2A2A2A2000202A2A2A2A2A2A2A2A2A39
S11321402A2A2A2A2A2A2A0A002A2A2A2A2A2A2A35
S11321502A2A2A2A2A2A2A2A2A2A2020002A2A2A19
S11321602A2A2A2A2A2A2A2A2A2A2A2A2A2A2A2ACB
S11321702A2A2A2A2A2A2A2A2A2A2A2A2A2A2A2ABB
S11321802A2A2A2A2A2A2A2A2A2A2A2A2A2A2A2AAB
S11321902A0A00200A002A2A2A2A2A2A2A2A2A2A39
S11321A02A2A2A2A2A2A2A2A2A2A2A2A2A2A2A2A8B
S11321B02A2A2A2A2A2A2A2A2A2A2A2A2A2A2A2A7B
S11321C02A2A2A2A2A2A2A2A2A2A0A002A2A2A2AB5
S11321D02A2020455849542041646D696E204D6F72
S11321E064696679696E67206D6F646520737563D1
S11321F06365737366756C6C79202A2A2A2A2A2AE5
S11322000A002A2A2A2A2A2A2A2A2A2A2A2A2A2A74
S11322102A2A2A2A2A2A2A2A2A2A2A2A2A2A2A2A1A
S11322202A2A2A2A2A2A2A2A2A2A2A2A2A2A2A2A0A
S11322302A2A2A2A2A2A0A00200A002A2A2A2A2A98
S11322402A2A2A2A2A2A2A2A2A2A2A2A2A2A2A2AEA
S11322502A2A2A2A2A2A2A2A2A2A2A2A2A2A2A2ADA
S11322602A2A2A2A2A2A2A2A2A2A2A2A2A2A2A2ACA
S11322702A2A2A2A2A2A2A2A2A2A2A2A2A2A2A2ABA
S11322802A2A2A2A0A002A2A2A2A2A2A2A2A2A20FE
S11322904D6178696D756D204461696C7920416D7B
S11322A06F756E7420446F6573204E6F7420536590
S11322B074205375636365737366756C6C79202140
S11322C0212121202A2A2A2A2A2A2A2A2A2A2A0AAF
S11322D0002A2A2A2A2A2A2A2A2A2A2A2A2A2A2A84
S11322E02A2A2A2A2A2A2A2A2A2A2A2A2A2A2A2A4A
S11322F02A2A2A2A2A2A2A2A2A2A2A2A2A2A2A2A3A
S11323002A2A2A2A2A2A2A2A2A2A2A2A2A2A2A2A29
S11323102A2A2A2A2A2A2A2A2A2A0A00200A0020C1
S11323200A002A2A2A2A2A2A2A2A2A2A2A2A2A2A53
S11323302A2A2A2A2A2A2A2A2A2A2A2A2A2A2A2AF9
S11323402A2A2A2A2A2A2A2A2A2A2A2A2A2A2A2AE9
S11323502A2A0A002A2A2A2A2A20204D6178696D0D
S1132360756D204461696C7920416D6F756E7420C0
S11323705375636365737366756C6C7920202A2AC0
S11323802A2A2A2A0A002A2A2A2A2A2A2A2A2A2AF3
S11323902A2A2A2A2A2A2A2A2A2A2A2A2A2A2A2A99
S11323A02A2A2A2A2A2A2A2A2A2A2A2A2A2A2A2A89
S11323B02A2A2A2A2A2A0A00200A00200A002A2A6B
S11323C02A2A2A2A2A2A2A2A2A2A2A2A2A2A2A2A69
S11323D02A2A2A2A2A2A2A2A2A2A2A2A2A2A2A2A59
S11323E02A2A2A2A2A2A2A2A2A2A2A2A2A2A0A0093
S11323F02A2A2A2A2A2020506C6561736520456E9A
S113240074657220746865204D4178204461696C5C
S11324107920416D6F756E74202A2A2A2A2A2A2A65
S11324200A002A2A2A2A2A2A2A2A2A2A2A2A2A2A52
S11324302A2A2A2A2A2A2A2A2A2A2A2A2A2A2A2AF8
S11324402A2A2A2A2A2A2A2A2A2A2A2A2A2A2A2AE8
S11324502A2A0A00200A002A2A2A2A2A2A2A2A2A76
S11324602A2A2A2A2A2A2A2A2A2A2A2A2A2A2A2AC8
S11324702A2A2A2A2A2A2A2A2A2A2A2A2A2A2A2AB8
S11324802A2A2A2A2A2A2A2A2A2A2A2A2A2A2A2AA8
S11324902A0A002A2A2A2A2A2A2A2A204572726FFC
S11324A07220446F6573204E6F7420436C656172B3
S11324B06564205375636365737366756C6C79200A
S11324C02121212120202A2A2A2A2A2A2A0A002AEA
S11324D02A2A2A2A2A2A2A2A2A2A2A2A2A2A2A2A58
S11324E02A2A2A2A2A2A2A2A2A2A2A2A2A2A2A2A48
S11324F02A2A2A2A2A2A2A2A2A2A2A2A2A2A2A2A38
S11325002A2A2A2A2A2A2A2A2A0A00200A002A2AC5
S11325102A2A2A2A2A2A2A2A2A2A2A2A2A2A2A2A17
S11325202A2A2A2A2A2A2A2A2A2A2A2A2A2A2A2A07
S11325302A2A2A2A2A2A2A2A2A2A2A2A2A2A0A0041
S11325402A2A2A2A2A2A2A2A2A2A20204572726F0B
S11325507220436C656172656420537563636573AF
S11325607366756C6C79202A2A2A2A2A2A2A2A2A2E
S11325700A002A2A2A2A2A2A2A2A2A2A2A2A2A2A01
S11325802A2A2A2A2A2A2A2A2A2A2A2A2A2A2A2AA7
S11325902A2A2A2A2A2A2A2A2A2A2A2A2A2A2A2A97
S11325A02A2A0A00200A002A2A2A2A2A2A2A2A2A25
S11325B02A2A2A2A2A2A2A2A2A2A2A2A2A2A2A2A77
S11325C02A2A2A2A2A2A2A2A2A2A2A2A2A2A2A2A67
S11325D02A2A2A2A2A2A2A0A002A2A2A2A2A2A2AA1
S11325E02A2A2A2A2A2A2020506C656173652054DD
S11325F0727920416761696E20202A2A2A2A2A2AB0
S11326002A2A2A2A2A2A2A2A2A0A002A2A2A2A2A70
S11326102A2A2A2A2A2A2A2A2A2A2A2A2A2A2A2A16
S11326202A2A2A2A2A2A2A2A2A2A2A2A2A2A2A2A06
S11326302A2A2A2A2A2A2A2A2A2A2A0A00200A0094
S11326402A2A2A2A2A2A2A2A2A2A2A2A2A2A2A2AE6
S11326502A2A2A2A2A2A2A2A2A2A2A2A2A2A2A2AD6
S11326602A2A2A2A2A2A2A2A2A2A2A2A2A2A2A2AC6
S11326700A002A2A2A2A2A2041646D696E204461AC
S113268074612053746F726564205375636365735A
S11326907366756C6C79202A2A2A2A2A2A2A2A2AFD
S11326A02A2A0A002A2A2A2A2A2A2A2A2A2A2A2AD0
S11326B02A2A2A2A2A2A2A2A2A2A2A2A2A2A2A2A76
S11326C02A2A2A2A2A2A2A2A2A2A2A2A2A2A2A2A66
S11326D02A2A2A2A0A00200A002A2A2A2A2A2A2AF4
S11326E02A2A2A2A2A2A2A2A2A2A2A2A2A2A2A2A46
S11326F02A2A2A2A2A2A2A2A2A2A2A2A2A2A2A2A36
S11327002A2A2A2A2A2A2A2A2A0A002A2A2A2A2A6F
S11327102A2A2A2A2A2A2A2A2A2A2A2A2A202077DC
S113272061697420212121202A2A2A2A2A2A2A2A74
S11327302A2A2A2A2A2A2A2A2A2A2A0A002A2A2A3F
S11327402A2A2A2A2A2A2A2A2A2A2A2A2A2A2A2AE5
S11327502A2A2A2A2A2A2A2A2A2A2A2A2A2A2A2AD5
S11327602A2A2A2A2A2A2A2A2A2A2A2A2A0A002019
S11327700A002A2A2A2A2A2A2A2A2A2A2A2A2A2AFF
S11327802A2A2A2A2A2A2A2A2A2A2A2A2A2A2A2AA5
S11327902A2A2A2A2A2A2A2A2A2A2A2A2A2A2A2A95
S11327A02A2A0A002A2A2A2A2A2A20456E746572AD
S11327B02061206E65772061646D696E204D4158FB
S11327C02054656D702076616C75653A2A2A2A2A30
S11327D02A2A2A2A0A002A2A2A2A2A2A2A2A2A2A9F
S11327E02A2A2A2A2A2A2A2A2A2A2A2A2A2A2A2A45
S11327F02A2A2A2A2A2A2A2A2A2A2A2A2A2A2A2A35
S11328002A2A2A2A2A2A0A00200A002A2A2A2A2AC2
S11328102A2A2A2A2A2A2A2A2A2A2A2A2A2A2A2A14
S11328202A2A2A2A2A2A2A2A2A2A2A2A2A2A2A2A04
S11328302A2A2A2A2A2A2A2A2A2A2A0A002A2A2A3E
S11328402A2A2A2A2A2A2A2A2A2A2020506C65611E
S113285073652054727920416761696E20202A2AA9
S11328602A2A2A2A2A2A2A2A2A2A2A2A2A0A002A0E
S11328702A2A2A2A2A2A2A2A2A2A2A2A2A2A2A2AB4
S11328802A2A2A2A2A2A2A2A2A2A2A2A2A2A2A2AA4
S11328902A2A2A2A2A2A2A2A2A2A2A2A2A2A2A0AB4
S11328A000200A002A2A2A2A2A2A2A2A2A2A2A2A02
S11328B02A2A2A2A2A2A2A2A2A2A2A2A2A2A2A2A74
S11328C02A2A2A2A2A2A2A2A2A2A2A2A2A2A2A2A64
S11328D02A2A2A2A0A002A2A2A2A2A2A2A2A204191
S11328E0646D696E20446174612053746F72656411
S11328F0205375636365737366756C6C7920202A45
S11329002A2A2A2A2A2A0A002A2A2A2A2A2A2A2A6D
S11329102A2A2A2A2A2A2A2A2A2A2A2A2A2A2A2A13
S11329202A2A2A2A2A2A2A2A2A2A2A2A2A2A2A2A03
S11329302A2A2A2A2A2A2A2A0A00200A002A2A2A91
S11329402A2A2A2A2A2A2A2A2A2A2A2A2A2A2A2AE3
S11329502A2A2A2A2A2A2A2A2A2A2A2A2A2A2A2AD3
S11329602A2A2A2A2A2A2A2A2A2A2A2A2A0A002A0D
S11329702A2A2A2A2A2A2A2A2A2A2A2A2A2A2A2AB3
S11329802A20207761697420212121202A2A2A2AD9
S11329902A2A2A2A2A2A2A2A2A2A2A2A2A2A2A0AB3
S11329A0002A2A2A2A2A2A2A2A2A2A2A2A2A2A2AAD
S11329B02A2A2A2A2A2A2A2A2A2A2A2A2A2A2A2A73
S11329C02A2A2A2A2A2A2A2A2A2A2A2A2A2A2A2A63
S11329D02A0A00200A00200A002A2A2A2A2A2A2A45
S11329E02A2A2A2A2A2A2A2A2A2A2A2A2A2A2A2A43
S11329F02A2A2A2A2A2A2A2A2A2A2A2A2A2A2A2A33
S1132A002A2A2A2A2A2A2A2A2A0A002A2A2A2A2A6C
S1132A102A2A2A20506C6561736520656E7465727C
S1132A202061206E65772061646D696E207061732A
S1132A3073203A202A2A2A2A2A2A2A0A002A2A2AF7
S1132A402A2A2A2A2A2A2A2A2A2A2A2A2A2A2A2AE2
S1132A502A2A2A2A2A2A2A2A2A2A2A2A2A2A2A2AD2
S1132A602A2A2A2A2A2A2A2A2A2A2A2A2A0A002016
S1132A700A00200A002A2A2A2A2A2A2A2A2A2A2A50
S1132A802A2A2A2A2A2A2A2A2A2A2A2A2A2A2A2AA2
S1132A902A2A2A2A2A2A2A2A2A2A2A2A2A2A2A2A92
S1132AA02A2A2A2A2A0A002A2A2A2A2A2A2A2A20D6
S1132AB0506C6561736520656E7465722061206E6B
S1132AC065772061646D696E206E616D65203A20C2
S1132AD02A2A2A2A2A2A2A0A002A2A2A2A2A2A2A9C
S1132AE02A2A2A2A2A2A2A2A2A2A2A2A2A2A2A2A42
S1132AF02A2A2A2A2A2A2A2A2A2A2A2A2A2A2A2A32
S1132B002A2A2A2A2A2A2A2A2A0A00200A000A0009
S1132B102A2A2A2A2A2A2A2A2A2A2A2A2A2A2A2A11
S1132B202A2A2A2A2A2A2A2A2A2A2A2A2A2A2A2A01
S1132B302A2A2A2A2A2A2A2A2A2A2A2A2A2A2A2AF1
S1132B402A2A2A2A2A2A2A2A2A2A2A2A2A2A2A2AE1
S1132B502A2A2A2A2A2A2A2A2A2A2A2A2A2A2A2AD1
S1132B602A2A2A2A2A2A2A2A2A2A2A0A002A2A2A0B
S1132B702A2A2A2A2A2A2A2A2A2A2A2A2A2A2A2AB1
S1132B802A2A2A2A2A2A2A2A2A2A2A2A2A2A2A2AA1
S1132B902A20454E44204F462053454C4543544932
S1132BA04F4E202121212A2A2A2A2A2A2A2A2A2A5D
S1132BB02A2A2A2A2A2A2A2A2A2A2A2A2A2A2A2A71
S1132BC02A2A2A2A2A2A2A2A0A002A2A2A2A2A2AAB
S1132BD02A2A2A2A2A2A2A2A2A2A2A2A2A2A2A2A51
S1132BE02A2A2A2A2A2A2A2A2A2A2A2A2A2A2A2A41
S1132BF02A2A2A2A2A2A2A2A2A2A2A2A2A2A2A2A31
S1132C002A2A2A2A2A2A2A2A2A2A2A2A2A2A2A2A20
S1132C102A2A2A2A2A2A2A2A2A2A2A2A2A2A2A2A10
S1132C202A2A2A2A2A0A002A2A2A2A2A2A2A2A2A4A
S1132C302A2A2A2A2A2A2A2A2A2A2A2A2A2A2A20FA
S1132C40352D2045786974202A2A2A2A2A2A2A2AF4
S1132C502A2A2A2A2A2A2A2A2A2A2A2A2A2A2A2AD0
S1132C602A2A2A2A2A2A2A2A2A2A2A2A2A2A2A2AC0
S1132C702A2A2A2A2A2A2A2A2A2A2A2A2A2A2A2AB0
S1132C802A2A0A002A2A2A2A2A2A2A2A2A2A2A2AEA
S1132C902A2A2A2A2A2A2A2A2A2A2A2A20342D2097
S1132CA0536574204D6178204461696C7920416DCD
S1132CB06F756E74202A2A2A2A2A2A2A2A2A2A2A5C
S1132CC02A2A2A2A2A2A2A2A2A2A2A2A2A2A2A2A60
S1132CD02A2A2A2A2A2A2A2A2A2A2A2A2A2A2A0A70
S1132CE0002A2A2A2A2A2A2A2A2A2A2A2A2A2A2A6A
S1132CF02A2A2A2A2A2A2A2A2A20332D20436C65A2
S1132D006172204572726F7220466C6167202A2AB4
S1132D102A2A2A2A2A2A2A2A2A2A2A2A2A2A2A2A0F
S1132D202A2A2A2A2A2A2A2A2A2A2A2A2A2A2A2AFF
S1132D302A2A2A2A2A2A2A2A2A2A2A2A0A002A2A39
S1132D402A2A2A2A2A2A2A2A2A2A2A2A2A2A2A2ADF
S1132D502A2A2A2A2A2A20322D20536574204164E3
S1132D606D696E204D6178696D756D2054656D7067
S1132D7065726174757265202A2A2A2A2A2A2A2AE7
S1132D802A2A2A2A2A2A2A2A2A2A2A2A2A2A2A2A9F
S1132D902A2A2A2A2A2A2A2A2A0A002A2A2A2A2AD9
S1132DA02A2A2A2A2A2A2A2A2A2A2A2A2A2A2A2A7F
S1132DB02A2A2A20312D205365742041646D696EBE
S1132DC02050617373776F726420616E64204E616A
S1132DD06D65202A2A2A2A2A2A2A2A2A2A2A2A2ADB
S1132DE02A2A2A2A2A2A2A2A2A2A2A2A2A2A2A2A3F
S1132DF02A2A2A2A2A2A0A002A2A2A2A2A2A2A2A79
S1132E002A2A2A2A2A2A2A2A2A2A2A2A2A2A2A2A1E
S1132E102A2A2A2A2A2A2A2A2A2A2A2A2A2A2A2A0E
S1132E202A2A2A2A2A2A2A2A2A2A2A2A2A2A2A2AFE
S1132E302A2A2A2A2A2A2A2A2A2A2A2A2A2A2A2AEE
S1132E402A2A2A2A2A2A2A2A2A2A2A2A2A2A2A2ADE
S1132E502A2A2A0A002A2A2A2A2A2A2A2A2A2A2A18
S1132E602A2A2A2A2A2A2A2A2A2A2A2A20506C6525
S1132E706173652043686F6F7365206F6E65206FA3
S1132E80662074686520666F6C6C6F77696E672066
S1132E90436F6D6D616E6473202A2A2A2A2A2A2AB6
S1132EA02A2A2A2A2A2A2A2A2A2A2A2A2A2A2A2A7E
S1132EB00A002A2A2A2A2A2A2A2A2A2A2A2A2A2AB8
S1132EC02A2A2A2A2A2A2A2A2A2A2A2A2A2A2A2A5E
S1132ED02A2A2A2A2A2A2A2A2A2A2A2A2A2A2A2A4E
S1132EE02A2A2A2A2A2A2A2A2A2A2A2A2A2A2A2A3E
S1132EF02A2A2A2A2A2A2A2A2A2A2A2A2A2A2A2A2E
S1132F002A2A2A2A2A2A2A2A2A2A2A2A2A0A002071
S1132F100A002A2A2A2A2A2A2A2A2A2A2A2A2A2A57
S1132F202A2A2A2A2A2A2A2A2A2A2A2A2A2A2A2AFD
S1132F302A2A2A2A2A2A2A2A2A2A2A2A2A2A2A2AED
S1132F402A2A0A002A2A2A2A2A2A2A2A2A2A2A2A27
S1132F502A20546869732063617264204973206E67
S1132F606F74204578697374202A2A2A2A2A2A2A07
S1132F702A2A2A2A0A002A2A2A2A2A2A2A2A2A2AF7
S1132F802A2A2A2A2A2A2A2A2A2A2A2A2A2A2A2A9D
S1132F902A2A2A2A2A2A2A2A2A2A2A2A2A2A2A2A8D
S1132FA02A2A2A2A2A2A0A00200A002A2A2A2A2A1B
S1132FB02A2A2A2A2A2A2A2A2A2A2A2A2A2A2A2A6D
S1132FC02A2A2A2A2A2A2A2A2A2A2A2A2A2A2A2A5D
S1132FD02A2A2A2A2A2A2A2A2A2A2A0A002A2A2A97
S1132FE02A2A2A2A2A2A2A2A2A2A20546869732061
S1132FF06361726420204973204578697374202AC0
S11330002A2A2A2A2A2A2A2A2A2A2A2A2A0A002A66
S11330102A2A2A2A2A2A2A2A2A2A2A2A2A2A2A2A0C
S11330202A2A2A2A2A2A2A2A2A2A2A2A2A2A2A2AFC
S11330302A2A2A2A2A2A2A2A2A2A2A2A2A2A2A0A0C
S113304000200A002A2A2A2A2A2A2A2A2A2A2A2A5A
S11330502A2A2A2A2A2A2A2A2A2A2A2A2A2A2A2ACC
S11330602A2A2A2A2A2A2A2A2A2A2A2A2A2A2A2ABC
S11330702A2A2A2A0A002A2A2A2A2A2A2A2A2A2AF6
S11330802A2A2A20506C6561736520656E74657206
S11330902043617264204E616D653A202A2A2A2AEF
S11330A02A2A2A2A2A2A0A002A2A2A2A2A2A2A2AC6
S11330B02A2A2A2A2A2A2A2A2A2A2A2A2A2A2A2A6C
S11330C02A2A2A2A2A2A2A2A2A2A2A2A2A2A2A2A5C
S11330D02A2A2A2A2A2A2A2A0A0057454C434F4DCB
S11330E045204F5045524154450000000000202027
S11330F02020204D4F444520202020202000000087
S113310000002020504C4541534520454E54455223
S113311020000000000020202020204341524420B1
S1133120202020202000000000002020454E54458F
S11331305220544845202020200000000000545212
S1133140414E53414320414D4F554E542000000001
S113315000005452414E53414354494F4E20203AAB
S1133160200000000000202020202057726F6E678E
S11331702020202020000000000020205472616ED6
S113318073616374696F6E202000000000002020CA
S11331904552524F525F54656D702020200000004C
S11331A00000202043414C4C5F5858585858582030
S11331B020000000000009447261676F6E732020D4
S11331C020202000000000000000202041544D2059
S11331D053797374656D2020200000000000656E33
S11331E07465722050726F6772616D202000000058
S11331F0000020202020204D6F6465202020202006
S113320020000000000050726F6772616D204D6FE6
S1133210644520202000000000002020202043419D
S113322052442020202020202000000000002020E4
S1133230204E4F5420524541445920202000000084
S113324000002020205448414E4B202020202020E4
S113325020000000000020202020594F552020206D
S1133260202020202000000000002020205375632F
S1133270636573732020202020000000000048694B
S11332806E742121212120456D707479204461746C
S11332906142617365200A0011241FBECFE5D8E0A6
S11332A0DEBFCDBF11E0A0E6B0E0ECE6FCE602C074
S11332B005900D92AC36B107D9F721E0ACE6B1E048
S11332C001C01D92A23FB207E1F70E94982C0C9412
S11332D034360C94000008950895CF93DF9300D002
S11332E0CDB7DEB789839DE09A838A3049F441E003
S11332F050E0BE016E5F7F4F87E790E00E9422306E
S113330041E050E0BE016F5F7F4F87E790E00E948D
S1133310223080E090E00F900F90DF91CF910895DC
S11333200F931F93CF93DF93CDB7DEB76E970FB68E
S1133330F894DEBF0FBECDBF8AE0FE013196DF01F7
S1133340982F1D929A95E9F73A96DF01982F1D92CE
S11333509A95E9F73A96DF011D928A95E9F761E0BB
S113336081E790E00E94812C811183C08E01055F6A
S11333701F4FBE016F5F7F4FC8010E949D281F939E
S11333800F938BEF90E09F938F930E94203386E2FC
S113339094E09F938F930E94363380EF93E09F9342
S11333A08F930E9436338AEB93E09F938F930E940E
S11333B0363387EB93E09F938F930E943633CE018D
S11333C045962AE0FC0111922A95E9F76AE00E94E9
S11333D0911C0FB6F894DEBF0FBECDBF22C081E8AA
S11333E093E09F938F930E9436338BE493E09F93F3
S11333F08F930E94363385E193E09F938F930E94CD
S1133400363382E193E09F938F930E9436336AE0D0
S1133410CE0145960E94911C0FB6F894DEBF0FBEF4
S1133420CDBFBE016B5E7F4FCE0101960E94DF329D
S1133430892BA9F68CED92E09F938F930E943633EB
S113344087EA92E09F938F930E94363381E792E05C
S11334509F938F930E9436338EE692E09F938F93CF
S11334600E9436330FB6F894DEBF0FBECDBF81E0A5
S11334701EC088E392E09F938F930E94363382E0CC
S113348092E09F938F930E9436338CEC91E09F934C
S11334908F930E94363389EC91E09F938F930E941F
S11334A036330FB6F894DEBF0FBECDBF80E06E9604
S11334B00FB6F894DEBF0FBECDBFDF91CF911F9141
S11334C00F91089586EB91E30E94841CAC0161E0A6
S11334D081E00E944C2B8AEC91E30E94841CAC0195
S11334E061E082E00E944C2B83E991E09F938F93EB
S11334F00E9436338FE791E09F938F930E94363377
S113350086EB91E39F938F930E9436338AE691E092
S11335109F938F930E94363385E591E09F938F9319
S11335200E9436338AEC91E39F938F930E94363343
S113353082E491E09F938F930E9436338CE091E074
S11335409F938F930E94363389E091E09F938F93EA
S11335500E9436332FEF3DE389E421503040804010
S1133560E1F700C0000081E00E94A82A41E151E097
S113357065E081E00E944C2B83ED90E09F938F9354
S11335800E9436338DE990E09F938F930E943633E7
S113359087E690E09F938F930E94363384E690E011
S11335A09F938F930E9436339FEF2DE339E491501C
S11335B020403040E1F700C0000081E00E94A82ACA
S11335C00E9490192DB73EB7265E3F4F0FB6F89470
S11335D03EBF0FBE2DBF813011F40E94C3217894E9
S11335E087E690E00E94A22F0E942F29811103C038
S11335F00E943B23F4CF0E940927F1CFCF93DF939E
S113360000D01F92CDB7DEB780E8898381E08A833A
S11336108B83BE016F5F7F4F80E390E00E94FD2D9E
S113362088E08983BE016F5F7F4F80E390E00E9452
S1133630FD2D81E790E00E94512C0F900F900F9088
S1133640DF91CF9108958BEB90E00E9466290E9450
S1133650082B8CE691E00E949D2C8BE699E10E9458
S1133660D12C86E990E00E94252E0E94872B88E8C1
S113367090E00E940A2F87E790E00E94E92F0E94C1
S1133680FE1A87E690E00E948B2F6CE679E184E0D5
S11336900E94CD2F80E690E00E944F2DF89489B7C8
S11336A0846089BF60E080E690E00E946B2D8EEB21
S11336B091E00E94E9288EEB91E00E94B33290934E
S11336C06F0180936E01019631F482E390E0909350
S11336D06F0180936E018FE990E09093EF018093E6
S11336E0EE0108951F920F920FB60F9211240F90BE
S11336F00FBE0F901F901895CF93DF931F92CDB7F5
S1133700DEB7198282EB9CE19F938F930E9436333C
S113371085E59CE19F938F930E94363388EF9BE16C
S11337209F938F930E9436338BE99BE19F938F93F2
S11337300E9436338EE39BE19F938F930E9436332E
S113374081EE9AE19F938F930E94363384E89AE145
S11337509F938F930E94363387E29AE19F938F93CE
S11337600E9436338AEC99E19F938F930E943633FB
S11337708DE699E19F938F930E94363380E199E11E
S11337809F938F930E94363383EB98E19F938F939B
S11337900E94363386E598E19F938F930E943633D7
S11337A089EF97E19F938F930E94363386EF97E1D9
S11337B09F938F930E94363341E050E0BE016F5FC8
S11337C07F4F87E790E00E943F3084EF97E19F931B
S11337D08F930E9436330FB6F894DEBF0FBECDBF71
S11337E089810F90DF91CF9108951F93CF93DF9339
S11337F0009709F485C0EC0110E07FC041E068E067
S113380080E390E00E94182E4DE150E0BE0188E86C
S113381090E00E946C2F6AE171E0CE010E94DF32D9
S1133820892B09F05AC089E896E09F938F930E94F0
S1133830363387E596E09F938F930E94363385E273
S113384096E09F938F930E94363383EF95E09F9386
S11338508F930E94363380EF95E09F938F930E945D
S1133860363381E00E94A82A8AEB95E09F938F93D8
S11338700E94363386EA95E09F938F930E943633F5
S11338808AE192E39F938F930E94363384E995E013
S11338909F938F930E94363380E895E09F938F9394
S11338A00E9436338EE292E39F938F930E943633C5
S11338B08DE695E09F938F930E94363387E395E0DE
S11338C09F938F930E9436338DB79EB74A960FB657
S11338D0F8949EBF0FBE8DBF01C011E040E068E0C8
S11338E080E390E00E94182E9FEF27EA81E6915032
S11338F020408040E1F700C00000112309F47ECF8E
S1133900DF91CF911F910895009741F0BC0180E7AA
S113391091E00E94D13280E791E0089580E090E048
S113392008950F931F93CF93DF93009791F066232D
S113393091F0EC01062F10E0A80160E070E00E9415
S1133940D832A801BE0187E790E00E943F3080E0B2
S113395003C08FEF01C08FEFDF91CF911F910F91C3
S113396008950F931F93CF93DF93CDB7DEB7A3973B
S11339700FB6F894DEBF0FBECDBF8E010F5F1F4F91
S113398083E2F80111928A95E9F781EC97E19F931C
S11339908F930E9436338EE897E19F938F930E9412
S11339A036338BE597E19F938F930E94363388E5F6
S11339B097E19F938F930E9436336BE0C8010E9476
S11339C0911C85E297E19F938F930E94363382EF97
S11339D096E19F938F930E9436338FEB96E19F93EA
S11339E08F930E9436338CEB96E19F938F930E94C2
S11339F036336BE0CE010C960E94911C89E896E167
S1133A009F938F930E94363386E596E19F938F931D
S1133A100E94363383E296E19F938F930E9436335C
S1133A2080E296E19F938F930E94363366E0CE0145
S1133A3047960E94911C8DEE95E19F938F930E946F
S1133A4036338AEB95E19F938F930E94363387E850
S1133A5095E19F938F930E94363385E895E19F9378
S1133A608F930E9436330FB6F894DEBF0FBECDBFDE
S1133A7067E0CE014D960E94911CC8010E94D12797
S1133A8081111EC082E595E19F938F930E94363386
S1133A908FE195E19F938F930E9436338CEE94E1EE
S1133AA09F938F930E94363389EE94E19F938F9373
S1133AB00E9436330FB6F894DEBF0FBECDBF3DC0B3
S1133AC08330F1F486EB94E19F938F930E94363315
S1133AD083E894E19F938F930E94363380E594E1C9
S1133AE09F938F930E9436338DE494E19F938F9339
S1133AF00E9436330FB6F894DEBF0FBECDBF1DC093
S1133B008AE194E19F938F930E94363387EE93E189
S1133B109F938F930E94363384EB93E19F938F930B
S1133B200E94363381EB93E19F938F930E94363347
S1133B300FB6F894DEBF0FBECDBFA3960FB6F894B0
S1133B40DEBF0FBECDBFDF91CF911F910F910895BE
S1133B500F931F93CF93DF93CDB7DEB7A3970FB621
S1133B60F894DEBF0FBECDBF8E010F5F1F4F83E2FF
S1133B70F80111928A95E9F78EE793E19F938F9369
S1133B800E9436338BE493E19F938F930E943633E4
S1133B9088E193E19F938F930E94363385E193E10B
S1133BA09F938F930E9436336BE0CE010C960E9454
S1133BB0911CC8010E9425280FB6F894DEBF0FBEE1
S1133BC0CDBF81111EC082EE92E19F938F930E941C
S1133BD036338FEA92E19F938F930E9436338CE7BA
S1133BE092E19F938F930E94363389E792E19F93EA
S1133BF08F930E9436330FB6F894DEBF0FBECDBF4D
S1133C001DC086E492E19F938F930E94363383E133
S1133C1092E19F938F930E94363380EE91E19F93BC
S1133C208F930E9436338DED91E19F938F930E9481
S1133C3036330FB6F894DEBF0FBECDBFA3960FB6D2
S1133C40F894DEBF0FBECDBFDF91CF911F910F91CE
S1133C5008950F931F93CF93DF93CDB7DEB7A39748
S1133C600FB6F894DEBF0FBECDBF8E010F5F1F4F9E
S1133C7083E2F80111928A95E9F78AEA91E19F9328
S1133C808F930E94363387E791E19F938F930E942D
S1133C90363384E491E19F938F930E94363381E419
S1133CA091E19F938F930E9436336BE0CE010C9683
S1133CB00E94911C60E0C8010E945E270FB6F89430
S1133CC0DEBF0FBECDBF0196F9F081E191E19F9374
S1133CD08F930E94363381EE90E19F938F930E94DD
S1133CE0363381EB90E19F938F930E9436338EEAB3
S1133CF090E19F938F930E9436330FB6F894DEBF02
S1133D000FBECDBF81E01EC08CE790E19F938F93DF
S1133D100E9436338AE490E19F938F930E94363356
S1133D2088E190E19F938F930E94363385E190E17F
S1133D309F938F930E9436330FB6F894DEBF0FBE65
S1133D40CDBF82E0A3960FB6F894DEBF0FBECDBF01
S1133D50DF91CF911F910F9108950F931F93CF93EC
S1133D60DF93CDB7DEB7A3970FB6F894DEBF0FBECF
S1133D70CDBF8E010F5F1F4F83E2F80111928A9528
S1133D80E9F788EA90E39F938F930E94363386E79E
S1133D9090E39F938F930E94363384E490E39F9340
S1133DA08F930E94363381E490E39F938F930E9414
S1133DB036336AE0C8010E94911C61E0C8010E9488
S1133DC05E270FB6F894DEBF0FBECDBF0196F1F0AB
S1133DD08FE090E39F938F930E9436338DED9FE2A3
S1133DE09F938F930E9436338BEA9FE29F938F9326
S1133DF00E94363388EA9FE29F938F930E94363362
S1133E000FB6F894DEBF0FBECDBF1DC086E79FE29C
S1133E109F938F930E94363384E49FE29F938F9302
S1133E200E94363382E19FE29F938F930E94363340
S1133E308FE09FE29F938F930E9436330FB6F894DE
S1133E40DEBF0FBECDBFA3960FB6F894DEBF0FBE84
S1133E50CDBFDF91CF911F910F9108951F93CF9301
S1133E60DF93CDB7DEB7AE970FB6F894DEBF0FBEC3
S1133E70CDBF1982FE01329683E2DF011D928A953D
S1133E80E9F710E073C282EB9EE29F938F930E9446
S1133E90363385E59EE29F938F930E94363388EFF5
S1133EA09DE29F938F930E9436338BE99DE29F930B
S1133EB08F930E9436338EE39DE29F938F930E94EB
S1133EC0363381EE9CE29F938F930E94363384E8CD
S1133ED09CE29F938F930E94363387E29CE29F93E8
S1133EE08F930E9436338AEC9BE29F938F930E94B8
S1133EF036338DE69BE29F938F930E94363380E1A5
S1133F009BE29F938F930E9436338EE09BE29F93B4
S1133F108F930E94363341E050E0BE016F5F7F4FC4
S1133F2087E790E00E943F308BE09BE29F938F9362
S1133F300E9436330FB6F894DEBF0FBECDBF898121
S1133F40833309F444C130F4813359F0823309F4E2
S1133F50B9C00CC2843309F47BC1853309F4E8C1C8
S1133F6005C289ED9AE29F938F930E94363387EAC4
S1133F709AE29F938F930E94363385E79AE29F9348
S1133F808F930E94363382E79AE29F938F930E9425
S1133F9036336AE0CE0102960E94911C8FE69AE2C3
S1133FA09F938F930E9436338DE39AE29F938F936E
S1133FB00E9436338BE09AE29F938F930E943633AC
S1133FC089ED99E29F938F930E94363386ED99E2AF
S1133FD09F938F930E9436336AE0CE010D960E9420
S1133FE0911C83ED99E29F938F930E94363381EA6B
S1133FF099E29F938F930E9436338FE699E29F93C1
S11340008F930E9436338DE399E29F938F930E949E
S113401036338AE399E29F938F930E9436333FEFBE
S11340208DE399E4315080409040E1F700C00000F6
S1134030BE01635F7F4FCE0102960E9473280FB6C4
S1134040F894DEBF0FBECDBF81111EC088E099E297
S11340509F938F930E94363386ED98E29F938F93BC
S11340600E94363384EA98E29F938F930E943633FA
S113407081EA98E29F938F930E9436330FB6F894A7
S1134080DEBF0FBECDBF72C18FE698E29F938F93C0
S11340900E9436338DE398E29F938F930E943633C8
S11340A08BE098E29F938F930E94363388E098E2E6
S11340B09F938F930E9436330FB6F894DEBF0FBEE2
S11340C0CDBF54C186ED97E29F938F930E94363300
S11340D084EA97E29F938F930E94363382E797E2B4
S11340E09F938F930E9436338FE697E29F938F932B
S11340F00E9436336AE0CE0102960E94911C8DE341
S113410097E29F938F930E9436338BE097E29F93BD
S11341108F930E94363389ED96E29F938F930E948A
S1134120363386ED96E29F938F930E9436339FEF4A
S1134130ADE3B9E49150A040B040E1F700C0000005
S1134140CE0102960E94C9280FB6F894DEBF0FBEB6
S1134150CDBF81111EC084EA96E29F938F930E9483
S1134160363382E796E29F938F930E94363380E43E
S113417096E29F938F930E9436338DE396E29F934A
S11341808F930E9436330FB6F894DEBF0FBECDBFB7
S1134190EDC08BE096E29F938F930E94363389EDB6
S11341A095E29F938F930E94363387EA95E29F931B
S11341B08F930E94363384EA95E29F938F930E94F3
S11341C036330FB6F894DEBF0FBECDBFCFC081E04B
S11341D00E94F12881111EC082E795E29F938F937C
S11341E00E94363380E495E29F938F930E94363386
S11341F08EE095E29F938F930E9436338BE095E295
S11342009F938F930E9436330FB6F894DEBF0FBE90
S1134210CDBFACC08FEC94E29F938F930E94363352
S113422083E994E29F938F930E94363387E594E267
S11342309F938F930E94363384E594E29F938F93E8
S11342400E9436330FB6F894DEBF0FBECDBF8EC0CA
S113425082E294E29F938F930E94363380EF93E23D
S11342609F938F930E9436338EEB93E29F938F93A9
S11342700E9436338BEB93E29F938F930E943633E5
S11342806AE0CE0185960E94911C88EB93E29F938D
S11342908F930E943633CE0185960E945E290FB615
S11342A0F894DEBF0FBECDBF81111EC086E893E235
S11342B09F938F930E94363384E593E29F938F9369
S11342C00E94363382E293E29F938F930E943633A7
S11342D08FE193E29F938F930E9436330FB6F89445
S11342E0DEBF0FBECDBF42C08CE193E29F938F939C
S11342F00E94363381ED92E29F938F930E9436336E
S113430086E892E29F938F930E9436338BE392E286
S11343109F938F930E94363388E392E29F938F9307
S11343200E9436330FB6F894DEBF0FBECDBF1EC059
S113433082E092E29F938F930E9436338CEC91E259
S11343409F938F930E94363386E991E29F938F93D4
S11343500E94363383E991E29F938F930E94363310
S11343600FB6F894DEBF0FBECDBF11E0112309F4E0
S11343708ACDAE960FB6F894DEBF0FBECDBFDF91E7
S1134380CF911F910895CF938EED91E30E94841CE9
S1134390AC0161E081E00E944C2B82EF91E30E942A
S11343A0841CAC0161E082E00E944C2B8DE591E21B
S11343B09F938F930E94363389E491E29F938F9366
S11343C00E9436338EED91E39F938F930E94363390
S11343D086E391E29F938F930E94363384E291E2C5
S11343E09F938F930E94363382EF91E39F938F9331
S11343F00E94363382E191E29F938F930E94363379
S11344008CED90E29F938F930E94363389ED90E276
S11344109F938F930E9436332FEF8DE399E42150BD
S113442080409040E1F700C0000081E00E94A82A8B
S113443083EA90E29F938F930E9436338FE890E251
S11344409F938F930E94363386E092E39F938F93DA
S11344500E9436338CE790E29F938F930E94363309
S113446086E490E29F938F930E94363383E490E234
S11344709F938F930E94363386E092E30E94841CBC
S1134480AC0161E081E00E944C2B2FEF8DE399E4B5
S1134490215080409040E1F700C000008DB79EB7E6
S11344A04E960FB6F8949EBF0FBE8DBFC0E0DEC01F
S11344B00E947C1B90E0FC01F197E830F10508F0C4
S11344C0B5C0E65DFF4F0C9483320E94B11CCEC090
S11344D00E94A81DCBC00E94291EC8C00E94AD1E08
S11344E0C5C08DE090E29F938F930E94363384EE93
S11344F09FE19F938F930E9436330E945D289F9380
S11345008F9384E291E09F938F930E94203386EDF2
S11345109FE19F938F930E94363380EA9FE19F939C
S11345208F930E9436338DE99FE19F938F930E946E
S113453036338DB79EB70E960FB6F8949EBF0FBE56
S11345408DBF94C00E944227811121C087E69FE15C
S11345509F938F930E94363381E39FE19F938F93C0
S11345600E9436338BEF9EE19F938F930E943633E4
S113457088EF9EE19F938F930E9436338DB79EB749
S113458008960FB6F8949EBF0FBE8DBF6FC080EC27
S11345909EE19F938F930E94363388E89EE19F9318
S11345A08F930E94363380E59EE19F938F930E9400
S11345B036338DE49EE19F938F930E9436338DB7FB
S11345C09EB708960FB6F8949EBF0FBE8DBF4EC01F
S11345D00E942E1F4BC08BE19EE19F938F930E94FC
S11345E0363389EE9DE19F938F930E94363387EB98
S11345F09DE19F938F930E94363384EB9DE19F93BB
S11346008F930E9436339FEF2DE389E4915020402D
S11346108040E1F700C000008DB79EB708960FB642
S1134620F8949EBF0FBE8DBFC1E020C08EE79DE110
S11346309F938F930E94363388E49DE19F938F93D9
S11346400E94363382E19DE19F938F930E9436331B
S11346508FE09DE19F938F930E9436338DB79EB771
S113466008960FB6F8949EBF0FBE8DBFCC2309F4F5
S11346701FCFCF9108958AED90E30E94841CAC0172
S113468061E081E00E944C2B8EEE90E30E94841C3A
S1134690AC0161E082E00E944C2B8FED9FE09F9380
S11346A08F930E9436338BEC9FE09F938F930E94ED
S11346B036338AED90E39F938F930E94363388EBD1
S11346C09FE09F938F930E94363384EA9FE09F93E9
S11346D08F930E9436338EEE90E39F938F930E94C4
S11346E0363382E99FE09F938F930E9436338CE5A3
S11346F09FE09F938F930E94363389E59FE09F93B9
S11347008F930E9436332FEF8DE399E4215080403C
S11347109040E1F700C00000ADB7BEB752960FB6A7
S1134720F894BEBF0FBEADBF30C310928C0186E0BB
S1134730E5EBF0E0DF011D928A95E9F781E00E9444
S1134740A82A82E091E30E94841CAC0161E081E02C
S11347500E944C2B8AE192E30E94841CAC0161E02C
S113476082E00E944C2B83E29FE09F938F930E94F0
S113477036338FE09FE09F938F930E94363382E01D
S113478091E39F938F930E9436338DEF9EE09F9326
S11347908F930E94363389EE9EE09F938F930E94FD
S11347A036338AE192E39F938F930E94363386EDEA
S11347B09EE09F938F930E94363380EA9EE09F93FE
S11347C08F930E9436338DE99EE09F938F930E94CE
S11347D036338DB79EB742960FB6F8949EBF0FBE80
S11347E08DBF60E081E790E00E94812C8130C9F3A5
S11347F060E081E790E00E94812C811123C283EC68
S113480091E00E94F51B60E083EC91E00E945E273A
S113481090938601809385018F3FAFEF9A07C9F18A
S113482044E261E971E00E948D2B8DEA91E00E94DF
S1134830B332092E000CAA0BBB0B8093B1009093EA
S1134840B200A093B300B093B4008DE69EE09F93B2
S11348508F930E9436338DE39EE09F938F930E9443
S113486036338DE09EE09F938F930E9436338AE027
S11348709EE09F938F930E94363381E080938B0157
S11348808DB79EB708960FB6F8949EBF0FBE8DBF26
S113489022C088ED9DE09F938F930E94363386EA71
S11348A09DE09F938F930E94363384E79DE09F930E
S11348B08F930E94363381E79DE09F938F930E94EC
S11348C0363310928B01ADB7BEB718960FB6F89475
S11348D0BEBF0FBEADBF80918B01813009F0B2C164
S11348E00E94A82A8AE291E30E94841CAC0161E040
S11348F081E00E944C2B8EE391E30E94841CAC0166
S113490061E082E00E944C2B8BE39DE09F938F93A8
S11349100E94363387E29DE09F938F930E94363343
S11349208AE291E39F938F930E94363384E19DE062
S11349309F938F930E94363380E09DE09F938F93E3
S11349400E9436338EE391E39F938F930E94363314
S11349508CEE9CE09F938F930E94363386EB9CE011
S11349609F938F930E94363383EB9CE09F938F93A6
S11349700E943633BFEF2DE389E4B15020408040DC
S1134980E1F700C0000081E00E94A82A82E591E3DB
S11349900E94841CAC0161E081E00E944C2B61E028
S11349A082E00E94CF2A8DE79CE09F938F930E9420
S11349B0363389E69CE09F938F930E94363382E5D9
S11349C091E39F938F930E94363386E59CE09F93F7
S11349D08F930E94363380E29CE09F938F930E94D2
S11349E036338DE19CE09F938F930E943633ADB7AD
S11349F0BEB75E960FB6F894BEBF0FBEADBFC0E0A3
S1134A0013C0BFEF23EC89E0B15020408040E1F7B0
S1134A1000C000008BEB90E00E94AF2980938C01D2
S1134A208A3211F410928C0180918C01882349F30D
S1134A30833271F08AE20E948E2AEC2FF0E0EB546C
S1134A40FF4F80918C01808310928C01CF5FECCF5B
S1134A5085EB90E00E94B332092E000CAA0BBB0B2D
S1134A608093870190938801A0938901B0938A0170
S1134A7081E00E94A82A67E08091870190918801D3
S1134A800E945B2B9FEFADE3B9E49150A040B0408E
S1134A90E1F700C0000040918701509188016091C6
S1134AA0890170918A018091AD009091AE00A0912E
S1134AB0AF00B091B00084179507A607B70770F050
S1134AC08091B1009091B200A091B300B091B40074
S1134AD084179507A607B70708F05DC081E00E9418
S1134AE0A82A87EE9BE09F938F930E94363383ED31
S1134AF09BE09F938F930E94363386E691E39F93C6
S1134B008F930E94363381EC9BE09F938F930E9496
S1134B1036338DEA9BE09F938F930E9436338AE766
S1134B2091E39F938F930E9436338AE99BE09F938E
S1134B308F930E94363384E69BE09F938F930E9469
S1134B40363381E69BE09F938F930E94363386E64B
S1134B5091E30E94841CAC0161E081E00E944C2B33
S1134B608AE791E30E94841CAC0161E082E00E9428
S1134B704C2B2FEF8DE399E4215080409040E1F7D6
S1134B8000C00000ADB7BEB752960FB6F894BEBFD2
S1134B900FBEADBF57C0841B950BA60BB70B8093FC
S1134BA0B1009093B200A093B300B093B4004AE074
S1134BB06DEA71E00E94F33281E00E94A82A67E066
S1134BC08091B1009091B2000E945B2B8091B4005F
S1134BD08F938091B3008F938091B2008F938091D3
S1134BE0B1008F9387E291E09F938F930E942033CB
S1134BF044E261E971E080918501909186010E940F
S1134C00EF2B8AE692E30E94841CAC0161E081E010
S1134C100E944C2B8AE791E30E94841CAC0161E062
S1134C2082E00E944C2BBFEF2DE389E4B150204079
S1134C308040E1F700C000000F900F900F900F909C
S1134C400F900F9084E09BE09F938F930E943633E4
S1134C5087EA9AE09F938F930E9436338AE49AE01E
S1134C609F938F930E9436338DEE99E09F938F9399
S1134C700E94363380E999E09F938F930E943633E4
S1134C8083E399E09F938F930E94363386ED98E0F7
S1134C909F938F930E94363389E798E09F938F9375
S1134CA00E94363387E798E09F938F930E943633B0
S1134CB081E00E94A82A42E451E061E081E00E9480
S1134CC04C2B41E551E061E082E00E944C2BADB7F2
S1134CD0BEB752960FB6F894BEBF0FBEADBF81E00B
S1134CE052C010928C0113C0BFEF23EC89E0B15085
S1134CF020408040E1F700C000008BEB90E00E9470
S1134D00AF2980938C018A3211F410928C01809126
S1134D108C01882349F381E00E94A82A40E651E0EF
S1134D2061E081E00E944C2B40918C0166E082E0BE
S1134D300E94EC2A80918C01813319F0823329F08E
S1134D4009C01092840180E01EC081E08093840138
S1134D5080E019C08AE198E09F938F930E943633D4
S1134D608DEB97E09F938F930E94363380E697E014
S1134D709F938F930E9436330F900F900F900F9054
S1134D800F900F9081E08111ACCF80918401882332
S1134D9009F4CBCC9FEFA7EAB1E69150A040B04014
S1134DA0E1F700C000008AE297E09F938F930E948E
S1134DB0363384EF96E09F938F930E9436338EEBC5
S1134DC096E09F938F930E9436338BEB96E09F93EC
S1134DD08F930E94363381E00E94A82A82E492E3F2
S1134DE00E94841CAC0161E081E00E944C2B86E5AA
S1134DF092E30E94841CAC0161E082E00E944C2B8F
S1134E008DB79EB708960FB6F8949EBF0FBE8DBFA0
S1134E10FFCF8EE891E30E94841CAC0161E081E045
S1134E200E944C2B82EA91E30E94841CAC0161E055
S1134E3082E00E944C2B81E095E09F938F930E9427
S1134E4036338BEC94E09F938F930E94363385E93D
S1134E5094E09F938F930E9436338FE594E09F9361
S1134E608F930E9436338CE594E09F938F930E9436
S1134E7036338DB79EB70A960FB6F8949EBF0FBE11
S1134E808DBFFFCFCF93DF9300D000D0CDB7DEB777
S1134E901A8219828AEC9BE69C838B8344E0BE01D0
S1134EA06F5F7F4F80E090E00E94EF2B80E00F90D7
S1134EB00F900F900F90DF91CF910895FF920F9371
S1134EC01F93CF93DF938C01F62E42E06DE871E0DF
S1134ED080E090E00E948D2B80918D0190918E0155
S1134EE0892B09F04CC08EE792E39F938F930E9425
S1134EF036330F900F908FEF9FEF4DC042E06FE875
S1134F0071E0CE010E948D2B80918F0190919001D0
S1134F108F3F2FEF920789F120918D0130918E01FF
S1134F202150310930938E0120938D0144E261E9CF
S1134F3071E00E948D2BF1100EC0B801655F7F4FA8
S1134F408CE991E00E94DF32892B89F480918F01F2
S1134F509091900120C0B80181E991E00E94DF3274
S1134F60892B29F480918F019091900114C0809134
S1134F708D0190918E01892B61F0229602C0C2E0CE
S1134F80D0E0CA3C8BE6D80708F4B8CF8FEF9FEF88
S1134F9002C08FEF9FEFDF91CF911F910F91FF9090
S1134FA008950F931F93CF93DF9300D000D0CDB714
S1134FB0DEB78C011A8219821C821B8242E0BE0178
S1134FC06D5F7F4F80E090E00E948D2B8B819C81F0
S1134FD0853E954370F560E0C8010E945E27019606
S1134FE051F52B813C81C90101969C838B8344E25A
S1134FF0429FC001439F900D1124865394499A8384
S11350008983B8010E94EF2B8B819C81019642E039
S1135010BE016F5F7F4F880F991F0E94EF2B42E004
S1135020BE016D5F7F4F80E090E00E94EF2B80E037
S113503003C083E001C081E00F900F900F900F90A8
S1135040DF91CF911F910F910895CF93DF9300D0FB
S113505000D0CDB7DEB760E00E945E272FEF3FEFB0
S11350603A8329831C821B828F3F2FEF9207E9F03A
S113507042E0BE016F5F7F4F0E94EF2B42E0BE0112
S11350806D5F7F4F80E090E00E948D2B8B819C812F
S113509001979C838B8342E0BE016D5F7F4F80E06C
S11350A090E00E94EF2B80E001C082E00F900F900F
S11350B00F900F90DF91CF910895CF93DF9300D09D
S11350C0CDB7DEB71A82198242E0BE016F5F7F4F0F
S11350D080E090E00E948D2B89819A810F900F903F
S11350E0DF91CF910895EF92FF920F931F93CF9387
S11350F0DF931F92CDB7DEB77C018B0183E58983F3
S113510041E0BE016F5F7F4F88EE9DEF0E94EF2B61
S113511049E0B70182EF9DEF0E94EF2B49E0B8010F
S11351208CEF9DEF0E94EF2B80E00F90DF91CF91E9
S11351301F910F91FF90EF900895EF92FF920F93BC
S11351401F93CF93DF931F92CDB7DEB77C018B0102
S1135150198241E0BE016F5F7F4F88EE9DEF0E9490
S11351608D2B8981833561F44AE0B70182EF9DEF8D
S11351700E948D2B4AE0B8018CEF9DEF0E948D2B8D
S113518080E00F90DF91CF911F910F91FF90EF90EE
S113519008950F931F93CF93DF9300D0CDB7DEB75D
S11351A08C011A82198242E0BE016F5F7F4F88EE44
S11351B09DEF0E94EF2B45E0B80186E09EEF0E9430
S11351C0EF2B80E00F900F90DF91CF911F910F9103
S11351D008954AE0BC0186E09EEF0E948D2B80E09A
S11351E00895CF93DF93CDB7DEB72A970FB6F8941F
S11351F0DEBF0FBECDBF96E0E1EFF0E0DE01119619
S113520001900D929A95E1F7FE01379694E0DF0143
S11352101D929A95E9F7811109C04AE0BE016F5FBA
S11352207F4F80E19EEF0E94EF2B0FC0813069F425
S1135230BE016F5F7F4F8AE0FB0111928A95E9F707
S11352404AE080E19EEF0E94EF2B80E02A960FB6A1
S1135250F894DEBF0FBECDBFDF91CF9108950F93B9
S11352601F93CF93DF93CDB7DEB72A970FB6F89489
S1135270DEBF0FBECDBF8E010F5F1F4F8AE0F80166
S113528011928A95E9F74AE0B80180E19EEF0E9405
S11352908D2B61EF70E0C8010E94DF32892B11F47D
S11352A081E001C080E02A960FB6F894DEBF0FBEFD
S11352B0CDBFDF91CF911F910F91089546E0BC01BE
S11352C08AE19EEF0E94EF2B80E00895FF920F93F6
S11352D01F93CF93DF938C0181E08093B501F12C70
S11352E019C0CF2DD0E0CE01880F991FC80FD91F48
S11352F0C00FD11F8E858093B40164EB71E08C855F
S11353009D850E94FD2D41E06E858C859D850E94C2
S1135310182EF39482E08F1520F7E4EBF1E011826C
S113532081E08283C0E013C0EC2FF0E0CF01880F4E
S1135330991FE80FF91FE00FF11F82818093B401D8
S113534064EB71E0808191810E94FD2DCF5FC430B8
S113535058F3DF91CF911F910F91FF900895CF9251
S1135360DF92EF92FF920F931F93CF93DF93EC01A1
S1135370C12C4DC00C2D10E0F801EE0FFF1FE00F03
S1135380F11FEC0FFD1F40E06685848595850E9422
S1135390182ED12C2AC0ED2CF12CF701EE0FFF1F93
S11353A0EE0DFF1DEC0FFD1F6281808191810E9433
S11353B0102E811119C0C801880F991F800F911FE9
S11353C0C80FD91F41E06E858C859D850E94182EDB
S11353D0C701880F991F8E0D9F1D80539F4FFC019D
S11353E0E00FF11F808118C0D39483E08D1598F6E7
S11353F0F801EE0FFF1F0E0F1F1FFE01E00FF11F3C
S113540041E06685848595850E94182EC39482E0C8
S11354108C1508F0AFCF80E0DF91CF911F910F91F1
S1135420FF90EF90DF90CF900895CF93DF93CCED72
S1135430D0E041E068858E819F810E94182E85E02E
S11354408A95F1F7000040E068858E819F810E9473
S1135450182E8FE39FE10197F1F700C00000DF9160
S1135460CF9108950F931F93CF93C82F83E090E0BB
S113547023C08C010F5F1F4F41E050E0002E02C09B
S1135480440F551F0A94E2F72C2F30E04223532394
S1135490002E02C0559547950A94E2F7FC01EE0FE1
S11354A0FF1F8E0F9F1FFC01E452FF4F628180811A
S11354B091810E94182EC80187309105D4F20E9470
S11354C0152A03E010E021C0C801039741E050E031
S11354D0082E02C0440F551F0A94E2F72C2F30E027
S11354E04223532302C0559547958A95E2F7F80164
S11354F0EE0FFF1FE00FF11FE452FF4F6281808126
S113550091810E94182E0F5F1F4F07301105E4F29E
S11355100E94152ACF911F910F9108951F93CF9345
S1135520DF93182FCCEDD0E041E06A818881998126
S11355300E94182E40E06D818B819C810E94182E60
S1135540812F0E94322A80E0DF91CF911F9108952C
S11355501F93CF93DF93182FCCEDD0E040E06A8106
S1135560888199810E94182E40E06D818B819C81F5
S11355700E94182E812F0E94322A80E0DF91CF9161
S11355801F910895CF93DF93EC0103C021960E94ED
S11355908E2A88818111FACFDF91CF910895CF931C
S11355A0DF9300D0CDB7DEB790E8998390EC9A836F
S11355B0E82FF0E0319781E090E08C0F9D1FE80F19
S11355C0F91F8081860F81500E94A82A80E00F90E5
S11355D00F90DF91CF9108951F93CF93DF93142FF2
S11355E00E94CF2ACCEDD0E041E06A818881998184
S11355F00E94182E40E06D818B819C810E94182EA0
S1135600812F0E94322A80E0DF91CF911F9108956B
S11356100F931F93CF93DF9300D01F92CDB7DEB7C4
S11356202FEF89EF90E0215080409040E1F700C0D7
S1135630000081E08A831B8200E010E012C0F801C0
S1135640EE0FFF1FE00FF11FE452FF4F82818983A9
S1135650BE016F5F7F4F808191810E94FD2D0F5F9E
S11356601F4F073011055CF383E30E94A82A82E3ED
S11356700E94A82A88E20E94A82A8CE00E94A82AF4
S113568081E00E94A82A80E00F900F900F90DF9194
S1135690CF911F910F910895CF93DF93EA010E9458
S11356A0CF2A03C021960E948E2A88818111FACFC5
S11356B0DF91CF910895EF92FF920F931F93CF93B1
S11356C0DF93CDB7DEB7EDB6FEB62DB73EB7261BDA
S11356D031090FB6F8943EBF0FBE2DBF0DB71EB7EC
S11356E00F5F1F4F4AE050E0B8010E94E832C80142
S11356F00E94C22A80E00FB6F894FEBE0FBEEDBE33
S1135700DF91CF911F910F91FF90EF90089586E95B
S113571090E00E94252E80E008958F929F92AF9290
S1135720BF92CF92DF92EF920F931F93CF936115A5
S1135730710509F446C0442309F445C0C42F6B0124
S1135740AC015C01AA0CAB2CAA1CBB08B1944C01A3
S1135750E89487F89924C4018C0F911D8138910530
S113576030F180E8E82EE8188B0122E060EA86E94F
S113577090E00E94A92E00E810E0081919098C2F66
S1135780880D6894EE24E7F8E80E0C0D1D1DA501A4
S11357904F5F5F4F5695542F44275795479522E006
S11357A060EA86E990E00E94A92E80E00DC0EC2E0C
S11357B08B0122E060EA86E990E00E94A92E80E055
S11357C003C081E001C081E0CF911F910F91EF9060
S11357D0DF90CF90BF90AF909F908F9008958F925D
S11357E09F92AF92BF92CF92DF92EF920F931F934B
S11357F0CF936115710509F446C0442309F445C0EB
S1135800C42F6B01AC015C01AA0CAB2CAA1CBB0815
S1135810B1944C01E89487F89924C4018C0F911D2C
S11358208138910530F180E8E82EE8188B0122E0F8
S113583060EA86E990E00E94662E00E810E008190C
S113584019098C2F880D6894EE24E7F8E80E0C0DE6
S11358501D1DA5014F5F5F4F5695542F4427579543
S1135860479522E060EA86E990E00E94662E80E097
S11358700DC0EC2E8B0122E060EA86E990E00E94E4
S1135880662E80E003C081E001C081E0CF911F91CA
S11358900F91EF90DF90CF90BF90AF909F908F903B
S11358A00895EF92FF921F93CF93DF9300D01F923E
S11358B0CDB7DEB70097D9F07C011A8210E013C08F
S11358C0E12FF0E0CF01880F991FE80FF91FEE0DCB
S11358D0FF1D82818983BE016F5F7F4F808191812B
S11358E00E94FD2D1F5F123058F380E001C081E05B
S11358F00F900F900F90DF91CF911F91FF90EF9039
S11359000895009789F0633088F470E0FB01EE0F8E
S1135910FF1F6E0F7F1FFC01E60FF71F628180815E
S113592091810E94102E08958FEF08958FEF0895AE
S11359300E94231B0E94621AFDCFFC0180818230E9
S113594071F48181823021F484B78F7B84BF03C0DA
S113595084B7806484BF8BB780628BBF20C085B757
S1135960807F85BF8081811108C095B78181892B93
S113597085BF8BB780648BBF12C045B7218190E08F
S1135980880F991F30E0B90102C0660F771F8A950E
S1135990E2F7CB01842B85BF8BB780688BBF7894EB
S11359A008959093E7018093E60108951F920F9262
S11359B00FB60F9211242F933F934F935F936F93DE
S11359C07F938F939F93AF93BF93EF93FF93E09154
S11359D0E601F091E7010995FF91EF91BF91AF9135
S11359E09F918F917F916F915F914F913F912F91F3
S11359F00F900FBE0F901F9018951F920F920FB625
S1135A000F9211242F933F934F935F936F937F9340
S1135A108F939F93AF93BF93EF93FF93E091EA012A
S1135A20F091EB010995FF91EF91BF91AF919F9197
S1135A308F917F916F915F914F913F912F910F9033
S1135A400FBE0F901F9018951F920F920FB60F92D2
S1135A5011242F933F934F935F936F937F938F936F
S1135A609F93AF93BF93EF93FF93E091E801F0917D
S1135A70E9010995FF91EF91BF91AF919F918F91AA
S1135A807F916F915F914F913F912F910F900FBE36
S1135A900F901F90189586B1806486B90895FC0113
S1135AA080B78F7180BF20B7908130E2939FC0018F
S1135AB01124822B80BF16B893818181892B806A3F
S1135AC086B917B894818281892B87B98381882309
S1135AD009F078940895CF93C62FE7EBF1E0118293
S1135AE081E001C0880F6A95EAF780831282BF01C2
S1135AF089E390E00E94FD2D87B1807E87B967B16C
S1135B006C2B67B90E944B2DCF9108951F920F9271
S1135B100FB60F9211242F933F934F935F936F937C
S1135B207F938F939F93AF93BF93EF93FF933D9B8B
S1135B3015C064B185B16295669566956370682BEE
S1135B4070E080E090E00E9468316093BA01709345
S1135B50BB018093BC019093BD0114C084B165B1B5
S1135B6070E0762F6627682B072E000C880B990BA4
S1135B700E9468316093BA017093BB018093BC01A9
S1135B809093BD0125EE3FEF4FE95BE36091BA01CD
S1135B907091BB018091BC019091BD010E94F431D0
S1135BA02AE037ED43E25CE30E94C5306093BA011A
S1135BB07093BB018093BC019093BD010E94373167
S1135BC020916E0130916F012617370728F480E089
S1135BD00E94F1280E940927FF91EF91BF91AF9194
S1135BE09F918F917F916F915F914F913F912F91F1
S1135BF00F900FBE0F901F901895FC01DB011196BA
S1135C008C911197813029F48C919181892B818316
S1135C100895DB019C919095818198239183089547
S1135C20FC018081682311F081E0089580E00895EB
S1135C30442329F0FC012281622B6283089560953C
S1135C40FC0122816223628308958F929F92AF9216
S1135C50BF92CF92DF92EF92FF920F93CF93DF9395
S1135C60EC01288139814A815B8160E074E284EF30
S1135C7090E00E94613249015A01392D4A2D5B2D71
S1135C8060E070E080E090E0A0EF0E94A73201E0C5
S1135C900E948B3220B98C8182B916BE11B88D81D5
S1135CA0813029F4789486B7816086BF03C086B7B3
S1135CB08E7F86BFDF91CF910F91FF90EF90DF90A1
S1135CC0CF90BF90AF909F908F900895EF920F93D5
S1135CD01F93DC0117961C930E9316971896EC925B
S1135CE0189784EA86BF06B607FEFDCF63B984E839
